:020000040800F2
:1000000050090020ED010008E92000081512000841
:10001000E5200008F503000885270008000000001F
:10002000000000000000000000000000D5260008CD
:10003000F903000800000000F52200080927000865
:10004000070200080702000807020008070200086C
:10005000070200080702000807020008070200085C
:10006000070200080702000807020008070200084C
:10007000070200080702000807020008070200083C
:10008000070200080702000807020008070200082C
:10009000070200080702000807020008070200081C
:1000A000070200080702000807020008070200080C
:1000B00007020008070200080702000807020008FC
:1000C00007020008070200080702000807020008EC
:1000D00007020008070200080702000807020008DC
:1000E00007020008070200080702000800000000DD
:1000F0000000000000000000000000000000000000
:1001000000000000000000000702000807020008CD
:10011000070200080702000807020008070200089B
:10012000070200080702000807020008070200088B
:10013000070200080000000000000000070200089D
:10014000070200080702000807020008070200086B
:1001500000F002F800F03AF80AA090E8000C82449F
:100160008344AAF10107DA4501D100F02FF8AFF27C
:10017000090EBAE80F0013F0010F18BFFB1A43F085
:10018000010318476035000080350000103A24BF95
:1001900078C878C1FAD8520724BF30C830C144BFEC
:1001A00004680C607047000000230024002500262E
:1001B000103A28BF78C1FBD8520728BF30C148BFCA
:1001C0000B6070471FB51FBD10B510BD00F0D8F80B
:1001D0001146FFF7F7FF02F045FB00F0F6F803B415
:1001E000FFF7F2FF03BC00F0FDF80000094880476C
:1001F00009480047FEE7FEE7FEE7FEE7FEE7FEE709
:10020000FEE7FEE7FEE7FEE704480549054A064B20
:1002100070470000812700085101000850030020AA
:1002200050090020500500205005002053EA020C20
:1002300000F069802DE9F04B4FF00006002B1FBF46
:10024000B3FA83F503FA05F424FA05F65E4012BF0B
:100250001643B2FA82F502FA05F4C5F120051EBF75
:1002600022FA05FC44EA0C04203556EA044C4FEA15
:10027000144418BF641C4FF000084FF0000990426E
:1002800071EB030C39D3002919BFB1FA81F701FAD8
:1002900007F6B0FA80F700FA07F6C7F120071EBF8D
:1002A00020FA07FC46EA0C062037B6FBF4FCA7EB65
:1002B0000507103F07F01F0BCBF120062CFA06F6BE
:1002C0000CFA0BFB44BFB3460026202FA4BF5E46AA
:1002D0004FF0000B5BEA060C08BF4FF0010B19EB67
:1002E0000B0948EB0608ABFB027C06FB02CC0BFBC0
:1002F00003CCC01B71EB0C01C1E70B460246414623
:100300004846BDE8F08B13B5084318BF4FF0FF30E7
:100310000146AFF30080BDE81C40704702F0FF03C8
:1003200043EA032242EA024200F002B84FF0000220
:1003300000B5134694469646203922BFA0E80C50DB
:10034000A0E80C50B1F12001BFF4F7AF090728BFB6
:10035000A0E80C5048BF0CC05DF804EB890028BF32
:1003600040F8042B08BF704748BF20F8022B11F05B
:10037000804F18BF00F8012B7047704770477047D7
:10038000754600F02BF8AE4605006946534620F04E
:100390000700854618B020B5FFF736FFBDE82040BE
:1003A0004FF000064FF000074FF000084FF0000B31
:1003B000AC46ACE8C009ACE8C009ACE8C009ACE8A0
:1003C000C00921F007018D46704710B50446AFF310
:1003D00000802046BDE81040FFF701BF004870478D
:1003E0001800002001491820ABBEFEE726000200DD
:1003F00070470000FEE7000070470000EFF3108038
:1004000072B600BFFEE70000B0B5044600F00EF97A
:10041000054640F20C00C2F200000078611C18BFD3
:10042000044400BF00F002F9401BA042FAD3B0BD63
:100430002DE9F04F82B00E68002E00F0F38041F2FB
:100440000042C4F20102042340F2004E904208BF71
:1004500003234FF6FF7CC4F2010E00930024012316
:10046000C1F2100C4FF0000A4FF0000940E00125E6
:1004700004F00C030F279F402BEA070705FA03F34C
:100480003B4342F826304E68F203DEF8002054BFAA
:1004900022EA080242EA0802CEF80020DEF8042030
:1004A000B30354BF22EA080242EA0802CEF804204D
:1004B000F302DEF8082054BF22EA080242EA0802EA
:1004C000B30240F20C43CEF80820C4F201031A68CC
:1004D00054BF22EA080242EA08021A6001230E68A9
:1004E0000AF1010A36FA0AF204F1040400F09A80D3
:1004F00003FA0AFB16EA0B08F1D04A68624511DCE0
:10050000122A51D8DFE802F0340A424650505050C7
:10051000505050505050505050494D00D1F80C9010
:1005200042E000BF4FF6FF75C1F22105AA420FDC81
:100530000025C1F21105AA421AD00025C1F2120508
:10054000AA4215D00025C1F22105AA4210D02BE005
:100550000025C1F22205AA420AD00025C1F23105C8
:10056000AA4205D00025C1F23205AA421CD100BF23
:100570008A6842B1012A14BFC0F814B0C0F810B0A4
:100580004FF0080910E04FF004090DE0CA6802F1CD
:10059000080909E04FF0000906E0CA6802F1040901
:1005A00002E0CA6802F10C0922460546B8F5807FD0
:1005B00024BF203A04352E680F279740BE4309FA1E
:1005C00002F232432A60CA79D2067FF588AF41F23F
:1005D0001803C4F202031A684FEA9A0642F00102B5
:1005E0001A601A6840F6000302F001020192019AB3
:1005F000AEF57E7252F826B0C4F2010398420FD0D5
:1006000040F60043C4F2010398423FF430AF41F298
:100610000003C4F20103009D984208BF022527E7AA
:10062000002525E702B0BDE8F08F000040F24C3015
:10063000C2F2000000687047F0B581B0B0B3044664
:1006400090F83D0028B9002084F83C00204600F0D6
:10065000BFF8242084F83D002068016821F00101E2
:100660000160016841F400410160016821F400412A
:10067000016000F023FA48F28041C0F21E0140F60A
:100680000012656888424FF00001C0F23D0248F256
:10069000A16C4FF0000338BF01219042C0F2010C61
:1006A00038BF0123654538BF0B4613B1012001B0A7
:1006B000F0BD4DF68361C4F21B31A0FB011221682D
:1006C0004FEA924E4B684FF4967623F03F0343EA8D
:1006D00092434B6044F6D3530F6A0EFB06F6C1F209
:1006E0006203A6FB033627F03F03B709654538BF11
:1006F000970C7A1C1A430A62CA6948F2A0674CF642
:10070000FF73C0F20107BD4222EA030C0AD8013888
:100710006A00B0FBF2F001306FF31F30042898BF7D
:1007200004202BE0A368A0F1010E9BB119206843BF
:10073000BEFBF0F00422013062F31F30000512D03E
:100740009BB119206843BEFBF0F00422013062F334
:100750001F3011E005EB4500BEFBF0F001306FF3F8
:100760001F300005ECD1012008E005EB4500BEFB81
:10077000F0F001306FF31F3040F4004040EA0C000D
:10078000C8610868D4E9072320F0C000104318436B
:100790000860886848F2FF3204F10C0790438CCF60
:1007A00018431043A6698860C86820F0FF003843EA
:1007B0003043C860086840F0010008600020202134
:1007C000206484F83D10206384F83E0001B0F0BD41
:1007D00010B586B0016845F60000C4F20000814201
:1007E0004FF00001CDE90411CDE9021101D006B0AE
:1007F00010BD41F21804C4F20204216800F534402F
:1008000041F008012160216801F00801019101997E
:100810004FF440610291122103910321059102A935
:10082000FFF706FE606840F480006060606800F4D6
:1008300080000190019806B010BD000040F20C004D
:1008400040F24C31C2F20000C2F2000100780A68A6
:10085000104408607047000080B542F20000C4F206
:100860000200016841F010010160032000F062F80D
:100870000F2000F005F800F02BF8002080BD0000EC
:10088000B0B540F20C02C2F2000240F20801127848
:10089000C2F200014FF47A730968B3FBF2F2044626
:1008A000B1FBF2F1084600F0B1FC0F2C4FF001054E
:1008B0000CD858B94FF0FF3021460022002500F037
:1008C00029F840F21000C2F2000004602846B0BDD2
:1008D00082B041F21800C4F202000168022241F025
:1008E00001010160016801F0010101910199416874
:1008F00041F080514160406800F0805000900098C5
:100900000420C4F20100016862F31A61016002B0C0
:100910007047000070B514460D46064601F03CFFD6
:100920002946224601F0E2FB0146304601F044FF31
:1009300070BD000080B501F051FF80BD2DE9F0438E
:1009400081B0002800F0898042F20008C4F2020859
:100950000446D8F800000D4600F0070088420CD28B
:10096000D8F8000020F007002843C8F80000D8F8A5
:10097000000000F00700A8426FD1206841F204098E
:100980008107C4F2020917D5410705D5D9F800102F
:1009900041F4E061C9F80010010705D5D9F800104D
:1009A00041F46051C9F80010D9F80010A26821F094
:1009B000F0011143C9F80010C00745D1D8F8000074
:1009C00000F00700A8420CD9D8F8000020F007007A
:1009D0002843C8F80000D8F8000000F00700A8423B
:1009E0003BD12068410707D5D9F80010E26821F40F
:1009F000E0611143C9F80010000708D5D9F80000DC
:100A0000216920F4605040EAC100C9F8000000F0FC
:100A100067F8D9F8001042F6B822C1F30311C0F606
:100A20000002515C40F2080220FA01F140F210008D
:100A3000C2F200000068C2F200021160FFF720FF5E
:100A4000002001B0BDE8F0836068022809D00128C9
:100A500029D159F8041C890307D4012001B0BDE84D
:100A6000F08359F8041C8901F7D5D9F8001021F05A
:100A700003010843C9F80000FFF7D8FD064641F21C
:100A8000883700BFD9F80000616800F00C00B0EBB7
:100A9000810F93D0FFF7CAFD801BB842F2D9032023
:100AA00001B0BDE8F08359F8041C8907D5D5DCE70F
:100AB00040F20800C2F200000068704780B5FFF7FE
:100AC000F7FF41F20401C4F20201096842F6C822AC
:100AD000C1F30221C0F60002515CC84080BD000095
:100AE00010B541F22C01C4F2020151F8283C03F088
:100AF0000C00082841F20020C0F27A0018BF10BD97
:100B0000C3F3834419A2125DDB0305D440F6001041
:100B1000C0F23D00504310BD0B680FF2600C03F0B3
:100B20000F0E0B681CF80EC0DB0303D45043B0FB60
:100B3000FCF013E00B680968C3F3031303F1010E23
:100B400042F20043C1F30321C0F2F40301FB003081
:100B5000A0FB0201AEFB0C23FFF768FBA4F10D0123
:100B6000B1FA81F14909C84010BD00BF0000040579
:100B70000607080900000000000D00000102030440
:100B800005060708090A0B0C0D0E0F102DE9F041A0
:100B900082B0002800F0A3810446007841F20006EC
:100BA000C007C4F2020644D0706800F00C000428AC
:100BB00005D1306880033CD5A068D0BB8FE1706858
:100BC00000F00C00082802D17068C003F1D4A568B9
:100BD0002DB1B5F5A02F0AD0B5F5803F0BD0306808
:100BE00020F480303060306820F4802006E03068E7
:100BF00040F480203060306840F480303060FFF78F
:100C000015FD002D054611D03068800311D4FFF783
:100C10000DFD401B6428F7D914E100BFFFF706FD66
:100C2000401B64284FF0030000F295803068800379
:100C3000F4D42078800719D5706810F00C0F07D015
:100C4000706800F00C00082827D17068C00324D415
:100C50003068800703D56069012840F04081306822
:100C6000A16920F0F80040EAC10030602078000758
:100C70003FD5E06948B36820C4F242200121C0F8A2
:100C80001814FFF7D3FC0546706A80072FD4FFF7CE
:100C9000CDFC401B0228F7D9D4E06069002840F25F
:100CA0006800C4F2422000F0A280012140F8681CD4
:100CB000FFF7BCFC054600BF30688007CFD4FFF7C4
:100CC000B5FC401B0228F7D9BCE06820C4F24220E2
:100CD0000021C0F81814FFF7A9FC0546706A8007C8
:100CE00007D5FFF7A3FC401B0228F7D9AAE001F0C3
:100CF00003FB2078400731D4E06A002800F0D78059
:100D00007168C90308D5716801F00C01082903D185
:100D1000F16AC90300F1E380022852D13068C000B3
:100D200006D5F06A616B00F0F000884240F0D78091
:100D30006827C4F2422700203860FFF777FC054699
:100D40003068000140F19680FFF770FC401B64287A
:100D50004FF00300F4D902B0BDE8F081F06910F063
:100D6000805808D1F06940F08050F061F06900F0DF
:100D700080500190019847F20007C4F200073868DC
:100D8000C00510D4386840F480703860FFF74EFC1E
:100D9000054600BF3868C00505D4FFF747FC401B77
:100DA0006428F7D94EE025691DB1052D32D0012DFB
:100DB00034D0306A20F001003062306A20F0040044
:100DC0002FE0F06A002120F48030F0626820C4F245
:100DD00042200160FFF72AFC054600BF3068000191
:100DE00065D5FFF723FC401B6428F7D92AE00021D2
:100DF00040F8681CFFF71AFC054600BF3068800702
:100E00007FF534AFFFF712FC401B02284FF00300C0
:100E1000F4D9A0E7306A40F004003062306A40F054
:100E200001003062FFF702FC002D054641F28837D1
:100E300014D000BF306A800713D4FFF7F7FB401BC4
:100E4000B842F7D9032002B0BDE8F081FFF7EEFB0E
:100E5000401BB8424FF003003FF67DAF306A800779
:100E6000F4D4B8F1000F7FF447AFF06920F0805060
:100E7000F06141E7F06AD4E90C2120F0F00008436A
:100E8000F062F06A20F470601043F0620120386074
:100E9000FFF7CCFB054600BF3068000107D4FFF721
:100EA000C5FB401B64284FF00300F5D953E7256AC2
:100EB0008DB1706800F00C00082814D1012D0ED0FF
:100EC0007068616A00F480328A4208D1A16A00F435
:100ED0007010884203D1002002B0BDE8F0810120EB
:100EE00002B0BDE8F0816827C4F24227002047F82D
:100EF000080CFFF79BFB022D05460BD130688001E3
:100F000013D5FFF793FB401B02284FF00300F5D9E0
:100F100021E700BF30688001DDD5FFF787FB401B6C
:100F200002284FF00300F5D915E7606AB0F5803F5D
:100F300009D1F16A6268E3681143F162F16A21F054
:100F40000F011943F1627168A26A21F47411104310
:100F500008437060012047F8080CFFF767FB044660
:100F600030688001B7D4FFF761FB001B02284FF007
:100F70000300F5D9EFE6000070B538B10446406AC9
:100F800030B10020206104F1140007E0012070BDA1
:100F90006068B0F5827F03D004F11C00002101607D
:100FA0000026A66294F8510020B9204684F85060CB
:100FB00000F038F8022084F8510094E8071001F49A
:100FC0008271036802F4044223F040030360236942
:100FD00011440CF40062114403F0020263691144ED
:100FE00003F00102A369E569114403F4007211449E
:100FF00005F03802256A114405F08002A56A114304
:1010000005F4005211430160042101EA13414160DB
:10101000C16921F40061C1610120666584F8510055
:10102000304670BD80B586B0016843F60000C4F25A
:10103000000081424FF00001CDE90411CDE9021119
:1010400001D006B080BD41F21801C4F202014A6825
:1010500000F5544042F480424A604A6802F48042FB
:101060000192019A0A6842F008020A60096801F0D8
:101070000801019101994FF420410291022103914D
:101080000321059102A9FFF7D3F906B080BD000046
:101090002DE9F04381B0044690F85000012803D1B7
:1010A000022001B0BDE8F0834FF001091D4616464D
:1010B0000F4684F85090FFF7B9FA94F851100129BF
:1010C0005DD18046002F4FF0010018BF002E00F0C8
:1010D0009580032084F85100002060652763A68670
:1010E000E686A063A087E087A168C4E91000B1F597
:1010F000004F08D12068016821F0400101600168BB
:1011000041F48041016020680168490603D4016808
:1011100041F0400101606168731EE268B1FA81F13B
:10112000B3FA83F349095B09B2F5006F41EA0301A1
:1011300027D139B1216B0988C160B81C2063E08ECA
:101140000138E086E08E002841D06E1C0AE000BF26
:10115000216B31F8022BC2602163E08E0138E086FA
:10116000E08EA0B3206881688907F1D4FFF75EFAAA
:10117000002EF5D0A0EB0800A842F1D325E0022014
:101180003CE039B139780173206B01302063E08E87
:101190000138E086E08ED0B16E1C0AE0216B097840
:1011A0000173206B01302063E08E0138E086E08E11
:1011B00068B1206881688907F0D4FFF737FA002EFC
:1011C000F5D0A0EB0800A842F1D3032016E020469A
:1011D0002946424601F01EF900281CBF2020606508
:1011E000A06838B9002000902068C168009180682C
:1011F00000900098606D002818BF0120002184F83D
:10120000519084F8501001B0BDE8F08380B501F032
:1012100063FA80BDFEE7000081B041F21C00C4F219
:101220000200016841F400110160006800F4001040
:101230000090009801B0704781B041F21C01C4F2E7
:1012400002010A6802430A60096808400090009899
:1012500001B0704781B041F21C00C4F20200016885
:1012600041F480110160006800F480100090009843
:1012700001B0704781B041F21801C4F202010A685E
:1012800002430A60096808400090009801B0704766
:1012900081B041F21800C4F20200016841F0080177
:1012A0000160006800F008000090009801B07047ED
:1012B00081B041F21801C4F202010A6802430A60D7
:1012C000096808400090009801B0704781B041F271
:1012D0001801C4F202010A6802430A600968084062
:1012E0000090009801B070470420C4F2010001682A
:1012F00041F0E06141F00201016070472DE9F047E3
:10130000B1F801700C4697FAA7F1B1FA81F537FAF6
:1013100005F133D0804640F201194FF0011A03E085
:10132000013537FA05F029D027FA05F0C007F7D0C4
:10133000B5F108000AFA00F040F08066606838BF36
:1013400009FA05F6082804D122694046314600F022
:1013500065F862684046314600F038F8606840F051
:1013600008000928DCD1A2684046314600F064F844
:10137000E2684046314600F03DF8D1E70020BDE884
:10138000F0870000C1F30F214161704740F614401F
:10139000C4F20100012101607047000040F61441D1
:1013A000C0F30F20C4F201010860704740F61041FD
:1013B000C0F30F20C4F201010860704740F61041ED
:1013C000C0F30F20C4F201010860704780B54FEAF6
:1013D000116E91FAA1F1B1FA81F15EF800C08900B5
:1013E0000F238B402CEA030302FA01F119434EF854
:1013F000001080BD80B54FEA116E91FAA1F1B1FAEB
:1014000081F15EF800C0890004238B402CEA0303BD
:1014100002FA01F119434EF8001080BDC3684FEA8B
:10142000112C23EA11219CFAACF3B3FA83F39A400E
:101430001143C1607047000080B54FEA116E91FA08
:10144000A1F1B1FA81F15EF800C0890003238B405D
:101450002CEA030302FA01F119434EF8001080BD93
:10146000026822F48062114301607047F0B54DF6C6
:10147000836CC4F21B3CA1FB0CCE4FEA9E4C4FF494
:1014800096740CFB04FC44F6D354C1F26204ACFB2A
:10149000044C446848F2A06724F03F0444EA9E44A8
:1014A0004460046AC0F201077E1C4FEA9C1524F0D8
:1014B0003F04B24238BF4FEA9E456E1C2643BA42F3
:1014C00006620DD91927002B08BF03277A43B1FB09
:1014D000F2F10A0508BF0121194341F4004107E078
:1014E0005200B1FBF2F140F6FC72114208BF042138
:1014F000C2694CF6FF739A431143C161F0BD00000D
:10150000016821F0010101607047000045F20040D0
:10151000C4F20000016821F0400101607047000042
:1015200045F20C40C4F20000016821F001010160A5
:1015300070470000016841F0010101607047000040
:1015400045F20040C4F20000016821F08001016012
:1015500070470000B0B584B00D460446FFF7D0FFD9
:10156000684600F053F80299D5E901232046FFF7B9
:101570007DFFE9686A69204600F014F82968204672
:1015800000F00AF82046FFF7D5FF29692046FFF74B
:1015900067FF002004B0B0BD026822F01A021143B8
:1015A00001607047D0F808C048F2FF332CEA03030B
:1015B000114319438160704745F20C40C4F20000AA
:1015C000016821F0FE0101607047000041F2040053
:1015D000C4F20200006800F0F000704741F204001D
:1015E000C4F20200006800F4E060704741F20400B9
:1015F000C4F20200006800F46050704741F2040039
:10160000C4F20200006800F00C00704710B50446F8
:1016100000F0B2FE206000F085FE606000F090FEF9
:101620006168A060084600F099FEE06010BD00000F
:1016300041F22C00C4F20200006800F0F000704794
:1016400041F22C00C4F20200006800F470607047A0
:1016500041F20400C4F202000168806A01F48031A2
:1016600000F4803041EA00107047000041F20400AD
:10167000C4F20200006800F47010704741F22C00C0
:10168000C4F20200006800F00F00704780B58A685D
:101690008446087BD1E900E322F47C42104323F422
:1016A000784210432EF47042CB891043D1E90421D3
:1016B0006FF35F3322F4404210431843014300208C
:1016C000CCF8441080BD00006FF00101016170474B
:1016D000016821F08001016070470000016821F07D
:1016E0000101016070470000816821F08001816084
:1016F00070470000016841F001010160704700007F
:1017000041F20C00C4F20000016841F001010160E7
:1017100070470000416941F00101416170470000DC
:10172000012906D0042906D010290CBF0221062168
:1017300002E0002100E0012143F2CC62C0F6000289
:10174000525C43F2D363C0F600031044595C8269D3
:1017500003238B409A43012303FA01F11143816172
:1017600070470000012906D0042906D010290CBFBB
:101770000221062102E0002100E0012143F2CC62B7
:10178000C0F60002525C43F2D363C0F6000310447B
:10179000595C8269F02303FA01F122EA01018161B7
:1017A00070470000012906D0042906D010290CBF7B
:1017B0000221062102E0002100E0012104A3595C7E
:1017C000026A0A2303FA01F122EA01010162704769
:1017D00000020406080A0C00012906D0042906D0DC
:1017E00010290CBF0221062102E0002100E00121A6
:1017F00043F2CC62C0F60002525C43F2D363C0F6FF
:1018000000031044595C82690C2303FA01F122EAB7
:10181000010181617047000070B540F2FF720D4612
:1018200004460068C4F2000240F6000142F6004699
:101830009442C4F20001C4F2010606DD8C420DD0D0
:10184000B4420BD040F6004304E0B4F1804F05D021
:1018500040F20043C4F200039C4203D16B6820F0C5
:1018600070001843944206DD8C420DD0B4420BD078
:1018700040F6004104E0B4F1804F05D040F2004151
:10188000C4F200018C4203D1E96820F4407008439F
:101890002060A968204600F08DF82988204600F0D5
:1018A00095F8B44202D1286900F092F82046FFF77B
:1018B00031FF002070BD0000006900F0010070479A
:1018C000012806D0042806D010280CBF02200620CC
:1018D00002E0002000E0012043F2CC61C0F60001EC
:1018E00043F2DA62095CC0F6000242F61843105C6B
:1018F000C4F201034FF0040CCA580CFA00F022EABB
:101900000000C85070470000012806D0042806D007
:1019100010280CBF0220062002E0002000E0012079
:1019200043F2CC61C0F6000143F2DA62095CC0F612
:10193000000242F61843105CC4F201034FF0080C99
:10194000CA580CFA00F01043C850704780B50346DF
:10195000FF294FF0010009DC012914D010291DD105
:101960001846114600F016FC002080BDB1F5807FBE
:101970000FD0B1F5805F18BF80BD1846114600F04A
:101980008DFC002080BD1846114600F0C5FB0020EC
:1019900080BD1846114600F03FFC002080BD0000CD
:1019A0004163704781637047C1637047016470474A
:1019B000C1627047C16270470021416270470000F8
:1019C0008168012262F30201816070478162704781
:1019D00042F63041C4F2010108607047416821F0CD
:1019E000700141607047000045F21000C4F2000031
:1019F000016821F490410160416821F02A014160B1
:101A00007047000045F20C00C4F20000016841F488
:101A10000051016070470000B0B584B00D46044627
:101A200000F052F810B1012004B0B0BDE06841F2FE
:101A30000C6120EA010CD5E90121D5E9033042EA25
:101A40000C021A431043E060204600F067F8696911
:101A5000204600F05DF86846FFF7D8FD44F6FF30F9
:101A6000C4F2000084424FF0000113DD44F6004050
:101A7000C4F2000084421BD045F20000C4F2000012
:101A8000844215D043F60000C4F20100844208BF2E
:101A900003990EE044F20040C4F20000844207D0F3
:101AA00044F60000C4F20000844208BF029900E03E
:101AB00002990029B7D02A68002AB4D0204600F045
:101AC00007F8002004B0B0BDC068C0F340307047D4
:101AD000192359439200B1FBF2F148F21F5CC5F2A1
:101AE000EB1CA1FB0C3252096FF0630302FB0311E4
:101AF000322303EB0111A1FB0C13F02101EA531176
:101B000001EB0211C3F3431289B2114481607047A3
:101B1000426922F44072114341617047026922F424
:101B200040521143016170472DE9F04F85B04FF0ED
:101B300000092020CDF81090CDE90299CDE9009957
:101B4000FFF798FB1020FFF795FB04200427FFF711
:101B500091FB0820FFF78EFB40F6000BC4F2010B4F
:101B60000BF58064204640F2077140F2077AFFF7D8
:101B700009FC40F29C08C0F29C4858464146FFF7D9
:101B800001FC40F60F700BF500656E46CDE90007CD
:101B900028463146FFF7B2FB40F20440CDE900078A
:101BA00058463146FFF7AAFBCDF800A001274FF0B9
:101BB000020A204631460197CDE902A9FFF79EFBB4
:101BC00058463146CDE90087CDE902A9FFF796FBDB
:101BD000A8F198100090092001900320CDE9020996
:101BE00028463146FFF78AFBA8F1941000900420A4
:101BF000019028463146FFF781FB0420C4F2010022
:101C0000016841F0E06141F0100121F02001016024
:101C100005B0BDE8F08F0000B0B58CB000250B9585
:101C2000CDE90955CDE90755CDE90555CDE9035570
:101C3000CDE90155FFF72CFB0320C0F203400190D2
:101C400009200290032045F2004403900420C4F2CE
:101C50000004049004F5384001A9FFF74FFBFFF79B
:101C600043FBFFF7D9FAFFF75BFCFFF74FFCFFF7E9
:101C700067FC41F68020C0F20600CDE907054FF46D
:101C800080600A904FF480400B9006A9204606958C
:101C90000995FFF75FFCFFF78FFC0CB0B0BD0000AB
:101CA00080B540F2A02045F60001C2F20000C4F267
:101CB000000141F6802200234FF4804CC0F206025E
:101CC00080E80E00C0E9033CC0E90533C0E90733F2
:101CD000FEF7B2FC002818BFFEF790FB80BD0000A5
:101CE00080B540F2F42043F60001C2F20000C4F2D5
:101CF00000014FF48272002380E80E0000F114010D
:101D00004FF4007C4FF0080E81E808500A21C0E92A
:101D10000333C0E90833C0E90A31FFF72DF9002881
:101D200018BFFEF76BFB80BD70B598B000264FF46E
:101D30000060CDE91666CDE91466CDE91266CDE9FD
:101D40001066CDE90E66CDE90C66CDE90A66CDE9EF
:101D50000866CDE90666CDE90466CDE90266CDE9FF
:101D60000066FFF7A5FA42F600444FF6FF70C4F292
:101D70000104CDE9150613A92046ADF84C60149670
:101D80001796FFF749FD2046FFF7A2FC0120FFF759
:101D9000BBFD60200BADCDE90B06204601212A4694
:101DA000CDE90D66CDE90F66CDE91166FFF7CEFDF1
:101DB0000120FFF785FD1020FFF7A6FD204610212A
:101DC0002A46FFF7C3FD1020FFF77AFD2046FFF7F4
:101DD00005FE2046FFF788FC4FF40050CDE90906C8
:101DE00005A92046ADF82260CDE9056607968DF875
:101DF0002060FFF74BFC0420FFF75AFA0320C0F2E3
:101E000003400090092001900220CDE90206A4F5CC
:101E100010506946FFF772FA18B070BD10B58AB05D
:101E200000240120CDE90844CDE90644CDE904446D
:101E3000CDE90244CDE90044FFF7FEF90420FFF7A5
:101E400037FA40F2033000900820019040F600007D
:101E5000C4F2010069460494FFF750FA4FF0804045
:101E6000FFF7AEFD4FF080400121FFF759FC4FF026
:101E700080400121FFF7B0FC4FF080400121FFF7C7
:101E800071FC4FF080400121FFF78CFC4FF0804047
:101E90001021FFF745FC4FF080401021FFF79CFC1C
:101EA0004FF080401021FFF75DFC4FF08040102183
:101EB000FFF778FC4FF6FF70CDE9070405A94FF056
:101EC0008040ADF814400694FFF7A6FC4FF0804028
:101ED000FFF7FEFB4FF08040FFF780FD4FF08040A2
:101EE000FFF702FC0AB010BDB0B58AB00025022091
:101EF000CDE90855CDE90655CDE90455CDE90255A2
:101F0000CDE90055FFF798F90420FFF7D1F94CF21D
:101F1000C00040F2004400900820C4F20004019088
:101F200004F5823069460495FFF7E8F92046FFF78B
:101F300047FD20460121FFF7F3FB20460121FFF773
:101F40004BFC20460121FFF70DFC20460121FFF745
:101F500029FC20461021FFF7E3FB20461021FFF764
:101F60003BFC20461021FFF7FDFB20461021FFF728
:101F700019FC4FF6FF70CDE9070505A92046ADF81D
:101F800014500695FFF748FC2046FFF7A1FB2046BA
:101F9000FFF724FD2046FFF7A7FB0AB0B0BD000005
:101FA000B0B58AB000250420CDE90855CDE9065525
:101FB000CDE90455CDE90255CDE900550424FFF7DC
:101FC0003BF90820FFF774F94CF2C000CDE900049A
:101FD00040F60004C4F2000404F582306946FFF7BD
:101FE0008DF92046FFF7ECFC20460121FFF798FB16
:101FF00020460121FFF7F0FB20460121FFF7B2FB4D
:1020000020460121FFF7CEFB20461021FFF788FB79
:1020100020461021FFF7E0FB20461021FFF7A2FB2E
:1020200020461021FFF7BEFB4FF6FF70CDE90705F4
:1020300005A92046ADF814500695FFF7EDFB2046A4
:10204000FFF746FB2046FFF7C9FC2046FFF74CFB95
:102050000AB0B0BD70B58CB00026CDE90A66CDE9F6
:102060000866CDE90666CDE90466CDE90266CDE9EC
:102070000066FFF7EFF81020FFF728F92020FFF7A0
:1020800025F91020C0F210400090092045F200040C
:1020900001900320C4F200046D46CDE9020604F568
:1020A00040402946FFF72AF940F2044000900420FE
:1020B000019004F544402946FFF720F94FF4E13040
:1020C000CDE905060C20CDE9090605A92046CDE994
:1020D0000766FFF7A1FCFFF787FCFFF793FC0CB046
:1020E00070BD0000FEE70000FEE7000000F0070002
:1020F00080F00703042B28BF04234FF0FF3C033874
:102100000CFA03F338BF0020994381400CFA00F029
:1021100022EA0000084370472DE9F0410446006AB6
:1021200020F001002062256A6368D4F818C00A69AB
:1021300025F0030522F00102D1E900E02A4342F62E
:102140000045C4F20105AC4242EA000514D101F198
:10215000140825F00C0098E860016FF004078A6805
:1021600007EA8505284340EA820523F4407026F4F7
:102170000072104340EA48032CF0730040EA0E005E
:102180006360A061C9682046FFF70AFC2562BDE8CC
:10219000F08100002DE9F0410446006A6FF010065E
:1021A00020F010002062256A6368D4F818C00A691C
:1021B00025F0300506EA0212D1E900E02A4342F692
:1021C0000045C4F20105AC4242EA001516D101F106
:1021D000140825F0C00098E860016FF040078A6895
:1021E00007EA8515284340EA821523F44060B200CF
:1021F00040F603039A43104340EAC8032CF4E64038
:1022000040EA0E206360A061C9682046FFF7CAFB60
:102210002562BDE8F08100002DE9F0410446006A26
:1022200040F2FF1620F480702062256A6368D4F8BB
:102230001CC00A6925F440751202B243D1E900E0DE
:102240002A4342F60045C4F20105AC4242EA0025A9
:1022500016D101F1140825F4406098E8600140F2BD
:10226000FF77AD028A68BD43284340EA822523F404
:102270004050320142F20F039A43104340EA4813A0
:102280002CF0730040EA0E006360E061C9682046EC
:10229000FFF78AFB2562BDE8F081000070B50446B7
:1022A000006A42F6004620F480502062206A62688C
:1022B000E369D1E900EC0D69C4F20106B44204D12E
:1022C0008E6922F4804242EA861223F4E6432D030B
:1022D00041F6FF7643EA0E2320F44050B543626096
:1022E000E3612843C96840EA0C352046FFF75EFBEE
:1022F000256270BD7047000081B040F20800C2F254
:102300000000006844F6D351C1F26201A0FB010154
:10231000480A009000BF0098411E00280091F9D1A2
:1023200001B0704710B50446FFF750F942F6B821E6
:10233000C0F30310C0F60001085C24FA00F010BDE1
:1023400010B50446FFF74AF942F6C821000AC0F664
:102350000001085C24FA00F010BD000010B504462E
:10236000FFF744F942F6C821C00AC0F60001085C34
:1023700024FA00F010BD000080B5FFF73FF90828EF
:102380001ABF41F20020C0F27A0000F017F880BDB9
:1023900010B5FFF755F9000A43F60951484342F2D8
:1023A0000041C0F2F40101EB4024FFF741F90121A3
:1023B00001EB1010B4FBF0F010BD000010B5FFF7FA
:1023C00047F9B0F5803F06D0B0F5881F0DD1FFF773
:1023D000DFFF044603E041F20024C0F27A04FFF775
:1023E0004DF90130B4FBF0F403E040F60014C0F204
:1023F0003D04FFF73BF9B0F5501F03D10D206043BA
:10240000400810BDFFF732F9C0F38340023060434B
:1024100010BD000010B513460A468021044600F0A6
:102420000BF800280FBF0020606D40F020006065B1
:1024300018BF032010BD00002DE9F04381B01E46F7
:1024400090460D468146FEF7F1F8301A00EB08077A
:10245000FEF7ECF840F20801C2F200010968C1F38E
:10246000CB3179430091D9F8001089682940A942FD
:1024700019D1064608F1010406E000BFD9F80000B2
:1024800080682840A8420ED1002CF7D0FEF7CEF885
:10249000801BB8420BD200980099002808BF07465D
:1024A000481E0090EAE7002001B0BDE8F083D9E9BA
:1024B00000014268B1F5827F22F0E00242600BD158
:1024C000D9F80810B1F5004F02D0B1F5806F03D1F3
:1024D000016821F040010160D9F82810B1F5005FD2
:1024E00007D1016821F400510160016841F40051F5
:1024F0000160012089F85100002089F85000032074
:1025000001B0BDE8F083000080B5002000F030F895
:1025100080BD0000832898BF1F2900D9704710B5DF
:1025200040F28C03C2F200031B7840F2900E002BA5
:1025300001F007034FEAD10101EB4111B2FA82FC2D
:1025400000EB8104C2F2000E18BF4FEA5C124FF09C
:10255000010C1EF804100CFA03F321EA0300012A0F
:1025600008BF41EA03000EF80400BDE810407047C0
:1025700080B540F28C01C2F200010978002918BF31
:1025800001210A1A40F29000C2F200004FF40471D7
:1025900018BFFF22FDF7C2FE80BD000040F2880296
:1025A000C2F20002108040F28A00C2F200000180F4
:1025B000704700002DE9F04F83B040F2880A0D46C5
:1025C000C2F2000ABAF800102B78194483290AD8FD
:1025D00040F28A0BC2F2000B1646BBF80020697865
:1025E00011441F2903D9002003B0BDE8F08F0190EA
:1025F000687870B30199B6FA86F720390024029101
:1026000004E000BF68780134844222D2297800298E
:10261000F8D0029A696800FB02404FF0000931F8D7
:10262000108000BFBAF8000008FA09F1BBF80030CA
:102630000904484403EB0401324680B289B258BF12
:102640007A09FFF767FF287809F101098145E9D385
:10265000D8E72878BAF800100844AAF800000198D2
:1026600003B0BDE8F08F000070B503787BB114466D
:102670000D46461CD8B229462246FFF79BFF16F8A6
:10268000011C884205D116F8013B002BF2D1002035
:1026900070BD084670BD0000B0B540F29000C2F2B7
:1026A0000000041F002500BFA5F15000C0B200F0DB
:1026B00093F9002000F090F9102000F08DF92046E9
:1026C000842100F093F90135042D04F18404EBD149
:1026D000B0BD000070470000B0B501380024B4EB75
:1026E000106F1CBF0120B0BD4EF21005CEF20005E8
:1026F00068604FF0FF300F2100F05EF80720AC60FB
:1027000028602046B0BD000080B5FEF797F880BD78
:1027100070B594B006AC20463821FDF707FE0120C5
:10272000002506900B904FF4E0104FF48031022604
:10273000CDE9100520460595CDE90355CDE90155B4
:102740000995CDE90751CDE90E61FEF71FFAA8B949
:102750000F20CDE901064FF48060CDE9040501A802
:1027600002210395FEF7EAF8002801BF7020C4F2A9
:1027700042200121016004BF14B070BDFDF73EFE90
:1027800070470000FEE700004EF20410CEF2000099
:102790004FF48001016070474EF60C50CEF20000FD
:1027A0000068C0F3022070474EF23640CEF20000BF
:1027B00000210170704700004EF6145300F00F0224
:1027C000CEF2000309011A4400F16043B0F1FF3F6B
:1027D000C8BF03F564421170704700004EF60C51FB
:1027E000CEF200010A684FF6FF031A4060F30A2296
:1027F00042F0806040F0FD7008607047B0B504465C
:10280000002001210025FFF7C9FE40F2780043F2C5
:102810003101C2F20000C3F2310101602146012200
:102820000571FFF721FFFFF737FFB0BD10B541F28B
:102830000044C4F2000401462046FFF7B9F82046E0
:10284000FEF742FF2046FFF7B7F82046FEF752FF9B
:102850002046FFF731F80028FAD02046FEF73EFF69
:1028600010BD0000FDF7F8FFFFF752FFFFF75CF91E
:10287000FFF7D4FAFFF738FBFFF732FAFFF7CCF98E
:10288000FFF752FAFFF78CFBFFF7E4FBFFF708FABC
:1028900000F00CF900F02AF840F20004C2F2000443
:1028A0002046FFF7ABFF4FF47A70FDF7ADFDF7E779
:1028B00080B50A46014640F2F420C2F200004FF013
:1028C000FF33FEF7E5FB80BD80B582B08DF80700D1
:1028D00040F2F420C2F200000DF10701012241F69E
:1028E000FF73FEF7D5FB02B080BD000010B5FEF708
:1028F0004DFD41F28830FFF799FF40F20110FEF7DD
:1029000055FD41F28830FFF791FFAE2000F064F8EA
:10291000202000F061F80020002400F05DF8B020D5
:1029200000F05AF8C82000F057F8002000F054F8E2
:10293000102000F051F8402000F04EF8812000F007
:102940004BF8FF2000F048F8A12000F045F8A62041
:1029500000F042F8A82000F03FF81F2000F03CF8FB
:10296000A42000F039F8D32000F036F8002000F061
:1029700033F8D52000F030F8F02000F02DF8D92001
:1029800000F02AF8222000F027F8DA2000F024F8DE
:10299000122000F021F8DB2000F01EF8022000F0E9
:1029A0001BF8AF2000F018F841F28830FFF73EFF27
:1029B000FFF7AAFDFFF770FE40F28800C2F20000A8
:1029C000048040F28A00C2F20000048040F2044019
:1029D000FEF7ECFC10BD000010B5044640F20220EA
:1029E000FEF7DCFC2046FFF76FFF10BDB0B50546D3
:1029F00040F204400C46FEF7D1FC40F20220FEF704
:102A0000DDFCE1B22846FFF753FF40F20440FEF739
:102A1000D5FCB0BD10B586B0002420200594CDE9CA
:102A20000344CDE90144FEF707FC4720ADF804005C
:102A3000FF200294CDE9030441F20044C4F20004F3
:102A400001A92046FEF7E8FE2046FEF741FE06B04B
:102A500010BD000010B586B0002410200594CDE90B
:102A60000344CDE90144FEF7E7FB48F69F40ADF88B
:102A700004004FF6FF700294CDE90304059441F27F
:102A80000004C4F2000401A92046FEF7C5FE20465A
:102A9000FEF71EFE2046FEF717FEFEF731FEFFF79B
:102AA00083FEFFF771FE06B010BD000080B5FFF792
:102AB000B1FFFFF7CFFF80BD000000000000000065
:102AC00001020304060708090000000001020304D4
:102AD00000000000000000000000000000000000F6
:102AE00000000000000000000000000000000000E6
:102AF00000000000000000000000000000000000D6
:102B000000000000E003E003E003E003E003E00373
:102B1000E003E003C003C003C001C001C001C00165
:102B2000C001000000000000E003E003E00300003B
:102B300000000000000000003C1E3C1E3C1E3C1E2D
:102B40003C1E3C1E3C1E0000000000000000000077
:102B50000000000000000000000000000000000075
:102B6000000000000000000000000000CE01CE03C5
:102B7000DE039E039C039C07FF3FFF7F3807380F4F
:102B8000780F780F780EFFFFFFFFF01EF01CE01C9F
:102B9000E03CE03DE03900000000000000000000E3
:102BA000FC03FE0FEE1FE01EE01EE01EE01EE01F15
:102BB000E00FE007F003FC01FE01FE01FE01FE0153
:102BC000FE01FE01FE3DFC3FF00FE001E0010000D0
:102BD00000000000033E07F78FE78EE79EE3BCE3AB
:102BE000B8E7F8E7F0F7E03FC001FF03FF07F3079E
:102BF000F30FF31EF33CF338F3787FF03FE000006F
:102C00000000000000000000E007F80F780F781FB8
:102C1000781F781F780FF00FE00F801FC37FC3FB72
:102C2000E7F3F7F1F7F0FFF07FF03EF87F7CFF3F2E
:102C3000EF1F00000000000000000000E003E003C0
:102C4000E003C003C003C001C000C00000000000DA
:102C50000000000000000000000000000000000074
:102C60000000000000000000000000000000000064
:102C70003F007C00F001E001C003C007800780072F
:102C8000800F000F000F000F000F000F000F800FCC
:102C900080078007C007C003E001F0017C003F000F
:102CA0000F000000007E001FC007C003E001F0011C
:102CB000F000F000F80078007800780078007800E4
:102CC0007800F800F000F000F001E001C003C00758
:102CD000001F007E00780000C001E003180C180CF3
:102CE000180C180CE003C0010000000000000000F8
:102CF00000000000000000000000000000000000D4
:102D000000000000000000000000000000000000C3
:102D10000000000000000000C001C001C001C001AF
:102D2000C001C001C001FFFFFFFFC001C001C00121
:102D3000C001C001C0010000000000000000000050
:102D40000000000000000000000000000000000083
:102D50000000000000000000000000000000000073
:102D60000000E003E003E003E003E001E001E00134
:102D7000C00180030000000000000000000000000F
:102D800000000000000000000000FE3FFE3F0000C9
:102D90000000000000000000000000000000000033
:102DA0000000000000000000000000000000000023
:102DB0000000000000000000000000000000000013
:102DC00000000000000000000000E003E003E0035A
:102DD000E003000000000000000000000F000F00F2
:102DE0001E001E003C003C0078007800F000F0005F
:102DF000E001E001C003C00380078007000F000F5F
:102E0000001E001E003C003C0078007800F000002E
:102E1000F007F80F7C1F3E3E1E3C1F7C1F7C0F7886
:102E20000F780F780F780F780F780F781F7C1F7C42
:102E30001E3C3E3E7C1FF80FF00700000000000023
:102E400000000000F000F007F03FF03FF001F0015B
:102E5000F001F001F001F001F001F001F001F001EA
:102E6000F001F001F001F001F001FF3FFF3F000031
:102E70000000000000000000E00FF83F7C3C3C0038
:102E80003E003E003E003C003C007C00F800F001AB
:102E9000E003C0078007000F001E003E003CFE3F1D
:102EA000FE3F00000000000000000000F00FF81FCF
:102EB0007C1C3E003E003E003C003C00F800F00F51
:102EC000F80F7C003E001E001E001E001E003E008B
:102ED0007C1CF81FE01F0000000000000000000044
:102EE0007800F800F800F801F803F807F807780F01
:102EF000781E781E783C78787878FFFFFFFF78009E
:102F00007800780078007800780000000000000069
:102F100000000000FC1FFC1FFC1F001E001E001E06
:102F2000001E001EE01FF81FFC007C003E003E005B
:102F30001E003E003E003C007C1CF81FE01F00000D
:102F40000000000000000000FC01FE078E0F001FC3
:102F5000001E003E003C003CF83DFC3F3E7F1F7ED3
:102F60000F3C0F3C0F3C0F3C0F3E1F1E3E1FFC0F43
:102F7000F00300000000000000000000FF3FFF3FE2
:102F8000FF3F0F001E001E003C0038007800F000DC
:102F9000F000E001E001C003C0038007800F800F54
:102FA000000F001F001F00000000000000000000D4
:102FB000F807FC0F3E1F1E1E1E3E1E3E1E1E3C1F1F
:102FC000F80FF007F80FFC1E3E3E1F3C1F7C0F7CE5
:102FD0000F7C1F3C3E3FFC1FF0070000000000007C
:102FE00000000000F007F80F7C1E3E3C1E3C1F7CDA
:102FF0001F7C1F7C1F7C1F3C3F3EFF1FEF071F00F5
:103000001E001E003E003C00F838F03FE01F0000AC
:1030100000000000000000000000000000000000B0
:1030200000000000E003E003E003E0030000000014
:1030300000000000000000000000E003E003E003E7
:10304000E00300000000000000000000000000009D
:103050000000000000000000E003E003E003E003E4
:103060000000000000000000000000000000E0037D
:10307000E003E003E003E001E001E001C0038003BE
:1030800000000000000000000000000003000F002E
:103090003F00FC00F003C00F003F00FE003FC00FE8
:1030A000F003FC003F000F000300000000000000E0
:1030B0000000000000000000000000000000000010
:1030C0000000000000000000FFFFFFFF0000000004
:1030D0000000FFFFFFFF00000000000000000000F4
:1030E00000000000000000000000000000000000E0
:1030F0000000000000E000F8007E801FE007F801FB
:103100007E001F007E00F801E007801F007E00F8AF
:1031100000E000000000000000000000F01FFC3F85
:103120003E381F381F381E001E003C007800F0009B
:10313000E001C003C003C007C0070000000000009A
:10314000C007C007C007000000000000000000002A
:10315000F803FE0F1E1F0F3E7F3CFF78EF79C77309
:10316000C7F38FF38FF38FF39FF39FF3FF73FF7B0F
:10317000F779003C1C1FFC0FF80300000000000062
:1031800000000000000000000000E003E003F00782
:10319000F007F007780F780F7C0E3C1E3C1E3E3C7B
:1031A000FE3FFF3F1F780F780FF007F007F0000099
:1031B0000000000000000000000000000000F83FD8
:1031C000FC3F3E3C1E3C1E3C1E3C3E3C7C3CF03FDB
:1031D000F83F7E3C1F3C1F3C0F3C0F3C1F3CFE3F1A
:1031E000F83F0000000000000000000000000000A8
:1031F0000000FF01FF07871F003E003C007C0078B5
:103200000078007800780078007C007C003E003F69
:10321000831FFF07FF010000000000000000000006
:10322000000000000000F07FFC7F7E781F781F7890
:103230000F780F780F780F780F780F780F780F7856
:103240001F781E787E78F87FE07F00000000000085
:1032500000000000000000000000FF3FFF3F003EB4
:10326000003E003E003E003E003EFE3FFE3F003E70
:10327000003E003E003E003E003EFF3FFF3F00009C
:103280000000000000000000000000000000FF1F20
:10329000FF1F001E001E001E001E001E001EFF1F3E
:1032A000FF1F001E001E001E001E001E001E001E2E
:1032B000001E0000000000000000000000000000F0
:1032C0000000FE03FF0F871F003E007C007C00789B
:1032D00000F800F87FF87FF80F780F7C0F7C0F3E26
:1032E0008F1FFF0FFE030000000000000000000021
:1032F0000000000000001F7C1F7C1F7C1F7C1F7CC7
:103300001F7C1F7C1F7CFF7FFF7F1F7C1F7C1F7C1F
:103310001F7C1F7C1F7C1F7C1F7C000000000000A6
:1033200000000000000000000000FF3FFF3FE0033E
:10333000E003E003E003E003E003E003E003E00375
:10334000E003E003E003E003E003FF3FFF3F000092
:103350000000000000000000000000000000FC1F52
:10336000FC1F7C007C007C007C007C007C007C00DE
:103370007C007C007C007C0078007800F838F03F0E
:10338000C03F00000000000000000000000000003E
:1033900000001F3C1E3C3C3C783CF03CE03DE03FE4
:1033A000C03F803FC03FE03FF03DF03C783C7C3C7C
:1033B0003E3C1F3C0F3C00000000000000000000ED
:1033C000000000000000003E003E003E003E003EC7
:1033D000003E003E003E003E003E003E003E003EFD
:1033E000003E003E003EFF3FFF3F000000000000A7
:1033F000000000000000000000001FF81FFC1FFC80
:103400003FFE3FFE3FFE7FFF77FF77FFF7F7E7F7CF
:10341000E7F3E7F3C7F307F007F007F007F0000062
:1034200000000000000000000000000000000F7C11
:103430000F7C0F7E0F7F0F7F8F7F8F7FCF7FEF7B84
:10344000EF79FF79FF78FF787F783F783F781F78B2
:103450001F780000000000000000000000000000D5
:103460000000F007FC1F3E3E1F7C0F780F780FF81E
:103470000FF80FF80FF80FF80FF80F780F781F7C80
:103480003E3EFC1FF00700000000000000000000AE
:10349000000000000000FC3FFF3F1F3E0F3E0F3EBC
:1034A0000F3E0F3E1F3E3F3EFC3FF03F003E003EC2
:1034B000003E003E003E003E003E000000000000D6
:1034C00000000000000000000000F007FC1F3E3E6E
:1034D0001F7C0F780F780FF80FF80FF80FF80FF820
:1034E0000FF80F780F781F7C3E3EFC1FF8077C001A
:1034F0003F000F0003000000000000000000F03F4C
:10350000FC3F7E3C3E3C1E3C1E3C3E3C3C3CFC3C6E
:10351000F03FE03FF03DF83C7C3C3E3C1E3C1F3C15
:103520000F3C000000000000000000000000000050
:103530000000FC07FE1F0E3E003C003C003C003E2D
:10354000C01FF80FFE037F001F000F000F001F2099
:103550003E3CFC3FF01F00000000000000000000A7
:10356000000000000000FFFFFFFFE003E003E003B6
:10357000E003E003E003E003E003E003E003E00333
:10358000E003E003E003E003E003000000000000CC
:10359000000000000000000000000F7C0F7C0F7C8A
:1035A0000F7C0F7C0F7C0F7C0F7C0F7C0F7C0F7CC3
:1035B0000F7C0F7C1E3C1E3C3E3EFC1FF0070000B3
:1035C000000000000000000000000000000007F004
:1035D00007F007F80F780F7C1E3C1E3C1E3E3C1E79
:1035E0003C1F781F780FF80FF007F007F007E00393
:1035F000E0030000000000000000000000000000E8
:10360000000003E003F003F007F0E7F3E7F3E7F36C
:10361000E773F77BF77FFF7F7F7F7F7F7E7F7E3F34
:103620003E3E3E3E3E3E0000000000000000000026
:1036300000000000000007F80F7C1E3E3E3E3C1FCD
:10364000F80FF007E007E003E003F007F80F7C0F46
:103650007C1E3E3C1F780F780FF000000000000039
:103660000000000000000000000007F807780F7C51
:103670001E3C1E3E3C1F780FF80FF007E003E003EE
:10368000E003E003E003E003E003E003E003000005
:103690000000000000000000000000000000FF7FAC
:1036A000FF7F0F001F003E007C00F800F000E001EB
:1036B000E003C007800F000F001E003E007CFF7F6C
:1036C000FF7F00000000000000000000000000007C
:1036D00004040400000800000008000008000000C6
:1036E0000800000008370008000000201800000053
:1036F0008C0100082037000818000020380900005D
:10370000A801000800000000101A0000D02A0008DC
:103710000024F40001000000100000000000000080
:04000005080001519D
:00000001FF
