:020000040800F2
:10000000E0140020FD0100087D250008051000080F
:1000100079250008390700081D2C000800000000A1
:10002000000000000000000000000000ED2A0008B1
:10003000C907000800000000B9270008212B0008AC
:10004000170200081702000817020008170200082C
:10005000170200081702000817020008170200081C
:10006000B508000817020008170200081702000868
:10007000170200081702000817020008A907000865
:1000800017020008170200081702000817020008EC
:1000900017020008170200081702000817020008DC
:1000A00017020008170200081702000817020008CC
:1000B00017020008170200089D2B0008170200080D
:1000C00017020008170200081702000817020008AC
:1000D000170200081702000817020008170200089C
:1000E0009508000817020008170200080000000029
:1000F0000000000000000000000000000000000000
:100100000000000000000000C52B000817020008D6
:100110001702000817020008ED2B0008170200085C
:10012000170200081702000817020008170200084B
:10013000170200080000000000000000170200087D
:10014000170200081702000817020008170200082B
:1001500000F002F800F042F80AA090E8000C824497
:100160008344AAF10107DA4501D100F037F8AFF274
:10017000090EBAE80F0013F0010F18BFFB1A43F085
:100180000103184780490000A0490000103A24BF2D
:1001900078C878C1FAD8520724BF30C830C144BFEC
:1001A00004680C607047000000230024002500262E
:1001B000103A28BF78C1FBD8520728BF30C148BFCA
:1001C0000B607047642900F0F380752900F0F0801F
:1001D000002070471FB51FBD10B510BD00F071FAAB
:1001E0001146FFF7F7FF02F065FE00F08FFA03B447
:1001F000FFF7F2FF03BC00F097FA000009488047C0
:1002000009480047FEE7FEE7FEE7FEE7FEE7FEE7F8
:10021000FEE7FEE7FEE7FEE704480549054A064B10
:1002200070470000992B000851010008E0020020EF
:10023000E0140020E0040020E004002053EA020C57
:1002400000F069802DE9F04B4FF00006002B1FBF36
:10025000B3FA83F503FA05F424FA05F65E4012BFFB
:100260001643B2FA82F502FA05F4C5F120051EBF65
:1002700022FA05FC44EA0C04203556EA044C4FEA05
:10028000144418BF641C4FF000084FF0000990425E
:1002900071EB030C39D3002919BFB1FA81F701FAC8
:1002A00007F6B0FA80F700FA07F6C7F120071EBF7D
:1002B00020FA07FC46EA0C062037B6FBF4FCA7EB55
:1002C0000507103F07F01F0BCBF120062CFA06F6AE
:1002D0000CFA0BFB44BFB3460026202FA4BF5E469A
:1002E0004FF0000B5BEA060C08BF4FF0010B19EB57
:1002F0000B0948EB0608ABFB027C06FB02CC0BFBB0
:1003000003CCC01B71EB0C01C1E70B460246414612
:100310004846BDE8F08B13B5084318BF4FF0FF30D7
:100320000146AFF30080BDE81C4070470FB41CB518
:100330000C0007AA009001D02044401E074B7B44CC
:1003400069460190069800F09CF9002C03D069469C
:10035000002000F0A9F91CBC5DF814FB710300003B
:1003600070B5044685690068C10601D5302600E0F5
:100370002026C00707D070BDD4E901213046904740
:10038000206A401C20626D1EF6D570BD70B5044613
:1003900085690078C00707D170BDD4E9012120200C
:1003A0009047206A401C20626D1EF6D570BD00008B
:1003B0002DE9F0410646002410687529314616A53E
:1003C00010D0AFF30080002802DA404213A507E006
:1003D00031688A0701D512A502E0490704D511A5A5
:1003E000012401E0AFF3008000210A2206F1240776
:1003F00009E0B0FBF2FCB0FBF2F302FB1C00303072
:1004000078541846491C0028F3D123462A46304622
:10041000BDE8F04100F0D6B8000000002D0000005B
:100420002B000000200000002DE9F05F8946044603
:100430004FF0000ADFF824B1FB44C0F820A02046AA
:10044000E168884700287DD0252806D0D4E901211D
:100450009047206A401C2062F1E700255F46204655
:10046000E16888472028064607DB312E05D2B819F7
:1004700010F8200C08B10543F1E7A80701D525F0D5
:100480000405C4F81CA00027C4F818A02A2E09D01F
:10049000304603F026F938B304EB8708303EC8F83D
:1004A000186019E059F8041B204604EB870291619B
:1004B000E1688847012F064618D1E069002820DA54
:1004C00025F020051DE0D8F8180000EB800006EBB1
:1004D00040003038C8F818002046E16888470646D2
:1004E00003F0FFF80028EED1012F0AD02E2E08D1FC
:1004F0002046E16888477F1C0646022F45F020050C
:10050000C4DBA069002803DA404245F00105A06180
:10051000E80701D025F01005A6B1A6F14100192881
:1005200002D8203645F400654A463146204625600B
:100530004D46FFF747FE60B1012807D0ED1D25F0BD
:10054000070000E007E000F1080978E705F1040979
:1005500075E730467AE7206ABDE8F09FB4320000C4
:1005600002F0FF0343EA032242EA024200F002B82B
:100570004FF0000200B5134694469646203922BF3C
:10058000A0E80C50A0E80C50B1F12001BFF4F7AF87
:10059000090728BFA0E80C5048BF0CC05DF804EB69
:1005A000890028BF40F8042B08BF704748BF20F8D7
:1005B000022B11F0804F18BF00F8012B70477047D5
:1005C000704770472DE9F0470D469946924604461C
:1005D00000F124080168880604D5E06921F01001C3
:1005E000216000E00120A84201DD471B00E0002758
:1005F000A1697A1902EB0900081AA0612078C006E7
:1006000002D42046FFF7ACFE002608E0D4E9012121
:100610001AF806009047206A401C761C20624E455E
:10062000F4DB2078C0060AD52046FFF799FE06E0E5
:10063000D4E9012130209047206A401C2062381EF6
:10064000A7F10107F4DC07E0D4E9012118F805005F
:100650009047206A401C2062281EA5F10105F3DCAA
:100660002046FFF793FE2078000602D50220BDE861
:10067000F0870120FBE7000001694A1C026108784D
:10068000704700B58FB0CDE90131002105910549D2
:100690007944CDE9031011466846FFF7C5FE0FB057
:1006A00000BD0000E5FFFFFF0A6802F8010B0A60C9
:1006B0007047D1E900239A4202D2531C0B6010709C
:1006C0007047754600F02CF8AE4605006946534663
:1006D00020F00700854618B020B5FFF79DFDBDE866
:1006E00020404FF000064FF000074FF000084FF099
:1006F000000BAC46ACE8C009ACE8C009ACE8C009E6
:10070000ACE8C00921F007018D46704710B50446DA
:10071000AFF300802046BDE81040FFF768BD000041
:10072000004870472000002001491820ABBEFEE7BA
:100730002600020070470000FEE7000080B540F68A
:1007400000000421C4F20100C0F2044100F0D4FE14
:1007500040F2D920C2F20000017841F0020101709C
:1007600080BD000080B541F200000121C4F201000B
:10077000C0F2014100F0C0FE40F2D920C2F20000F8
:10078000017841F00401017040F29800C2F20000CB
:10079000418900291CBF0139418180BD80B500F02D
:1007A000CDFC02F031FE80BD80B500F01DFD0128BA
:1007B00002D1FFF7F3FF80BD00F01EFD012808BF46
:1007C00000F0D4FC80BD00007047000010B540F27E
:1007D0000044C4F20004204601F0C8F8204610216D
:1007E00001F0A6F810BD000010B542F60044C4F2B6
:1007F0000104204601F0BAF801F0AEF820460121CC
:1008000001F096F810BD000070B540F20044C4F24B
:10081000000404F500660546304601F0A7F8298972
:10082000304601F04BFA3046002101F053FA3046D1
:1008300001F0BEF8204601F099F804F594363046F0
:1008400001F094F82046002101F044FA30460021DE
:1008500001F040FAA988204601F030FAE9883046D4
:1008600001F02CFA288801F01DFA688801F012FACC
:100870002046102101F062F83046012101F05EF8B7
:1008800001F08CF8204601F093F8304601F090F822
:1008900070BD000080B54FF4805000F08FFD00283F
:1008A00008BF80BD4FF4805000F0F2FC01F0D2FA96
:1008B00080BD000080B5042000F080FD002808BF46
:1008C00080BD042000F0E4FC02F006F880BD0000CA
:1008D000EFF3108072B600BFFEE7000080B501F0B4
:1008E0007FF880BD40F2DC20C2F200000068704753
:1008F00040F2140040F2DC21C2F20000C2F200011A
:1009000000780A68104408607047000080B542F221
:100910000000C4F20200016841F0100101600320F0
:1009200000F062F80F2000F005F800F02BF800202E
:1009300080BD0000B0B540F21402C2F2000240F2E5
:1009400010011278C2F200014FF47A730968B3FB08
:10095000F2F20446B1FBF2F1084600F04FFB0F2C17
:100960004FF001050CD858B94FF0FF302146002256
:10097000002500F029F840F21800C2F200000460DF
:100980002846B0BD82B041F21800C4F202000168EE
:10099000022241F001010160016801F001010191B1
:1009A0000199416841F080514160406800F08050F9
:1009B000009000980420C4F20100016862F31A61FB
:1009C000016002B07047000070B514460D4606463F
:1009D00002F05EF92946224601F0EAFD0146304662
:1009E00002F076F970BD000080B502F083F980BD99
:1009F0002DE9F04381B0002800F0898042F2000820
:100A0000C4F202080446D8F800000D4600F00700C2
:100A100088420CD2D8F8000020F007002843C8F81C
:100A20000000D8F8000000F00700A8426FD120684D
:100A300041F204098107C4F2020917D5410705D51F
:100A4000D9F8001041F4E061C9F80010010705D59C
:100A5000D9F8001041F46051C9F80010D9F800101D
:100A6000A26821F0F0011143C9F80010C00745D178
:100A7000D8F8000000F00700A8420CD9D8F8000010
:100A800020F007002843C8F80000D8F8000000F064
:100A90000700A8423BD12068410707D5D9F80010CC
:100AA000E26821F4E0611143C9F80010000708D59D
:100AB000D9F80000216920F4605040EAC100C9F86B
:100AC000000000F04FF8D9F8001043F20172C1F3B2
:100AD0000311C0F60002515C40F2100220FA01F14D
:100AE00040F21800C2F200000068C2F20002116079
:100AF000FFF720FF002001B0BDE8F0836068022806
:100B000009D0012829D159F8041C890307D40120F0
:100B100001B0BDE8F08359F8041C8901F7D5D9F874
:100B2000001021F003010843C9F80000FFF7DAFEC6
:100B3000064641F2883700BFD9F80000616800F02E
:100B40000C00B0EB810F93D0FFF7CCFE801BB842B6
:100B5000F2D9032001B0BDE8F08359F8041C8907DD
:100B6000D5D5DCE710B541F22C01C4F2020151F8F1
:100B7000283C03F00C00082841F20020C0F27A0063
:100B800018BF10BDC3F3834419A2125DDB0305D463
:100B900040F60010C0F23D00504310BD0B680FF24C
:100BA000600C03F00F0E0B681CF80EC0DB0303D4BF
:100BB0005043B0FBFCF013E00B680968C3F3031368
:100BC00003F1010E42F20043C1F30321C0F2F4032A
:100BD00001FB0030A0FB0201AEFB0C23FFF72EFB54
:100BE000A4F10D01B1FA81F14909C84010BD00BF5F
:100BF000000004050607080900000000000D0000C1
:100C00000102030405060708090A0B0C0D0E0F105C
:100C10002DE9F04182B0002800F0A381044600785D
:100C200041F20006C007C4F2020644D0706800F02A
:100C30000C00042805D1306880033CD5A068D0BBE7
:100C40008FE1706800F00C00082802D17068C003C2
:100C5000F1D4A5682DB1B5F5A02F0AD0B5F5803F28
:100C60000BD0306820F480303060306820F4802071
:100C700006E0306840F480203060306840F4803016
:100C80003060FFF72FFE002D054611D0306880033D
:100C900011D4FFF727FE401B6428F7D914E100BFE9
:100CA000FFF720FE401B64284FF0030000F2958000
:100CB00030688003F4D42078800719D5706810F06C
:100CC0000C0F07D0706800F00C00082827D170685E
:100CD000C00324D43068800703D56069012840F040
:100CE00040813068A16920F0F80040EAC10030601E
:100CF000207800073FD5E06948B36820C4F242205D
:100D00000121C0F81814FFF7EDFD0546706A800751
:100D10002FD4FFF7E7FD401B0228F7D9D4E0606924
:100D2000002840F26800C4F2422000F0A2800121B5
:100D300040F8681CFFF7D6FD054600BF3068800705
:100D4000CFD4FFF7CFFD401B0228F7D9BCE06820C5
:100D5000C4F242200021C0F81814FFF7C3FD054675
:100D6000706A800707D5FFF7BDFD401B0228F7D941
:100D7000AAE001F023FD2078400731D4E06A002882
:100D800000F0D7807168C90308D5716801F00C01C3
:100D9000082903D1F16AC90300F1E380022852D186
:100DA0003068C00006D5F06A616B00F0F000884240
:100DB00040F0D7806827C4F2422700203860FFF750
:100DC00091FD05463068000140F19680FFF78AFDED
:100DD000401B64284FF00300F4D902B0BDE8F08155
:100DE000F06910F0805808D1F06940F08050F0614F
:100DF000F06900F080500190019847F20007C4F2BA
:100E000000073868C00510D4386840F48070386036
:100E1000FFF768FD054600BF3868C00505D4FFF739
:100E200061FD401B6428F7D94EE025691DB1052DF1
:100E300032D0012D34D0306A20F001003062306AA7
:100E400020F004002FE0F06A002120F48030F062EE
:100E50006820C4F242200160FFF744FD054600BF50
:100E60003068000165D5FFF73DFD401B6428F7D9C8
:100E70002AE0002140F8681CFFF734FD054600BF5A
:100E8000306880077FF534AFFFF72CFD401B022848
:100E90004FF00300F4D9A0E7306A40F0040030625C
:100EA000306A40F001003062FFF71CFD002D05465E
:100EB00041F2883714D000BF306A800713D4FFF79F
:100EC00011FD401BB842F7D9032002B0BDE8F08104
:100ED000FFF708FD401BB8424FF003003FF67DAF1F
:100EE000306A8007F4D4B8F1000F7FF447AFF0699F
:100EF00020F08050F06141E7F06AD4E90C2120F045
:100F0000F0000843F062F06A20F470601043F06271
:100F100001203860FFF7E6FC054600BF306800019D
:100F200007D4FFF7DFFC401B64284FF00300F5D91E
:100F300053E7256A8DB1706800F00C00082814D1C1
:100F4000012D0ED07068616A00F480328A4208D1A7
:100F5000A16A00F47010884203D1002002B0BDE8FD
:100F6000F081012002B0BDE8F0816827C4F2422779
:100F7000002047F8080CFFF7B5FC022D05460BD101
:100F80003068800113D5FFF7ADFC401B02284FF0FD
:100F90000300F5D921E700BF30688001DDD5FFF7F8
:100FA000A1FC401B02284FF00300F5D915E7606A49
:100FB000B0F5803F09D1F16A6268E3681143F162DC
:100FC000F16A21F00F011943F1627168A26A21F4FC
:100FD0007411104308437060012047F8080CFFF7B4
:100FE00081FC044630688001B7D4FFF77BFC001B0E
:100FF00002284FF00300F5D9EFE6000080B501F0BC
:1010000077FD80BDFEE7000081B041F21400C4F21C
:101010000200016841F001010160006800F0010078
:101020000090009801B0704781B041F21C00C4F2FA
:101030000200016841F400110160006800F4001032
:101040000090009801B0704781B041F21C00C4F2DA
:101050000200016841F480410160006800F48040B2
:101060000090009801B0704781B041F21C01C4F2B9
:1010700002010A6802430A6009680840009000986B
:1010800001B0704781B041F21C00C4F20200016857
:1010900041F480210160006800F4802000900098F5
:1010A00001B0704781B041F21801C4F202010A6830
:1010B00002430A60096808400090009801B0704738
:1010C00081B041F21800C4F20200016841F0080149
:1010D0000160006800F008000090009801B07047BF
:1010E00081B041F21800C4F20200016841F0080129
:1010F0000160006800F008000090009801B070479F
:1011000081B041F21801C4F202010A6802430A6088
:10111000096808400090009801B0704781B041F222
:101120001800C4F20200016841F01001016000687B
:1011300000F010000090009801B070470420C4F245
:1011400002004FF480310160704700000420C4F2B7
:1011500002004FF400310160704700000420C4F227
:1011600002004FF400210160704700000420C4F227
:1011700002004FF400210160704700006022102936
:1011800043F60C01C4F20202C4F2000119BF106060
:1011900051605060116070475820C4F2020001682D
:1011A00021F00101016070475820C4F2020001687B
:1011B00041F00101016070475820C4F2020001684B
:1011C00041F00201016070475820C4F2020001683A
:1011D00041F00801016070475820C4F20200006825
:1011E00044F21001084070470020C4F20200006879
:1011F000C0F34040704700000020C4F202000068C5
:10120000C0F3C040704700005820C4F202000168DB
:1012100021F44051016070475C20C4F20200016873
:10122000842262F30F010160704700005820C4F26D
:101230000200016844F210029143103101607047CE
:101240005820C4F20200016841F08001016070473B
:101250005820C4F20200016821F440610160704727
:101260005820C4F20200016821F02001016070479B
:101270005820C4F20200016821F04001016070476B
:101280005820C4F20200016821F4407101607047E7
:1012900040F21441C4F201010860704740F2044179
:1012A000C4F201010A6822EA0000086070470000E9
:1012B00040F20C41C4F201010A6822EA0000086011
:1012C0007047000040F20041C4F201010A6822EABE
:1012D000000008607047000040F20841C4F20101BC
:1012E0000A6822EA000008607047000040F20441EA
:1012F000C4F201010A6810430860704740F20C41D3
:10130000C4F201010A6810430860704740F20041CE
:10131000C4F201010A6810430860704740F20841B6
:10132000C4F201010A68104308607047B0B5017942
:101330000446006861B198B16179022913D001298E
:1013400014D0D1B9FFF7AAFF2068FFF7DFFF12E042
:10135000FFF7B8FF2068FFF7A1FF00252846B0BDC2
:1013600000252846B0BDFFF7D1FF01E0FFF7AAFF37
:101370002068FFF7BBFF002500E00125A0790328C6
:101380000CD8DFE800F002030E12E7E72068FFF751
:101390008FFF2068FFF7C2FF2846B0BD0125284611
:1013A000B0BD2068FFF798FF02E02068FFF7B6FFA6
:1013B0002068FFF7A3FF2846B0BD000040F21441AB
:1013C000C4F2010109680140081AB0FA80F040092E
:1013D000704700000420C4F20100016841F0E061A0
:1013E00041F00201016070470420C4F2010001686D
:1013F00041F0E06141F0100121F0200101607047EF
:1014000080B540F2080CCAB2C4F2010C5CF822307C
:101410004FEA114E23EA11419EFAAEF3B3FA83F379
:10142000984008434CF8220080BD00002DE9F047A9
:10143000B1F801700C4697FAA7F1B1FA81F537FAC5
:1014400005F133D0804640F201194FF0011A03E054
:10145000013537FA05F029D027FA05F0C007F7D093
:10146000B5F108000AFA00F040F08066606838BF05
:1014700009FA05F6082804D122694046314600F0F1
:1014800091F862684046314600F05EF8606840F0CE
:1014900008000928DCD1A2684046314600F090F8E7
:1014A000E2684046314600F063F8D1E70020BDE82D
:1014B000F08700008068C1F30F210840401AB0FA9D
:1014C00080F0400970470000C1F30F21416170476F
:1014D000C1F30F214161704740F61441C0F30F2062
:1014E000C4F201010860704740F61440C4F20100E4
:1014F0000221016070470000C1F30F2101617047B4
:1015000040F61041C0F30F20C4F20101086070479B
:1015100040F61041C0F30F20C4F20101086070478B
:101520000A0E91FAA1F1B1FA81F152F800C08900D6
:101530000F238B402CEA030C082303FA01F141EA44
:101540000C0111507047000080B54FEA116E91FAFE
:10155000A1F1B1FA81F15EF800C089000F238B4040
:101560002CEA030302FA01F119434EF8001080BD82
:1015700080B54FEA116E91FAA1F1B1FA81F15EF8EE
:1015800000C0890004238B402CEA030302FA01F116
:1015900019434EF8001080BDC26822EA1121C160D3
:1015A00070470000C3684FEA112C23EA11219CFA0E
:1015B000ACF3B3FA83F39A401143C1607047000063
:1015C00080B54FEA116E91FAA1F1B1FA81F15EF89E
:1015D00000C0890003238B402CEA030302FA01F1C7
:1015E00019434EF8001080BD026822F48062114356
:1015F00001607047F0B54DF6836CC4F21B3CA1FB53
:101600000CCE4FEA9E4C4FF496740CFB04FC44F64F
:10161000D354C1F26204ACFB044C446848F2A067A6
:1016200024F03F0444EA9E444460046AC0F2010787
:101630007E1C4FEA9C1524F03F04B24238BF4FEAAB
:101640009E456E1C2643BA4206620DD91927002B0F
:1016500008BF03277A43B1FBF2F10A0508BF012155
:10166000194341F4004107E05200B1FBF2F140F6AA
:10167000FC72114208BF0421C2694CF6FF739A4301
:101680001143C161F0BD0000016821F0010101605A
:101690007047000045F20040C4F20000016821F0EC
:1016A000400101607047000045F20C40C4F20000A8
:1016B000016821F0010101607047000045F200401F
:1016C000C4F20000016841F00101016070470000B0
:1016D000016841F0010101607047000045F20040DF
:1016E000C4F20000016821F0800101607047000031
:1016F000B0B584B00D460446FFF7C6FF684600F05B
:1017000053F80299D5E901232046FFF773FFE968F2
:101710006A69204600F014F82968204600F00AF8AB
:101720002046FFF7D5FF29692046FFF75DFF00201F
:1017300004B0B0BD026822F01A0211430160704784
:10174000D0F808C048F2FF332CEA030311431943D1
:101750008160704745F20C40C4F20000016821F03E
:10176000FE0101607047000041F20400C4F2020073
:10177000006800F0F000704741F20400C4F202007B
:10178000006800F4E060704741F20400C4F2020017
:10179000006800F46050704741F20400C4F2020097
:1017A000006800F00C00704710B5044601F046F8E0
:1017B000206001F019F8606001F024F86168A06011
:1017C000084601F02DF8E06010BD000041F22C0049
:1017D000C4F20200006800F0F000704741F22C00F3
:1017E000C4F20200006800F47060704741F2040027
:1017F000C4F202000168806A01F4803100F4803094
:1018000041EA00107047000041F20400C4F20200F7
:10181000006800F47010704741F22C00C4F202001E
:10182000006800F00F00704743F60000C4F20000AB
:10183000016841F0400101607047000043F6040078
:10184000C4F20000016841F002010160704700002D
:101850002DE9F04381B00D46044600F03DF808B193
:10186000012029E020684FF6BF7120EA010C95E8BD
:101870000E4205F1140841EA0C011143194398E89E
:10188000C00141EA090141EA0E013143286A3943A6
:1018900041EA0801014321606168B0F5005F21F071
:1018A000040141EA1641616005D1696A204600F0F1
:1018B00017F8002000E00020E16921F40061E161F7
:1018C00001B0BDE8F083000043F60800C4F2000058
:1018D0000068C0F3400070470068C0F38010704794
:1018E00089B201617047000043F60C01C4F20001A7
:1018F0000870704780B58A688446087BD1E900E3A8
:1019000022F47C42104323F4784210432EF47042B8
:10191000CB891043D1E904216FF35F3322F44042B5
:101920001043184301430020CCF8441080BD000050
:10193000026A22EA0101016270470000026A114353
:10194000016270476FF0010101617047016821F089
:10195000800101607047000042F64440C4F201007B
:10196000016821F40041016070470000016821F026
:101970000101016070470000C16821F48041C1602D
:1019800070470000C16821F04001C160704700004D
:10199000816821F0800181607047000042F6444078
:1019A000C4F20100016841F4004101607047000089
:1019B000016841F00101016070470000C16841F019
:1019C0000101C16070470000816841F080018160C1
:1019D00070470000416941F001014161704700001A
:1019E0002420C4F20000006870470000012806D0DF
:1019F000042806D010280CBF0220062002E0002098
:101A000000E0012044F6EC21C0F6000144F6F32288
:101A1000095C40F2180CC0F60002C4F2000C105C25
:101A200051F80C300322824023EA0202012303FA18
:101A300000F0104341F80C007047000010B5012879
:101A400008D0042809D010280CBF4FF0020E4FF028
:101A5000060E04E04FF0000E01E04FF0010E44F6D8
:101A6000EC22C0F6000244F6F32012F80E2040F2F9
:101A7000180CC0F60000C4F2000C10F80E0052F86A
:101A80000C40F0238340090C24EA030301FA00F020
:101A9000184342F80C0010BD012806D0042806D0D7
:101AA00010280CBF0220062002E0002000E00120E8
:101AB000202106A3C4F20001185C0A680A2303FA75
:101AC00000F022EA00000860704700BF0002040630
:101AD000080A0C00012806D0042806D010280CBFE4
:101AE0000220062002E0002000E0012044F6EC2164
:101AF000C0F6000144F6F322095C40F2180CC0F66F
:101B00000002C4F2000C105C51F80C300C2202FAF6
:101B100000F023EA000041F80C00704770B540F275
:101B2000FF720D4604460068C4F2000240F6000150
:101B300042F600469442C4F20001C4F2010606DDFA
:101B40008C420DD0B4420BD040F6004304E0B4F117
:101B5000804F05D040F20043C4F200039C4203D101
:101B60006B6820F070001843944206DD8C420DD063
:101B7000B4420BD040F6004104E0B4F1804F05D0F0
:101B800040F20041C4F200018C4203D1E96820F424
:101B9000407008432060A968204600F091F8298829
:101BA000204600F0A3F8B44202D1286900F0A0F862
:101BB0002046FFF70FFF002070BD0000006900F015
:101BC00001007047012906D0042906D010290CBF56
:101BD0000221062102E0002100E0012144F6EC226E
:101BE000C0F60002525C104444F6FA22C0F600022D
:101BF000515C0422836902FA01F123EA0101816147
:101C000070470000012906D0042906D010290CBF16
:101C10000221062102E0002100E0012144F6EC222D
:101C2000C0F60002525C104444F6FA22C0F60002EC
:101C3000515C0822836902FA01F1194381617047FE
:101C400080B50346FF294FF0010009DC012914D0BB
:101C500010291DD11846114600F0FEFC002080BD61
:101C6000B1F5807F0FD0B1F5805F18BF80BD1846F9
:101C7000114600F075FD002080BD1846114600F0A9
:101C8000ADFC002080BD1846114600F027FD002065
:101C900080BD000042F63441C4F201010860704783
:101CA0004163704740F23841C4F200010860704758
:101CB00081637047C163704701647047C1627047B8
:101CC000C1627047826844F207039A4311438160FE
:101CD00070470000416270470820C4F200000168AC
:101CE000012262F3020101607047000081627047C7
:101CF00042F63041C4F2010108607047826822F068
:101D00007002114381607047426822F070021143F3
:101D10004160704744F61000C4F20000016821F4ED
:101D200090410160416821F02A0141607047000044
:101D300044F60C00C4F20000016841F40051016057
:101D400070470000B0B584B00D46044600F052F86C
:101D500010B1012004B0B0BDE06841F20C6120EA8E
:101D6000010CD5E90121D5E9033042EA0C021A43FE
:101D70001043E060204600F067F86969204600F0F3
:101D80005DF86846FFF710FD44F6FF30C4F200002E
:101D900084424FF0000113DD44F60040C4F200001D
:101DA00084421BD045F20000C4F20000844215D0EA
:101DB00043F60000C4F20100844208BF03990EE01C
:101DC00044F20040C4F20000844207D044F6000010
:101DD000C4F20000844208BF029900E00299002981
:101DE000B7D02A68002AB4D0204600F007F80020B7
:101DF00004B0B0BDC068C0F34030704719235943E8
:101E00009200B1FBF2F148F21F5CC5F2EB1CA1FBA2
:101E10000C3252096FF0630302FB0311322303EB10
:101E20000111A1FB0C13F02101EA531101EB021186
:101E3000C3F3431289B2114481607047426922F4AE
:101E40004072114341617047026922F440521143CC
:101E500001617047B0B540F600040425C4F20104E6
:101E6000C0F2044520462946FFF746FB40F2D92040
:101E7000C2F20000017801F0FE010170007805F166
:101E80000411C00703D12046FFF71EFB02E02046E5
:101E9000FFF732FB20462946FFF716FBB0BD0000D6
:101EA00080B5FFF7B1F800F0EBFE00F06BFB00F03F
:101EB000FFFE00F0C5FE80BD2DE9F04F89B04FF068
:101EC000000B2020CDF81CB0CDE905BBCDE903BB4C
:101ED000CDE901BBFFF7E6F81020FFF7E3F8042097
:101EE0004FF00409FFF7DEF80820FFF7DBF841F2B6
:101EF000000AC4F2010AAAF58065284640F207717B
:101F000040F20778FFF7E4FA0321C0F2034150469C
:101F1000FFF7DEFA1020C0F2104000F17C16AAF59F
:101F2000006738463146FFF7D3FA40F60F7001AC30
:101F3000CDE9010950462146FFF778FA40F2044006
:101F4000CDE9010938462146FFF770FACDF8048043
:101F50004FF001084FF0020928462146CDF80880CD
:101F6000CDE9039BFFF762FA0325C0F2034501A800
:101F700080E8200B50462146FFF758FA01A880E878
:101F8000400B38462146FFF751FAA5F17D7102203A
:101F9000FFF736FA03204FF07061FFF731FA4FF484
:101FA000805006AC06902046ADF81C808DF81E804F
:101FB000FFF7BCF9042006902046ADF81C808DF890
:101FC0001E80FFF7B3F91025C0F210455046294690
:101FD000FFF7E2FA0AF58064204640F20441FFF779
:101FE000DBFA50462946FFF79BFA204640F20441AF
:101FF000FFF796FA00F03CFE00F0C2FA0146082016
:1020000000F04EFE082000F00BFE00F031FE00F064
:10201000B7FA0146282000F043FE282000F000FE19
:1020200009B0BDE8F08F0000B0B58CB000250B956D
:10203000CDE90955CDE90755CDE90555CDE903555C
:10204000CDE90155FFF73CF80320C0F203400190B1
:1020500009200290032045F2004403900420C4F2BA
:102060000004049004F5384001A9FFF7DFF9FFF7F9
:10207000B1F9FEF7D9FFFFF717FBFFF70BFBFFF7EF
:102080002DFB41F68020C0F20600CDE907054FF494
:1020900080600A904FF480400B9006A92046069578
:1020A0000995FFF725FBFFF755FBFFF707FB2068B6
:1020B00040F480602060E06820F0FE00E0600CB03A
:1020C000B0BD000070B590B006AC20462821FEF7E8
:1020D0004FFA00260596CDE90366CDE90166FEF7C5
:1020E000B3FFFEF7FDFFA020C0F2A0400190092041
:1020F00043F6000502900320C4F20005CDE9030673
:1021000005F5544001A9FFF791F9FFF78FF8FFF7A4
:102110007BF8FFF7A5F8FFF7ABF8FFF791F8FFF7AB
:10212000AFF8FFF795F84FF48270CDE907064FF44A
:1021300000700B900820CDE90C060A200F9028466D
:1021400021460696CDE909660E96FFF781FBFFF75B
:1021500023F8FEF7FBFFFFF701F8FFF76FFBFFF730
:102160002BF8FFF731F8FFF75FFB10B070BD0000F0
:10217000B0B598B000254FF40060CDE91655CDE913
:102180001455CDE91255CDE91055CDE90E55CDE9DF
:102190000C55CDE90A55CDE90855CDE90655CDE9EF
:1021A0000455CDE90255CDE90055FEF7A9FF4720BA
:1021B000ADF84C0040F2E73042F60044CDE9150599
:1021C000FF20C4F20104179013A920461495FFF7CD
:1021D000A5FC2046FFF7BAFB20460021FFF772FD61
:1021E00020460121FFF70EFD7020CDE90B0540F2DE
:1021F000F310CDE90E050BAA204601210D95CDE97E
:1022000010551295FFF71CFD20460121FFF7DAFC5F
:1022100020464021FFF778FD2046FFF7D5FB4FF41D
:102220000050CDE9090505A92046ADF82250CDE9B9
:10223000055507958DF82050FFF75CFB0420FEF74D
:102240005FFF0120C0F201400090092001900220B0
:10225000CDE90205A4F510506946FFF7E7F818B07C
:10226000B0BD000010B58AB000240120CDE90844BB
:10227000CDE90644CDE90444CDE90244CDE900446A
:10228000FEF7F2FE0420FEF73BFF40F20330009021
:102290000820019040F60000C4F201006946049451
:1022A000FFF7C4F8FFF718FD0120FFF79FFB01209F
:1022B000FFF710FC01204FF48011FFF7BFFB012056
:1022C000FFF7EAFB1020FFF791FB1020FFF702FC5D
:1022D00010204FF40011FFF7B1FB1020FFF7DCFBDB
:1022E0004FF6FF70CDE9070405A94FF08040ADF827
:1022F00014400694FFF712FC4FF08040FFF726FBD6
:102300004FF080400021FFF7FFFC4FF08040FFF7C7
:102310003FFB0AB010BD000070B592B0002502204E
:10232000CDE91055CDE90E55CDE90C55CDE90A554D
:10233000CDE90855CDE90655CDE90455CDE902555D
:10234000CDE900550226FEF78FFE472040F20044FB
:10235000ADF8340040F2E730C4F20004CDE90F05D7
:102360000DA920460E95FFF7D9FB2046FFF7EEFAA0
:1023700020461021FFF746FC7020CDE9050540F20C
:10238000F310CDE9080505AA204610210795FFF7AF
:1023900057FC20461021FFF715FC20465021FFF77F
:1023A000B3FC2046FFF710FB0420FEF7A9FE48F21D
:1023B000800000900920CDE9010604F582306946CD
:1023C0000395FFF733F812B070BD000010B586B06A
:1023D000002404200594CDE90344CDE90144FEF72F
:1023E00043FE0F20ADF8040063200294CDE90304FE
:1023F00040F60004C4F2000401A92046FFF78EFB5A
:102400002046FFF7A3FA20460021FFF777FC20467D
:102410000721FFF757FC2046FFF7B4FA2046FFF7E5
:10242000ABFA20460021FFF76FFC2046FFF7B0FA19
:102430002046FFF787FA2046FFF7C0FA1E20012149
:1024400000F03EFC1E2000F003FC20460021FFF7B8
:1024500041FC2046FFF7ACFA06B010BD10B586B0BF
:10246000002408200594CDE90344CDE90144FEF79A
:10247000FBFDC720ADF804400294CDE9030440F60B
:102480000044C4F2000401A92046FFF747FB2046A0
:10249000FFF75CFA20461021FFF730FC20460721A9
:1024A000FFF710FC2046FFF76DFA2046FFF764FAAD
:1024B00020460021FFF728FC2046FFF769FA204656
:1024C000FFF740FA2046FFF779FA3220012100F0A9
:1024D000F7FB322000F0BCFB20460021FFF7FAFB9F
:1024E0002046FFF765FA06B010BD0000F0B58DB0CC
:1024F0000026CDE90B66CDE90966CDE90766CDE991
:102500000566CDE90366CDE90166FEF7BBFDFEF782
:1025100005FE092041F20004042702900320C4F2C2
:10252000010401ADC0F20447CDE903062046294667
:102530000197FEF77BFF07F1041001900420029041
:1025400020462946FEF772FFFEF74EFF4FF4E130BA
:10255000CDE906060C20CDE90A06A4F5484006A9F7
:10256000CDE908660C96FFF7EDFBFFF7D3FBFFF70D
:10257000DFFB0DB0F0BD0000FEE70000FEE700004D
:102580000020704700F0070080F00701042928BFF1
:1025900004214FF0FF32033802FA01F14FF0030239
:1025A00038BF002022EA010101FA00F07047000064
:1025B00000F0070080F00703042B28BF04234FF02E
:1025C000FF3C03380CFA03F338BF002099438140E5
:1025D0000CFA00F022EA0000084370472DE9F041B0
:1025E0000446006A20F001002062256A6368D4F87E
:1025F00018C00A6925F0030522F00102D1E900E0C4
:102600002A4342F60045C4F20105AC4242EA000505
:1026100014D101F1140825F00C0098E860016FF066
:1026200004078A6807EA8505284340EA820523F4FF
:10263000407026F40072104340EA48032CF0730007
:1026400040EA0E006360A061C9682046FFF728FBDE
:102650002562BDE8F08100002DE9F0410446006AE2
:102660006FF0100620F010002062256A6368D4F82D
:1026700018C00A6925F0300506EA0212D1E900E027
:102680002A4342F60045C4F20105AC4242EA001575
:1026900016D101F1140825F0C00098E860016FF030
:1026A00040078A6807EA8515284340EA821523F423
:1026B0004060B20040F603039A43104340EAC80367
:1026C0002CF4E64040EA0E206360A061C968204611
:1026D000FFF7EEFA2562BDE8F08100002DE9F04138
:1026E0000446006A40F2FF1620F480702062256ADA
:1026F0006368D4F81CC00A6925F440751202B2431D
:10270000D1E900E02A4342F60045C4F20105AC429B
:1027100042EA002516D101F1140825F4406098E83A
:10272000600140F2FF77AD028A68BD43284340EA6A
:10273000822523F44050320142F20F039A431043A2
:1027400040EA48132CF0730040EA0E006360E06139
:10275000C9682046FFF7AEFA2562BDE8F0810000A7
:1027600070B50446006A42F6004620F480502062AC
:10277000206A6268E369D1E900EC0D69C4F20106E0
:10278000B44204D18E6922F4804242EA861223F4D4
:10279000E6432D0341F6FF7643EA0E2320F4405032
:1027A000B5436260E3612843C96840EA0C352046BE
:1027B000FFF782FA256270BD7047000081B040F2D9
:1027C0001000C2F20000006844F6D351C1F2620169
:1027D000A0FB0101480A009000BF0098411E00289C
:1027E0000091F9D101B0704710B50446FEF7BCFF67
:1027F00043F20171C0F30310C0F60001085C24FA33
:1028000000F010BD10B50446FEF7B6FF43F211719B
:10281000000AC0F60001085C24FA00F010BD0000B8
:1028200010B50446FEF7B0FF43F21171C00AC0F6BE
:102830000001085C24FA00F010BD000080B5FEF72E
:10284000ABFF08281ABF41F20020C0F27A0000F066
:1028500017F880BD10B5FEF7C1FF000A43F6095115
:10286000484342F20041C0F2F40101EB4024FEF77C
:10287000ADFF012101EB1010B4FBF0F010BD000022
:1028800010B5FEF7B3FFB0F5803F06D0B0F5881F56
:102890000DD1FFF7DFFF044603E041F20024C0F250
:1028A0007A04FEF7B9FF0130B4FBF0F403E040F620
:1028B0000014C0F23D04FEF7A7FFB0F5501F03D18E
:1028C0000D206043400810BDFEF79EFFC0F383401B
:1028D0000230604310BD0000B0B540F6000404258E
:1028E000C4F20104C0F2044520462946FEF704FE66
:1028F00040F2D920C2F20000017841F001010170DC
:10290000007805F10411C00703D12046FEF7DCFD75
:1029100002E02046FEF7F0FD20462946FEF7D4FDF2
:10292000B0BD000080B5002000F030F880BD000090
:10293000832898BF1F2900D9704710B540F2BE0305
:10294000C2F200031B7840F2C00E002B01F0070317
:102950004FEAD10101EB4111B2FA82FC00EB810494
:10296000C2F2000E18BF4FEA5C124FF0010C1EF8C5
:1029700004100CFA03F321EA0300012A08BF41EA1C
:1029800003000EF80400BDE81040704780B540F227
:10299000BE01C2F200010978002918BF01210A1AFC
:1029A00040F2C000C2F200004FF4047118BFFF22D1
:1029B000FDF7D6FD80BD000040F2BA02C2F200026F
:1029C000108040F2BC00C2F200000180704700009D
:1029D00010B5044640F20440FEF77EFDA4F150001D
:1029E000C0B200F0C3FD002000F0C0FD102000F0D8
:1029F000BDFD10BD2DE9F04F83B040F2BA0A0D467F
:102A0000C2F2000ABAF800102B78194483290AD8B8
:102A100040F2BC0BC2F2000B1646BBF800206978EE
:102A200011441F2903D9002003B0BDE8F08F0190A5
:102A3000687870B30199B6FA86F7203900240291BC
:102A400004E000BF68780134844222D2297800294A
:102A5000F8D0029A696800FB02404FF0000931F893
:102A6000108000BFBAF8000008FA09F1BBF8003086
:102A70000904484403EB0401324680B289B258BFCE
:102A80007A09FFF755FF287809F101098145E9D353
:102A9000D8E72878BAF800100844AAF8000001988E
:102AA00003B0BDE8F08F000070B503787BB1144629
:102AB0000D46461CD8B229462246FFF79BFF16F862
:102AC000011C884205D116F8013B002BF2D10020F1
:102AD00070BD084670BD000080B540F2C000C2F273
:102AE00000004FF4047100F049FD80BD7047000004
:102AF000B0B501380024B4EB106F1CBF0120B0BD8D
:102B00004EF21005CEF2000568604FF0FF300F2145
:102B100000F0DEF80720AC6028602046B0BD000061
:102B200080B5FDF7E5FE80BD70B594B006AC2046DB
:102B30003821FDF71DFD0120002506900B904FF474
:102B4000E0104FF480310226CDE9100520460595AE
:102B5000CDE90355CDE901550995CDE90751CDE9F9
:102B60000E61FEF755F8A8B90F20CDE901064FF424
:102B70008060CDE9040501A802210395FDF738FF27
:102B8000002801BF7020C4F242200121016004BF6F
:102B900014B070BDFDF79CFE7047000010B540F604
:102BA0000004C4F200042046FFF708F8012818BF0B
:102BB00010BD2046FEF7C6FEFDF716FEFDF7D2FD5E
:102BC00010BD000010B540F60044C4F200042046D9
:102BD000FEF7F4FF012818BF10BD2046FEF7B2FE35
:102BE000FDF7F4FDFDF7AAFD10BD000010B541F2A0
:102BF0000004C4F200042046FEF7E0FF012818BFDD
:102C000010BD2046FEF79EFE2046FEF7AFFE40F2C6
:102C1000D220C2F200000121017010BDFEE70000C9
:102C2000C1B200F01F00012202FA00F04EF20012C1
:102C3000CEF2000242EAD10121F0030108607047A0
:102C40004EF20010CEF200004FF4004101607047D8
:102C5000C1B200F01F00012202FA00F04EF2001291
:102C6000CEF2000242EAD10121F003010860704770
:102C70004EF60C50CEF200000068C0F30220704700
:102C80004EF60C50CEF200000068C0F302207047F0
:102C90004EF60C50CEF200000068C0F302207047E0
:102CA000E422C0F2E002090162F31F2001707047C4
:102CB0004EF20F410001CEF2000108707047000093
:102CC000E422C0F2E002090162F31F2001707047A4
:102CD0004EF6145300F00F02CEF2000309011A441D
:102CE00000F16043B0F1FF3FC8BF03F564421170CB
:102CF000704700004EF60C51CEF200010A684FF604
:102D0000FF031A4060F30A2242F0806040F0FD7039
:102D100008607047F0B583B00E46074605200721CE
:102D20001C461546FFF748FEFFF7FCFD009640F2F3
:102D3000A406C2F2000608A23046102123460195DF
:102D4000FDF7F4FA304639460122FFF7ADFEFFF7F2
:102D5000C3FE03B0F0BD00BF2575433A2530336490
:102D60002F2530336400000010B541F20044C4F256
:102D7000000401462046FEF7A1FF2046FEF7E2FDD3
:102D800020460021FEF7A6FF2046FEF711FE00BFF9
:102D90002046FEF713FF0028FAD02046FEF7E6FD96
:102DA00010BD000070B540F60004C4F2010408250F
:102DB000C0F2084504F50066A5F107113046FEF79C
:102DC00083FBA5F106113046FEF77EFBA5F1041149
:102DD0002046FEF779FB40F2D920C2F200000078CD
:102DE000C00704D120462946FEF76EFB03E02046CB
:102DF0002946FEF781FB0320FFF7B6FF40F298005B
:102E0000C2F20000FDF700FD70BD000080B54FF07C
:102E1000804047F6FF71FEF75DFF4FF080400121D3
:102E2000FEF78CFD4FF080401021FEF787FD4FF03C
:102E30008040FEF7BDFD80BD10B5B0F8012048F21E
:102E4000A063C0F20103B3FBF2F24FF0640CB0F8E0
:102E500003E002FB0CF3B3FBFEF34FF0FF3C40F248
:102E600098040CEB530EC2F20004013BA3800CEB60
:102E70005203013AA4F800E06380E28000EB4101D4
:102E8000B1F805106181B0F803000001208110BD88
:102E900040F2D920C2F20000017841F00101017036
:102EA000017841F002010170017841F004010170E4
:102EB00070470000FDF72AFDFFF736FEFEF7FCFF26
:102EC000FEF7EEFFFFF7FEF8FFF7AEF8FFF70EFB99
:102ED000FFF722FAFFF74CF9FFF778FAFFF7C2F98C
:102EE000FFF7BCFA00F0E4FBFFF7D2FF00F0C8FAEE
:102EF00000F020F840F2D42640F2B40440F28005FD
:102F0000C2F20006C2F20004C2F2000504E000BFF3
:102F10002046294600F05EF900F084F80028308051
:102F2000FAD030880628F3D00228F5D1284600F0E0
:102F300029FBF1E780B500200121FFF73DFD40F2BC
:102F4000A40044F24531C2F20000C0F25401C0F8BE
:102F5000031044F25351C4F24C51016040F2080195
:102F6000C2F200010122FFF79FFDFFF7B5FD80BD12
:102F700010B50446FDF7B2FC013880B247F6FF7188
:102F8000081A218800EBD072501042F34F020BB2A6
:102F90009A4260800FBF0020411AA180208018BF94
:102FA000012010BD10B540F2D22141F20004C2F25E
:102FB00000010022C4F200040A7041002046FEF71E
:102FC0007DFE20460021FEF785FE2046FEF7BAFC76
:102FD0002046FEF7EDFC10BD80B5013805281FD84E
:102FE000DFE800F003030A0A111141F20000C4F205
:102FF000010040F201110CE041F20000C4F20100B6
:10300000A0F5006003E041F20000C4F2010040F2CC
:103010000441FEF74FFA0138B0FA80F0400980BD54
:10302000002080BD70B540F2D825C2F20005287896
:10303000E8B12878012804D13220FFF7B3FF02203D
:103040002870287840F2D2240228C2F200043BD132
:103050002078012838D140F2D620C2F20000008842
:10306000FFF7BAFF012824D10020287070BD41F27B
:103070000004C4F20104A4F5006040F20441FEF72C
:1030800019FA00285AD0204640F20441FEF712FAFD
:10309000002865D0204640F20111FEF70BFA002807
:1030A000C7D140F2D6210120C2F200012870088069
:1030B000BFE76420FFF776FF0320287040F2D1209D
:1030C000C2F2000000210170287803281BD120786B
:1030D000012818D140F2D626C2F200063088FFF748
:1030E0007BFF012803D100202870308870BD40F29A
:1030F000D120C2F200000178042928D801310170E2
:103100006420FFF74FFF287804284FF0000014D107
:103110002178012918BF70BD40F2D624C2F2000404
:103120002088FFF759FF012803D100202080287054
:1031300070BD6420FFF736FF002070BD01202870AD
:1031400040F2D620C2F200000321018071E73088EE
:1031500001280ED005280ED003280ED104200BE044
:103160000120287040F2D620C2F200000521018023
:103170005FE7022000E006203080042028706420F1
:10318000FFF710FF308870BDF0B581B00D460646E0
:10319000002003211446FFF70FFCFFF7C3FB40F2AA
:1031A000A407C2F2000708A2384610212B4600945B
:1031B000FDF7BCF8384631460122FFF775FCFFF7F2
:1031C0008BFC01B0F0BD00BF2575433A2530336458
:1031D000000000002DE9F04F81B00C46B1F803105B
:1031E0000546002904BF6420A4F8030040F2080645
:1031F000B4F90310C2F20006304600F0A5F80BE067
:103200001920A4F80300B4F90310304600F09CF82C
:10321000FFF708FF052815D02846FFF7A9FE01286B
:10322000F6D1A888B4F8031000EB8000014488B2FE
:10323000B0F5C87FA4F80310E2D81828E3D84FF4FB
:10324000C870DEE7B4F8010040F20806002804BFA9
:103250006420A4F80100B4F90110C2F2000630465F
:1032600000F0A2F80CE000BF1920A4F80100B4F9A6
:103270000110304600F098F8FFF7D4FE052815D06D
:103280002846FFF775FE0128F6D1A888B4F801108A
:1032900000EB8000014488B2B0F5C87FA4F80110AB
:1032A000E2D81828E3D84FF4C870DEE740F20808E7
:1032B000661D04F10B0A0027C2F2000807F1010B9A
:1032C00036F817205FFA8BF940464946FFF75CFF56
:1032D0002846FFF74DFE012815D1A88836F81710AB
:1032E0000844010426F8170004D080B2FB2804D358
:1032F000012000E0FA2026F8170036F81720404693
:103300004946FFF741FFFFF78DFE052802D006284A
:10331000DED10AE036F81700BBF1030F2AF81700D8
:103320005F46CBD14FF0030B05E036F8170004EBF6
:103330004701A1F80B002046002184F800B000F0FE
:10334000BFF901B0BDE8F08F70B582B048F21F52EE
:10335000C5F2EB1281FB02235A1102EBD3756422F2
:1033600005FB1216044600200321FFF725FBFFF79B
:10337000D9FAEBB240F2A405C2F20005F6B207A2F8
:10338000284610210096FCF7D1FF2846214601224D
:10339000FFF78AFBFFF7A0FB02B070BD52543A253D
:1033A000752E25303275000070B582B048F21F527C
:1033B000C5F2EB1281FB02235A1102EBD375642292
:1033C00005FB1216044600200321FFF7F5FAFFF76C
:1033D000A9FAEBB240F2A405C2F20005F6B207A2C8
:1033E000284610210096FCF7A1FF2846214601221D
:1033F000FFF75AFBFFF770FB02B070BD53503A2540
:10340000752E253032750000B0B5FDF7C5FEFDF70D
:1034100003FF40F2D025C2F20005287840F2C00137
:1034200000EB4010C2F2000101EB8000041FFDF729
:10343000D3FE01462046FDF7A1FE287803280BD8CD
:10344000FFF7C6FA40F20220FEF75AF8FDF7ACFE8D
:10345000287801302870B0BD00202870FDF79CFE50
:1034600040F20440FEF74CF8B0BD000010B5044631
:10347000FEF72AFA0028FBD02046FEF735FA10BDE9
:1034800010B540F20110FEF727F840F6B830FFF70C
:103490006BFC40F20110FEF73BF840F6B830FFF746
:1034A00063FC40F20440FEF717F8AE2000F05EF82F
:1034B000812000F05BF8FF2000F058F8A62000F013
:1034C00055F8A42000F052F8202000F04FF8022018
:1034D00000F04CF8B02000F049F80020002400F083
:1034E00045F8102000F042F8402000F03FF8A120FD
:1034F00000F03CF8A82000F039F81F2000F036F862
:10350000C82000F033F8D32000F030F8002000F09D
:103510002DF8DA2000F02AF8122000F027F8D52044
:1035200000F024F8F02000F021F8DB2000F01EF875
:10353000202000F01BF8AF2000F018F841F288308E
:10354000FFF712FCFFF7EEF9FFF7C6FA40F2BA00F8
:10355000C2F20000048040F2BC00C2F2000004800D
:1035600040F20440FDF7D4FF10BD000010B5044642
:10357000FDF7BAFF2046FFF779FF10BD80B5FFF7D2
:1035800043FF80BD2DE9F04381B080460078D8B379
:1035900040F2D92440F2980908F10B060027C2F244
:1035A0000004C2F2000900BFFDB240462946FFF701
:1035B00043FC00BF36F81700D0B12078400744BF65
:1035C00020785FEA8070F5D5B9F80A00013826F84E
:1035D0001700207800F0FB002070207800F0FD003C
:1035E0002070FFF7DFFB4046294600F069F8E1E76D
:1035F000207840075CBF20785FEA8070F8D598F8A3
:10360000000001378742CFD301B0BDE8F08300004E
:1036100010B586B0002420200594CDE90344CDE9FF
:103620000144FDF721FD4720ADF80400FF2002947E
:10363000CDE9030441F20044C4F2000401A920468C
:10364000FEF76CFA2046FEF781F906B010BD0000C7
:1036500010B586B0002410200594CDE90344CDE9CF
:103660000144FDF701FD48F69F40ADF804004FF618
:10367000FF700294CDE90304059441F20004C4F202
:10368000000401A92046FEF749FA2046FEF75EF93C
:103690002046FEF757F92046FEF790F93620042120
:1036A000FFF70EFB3620FFF7D3FA06B010BD00007F
:1036B00080B5FFF7ABFBFFF7ABFFFFF7C9FF80BD9E
:1036C00080B500EB4100B0F90520B0F90BC0481CF3
:1036D000C3B240F20000C2F200006146FFF71AFBDD
:1036E00080BD30380A2801D2012070470020704781
:1036F00004000008000000000000000200010000BB
:10370000100000000000000000010203040607088A
:103710000900000000010203040000000000000096
:103720000000000000000000000000000000000099
:103730000000000000000000000000000000000C7D
:10374000000C000C000C000C000C000C000C000C19
:10375000000C000C0000000C000C00000000000039
:10376000001B001B001B001B001B000000000000D2
:103770000000000000000000000000000000000049
:1037800000008019801980198019C07FC07F8019BE
:103790000033C07FC07F00330033003300330000AC
:1037A00000000000001E003F807580650074003C32
:1037B000001E00078005806580658075003F001E43
:1037C000000400040000007000D840D8C0D880D9A0
:1037D00000730006000C801BC036C066C046C006E1
:1037E0008003000000000000001E003F0033003393
:1037F0000033001E000CC03CC066806380618063A3
:10380000C03E801C000000000000000C000C000CFA
:10381000000C000C00000000000000000000000090
:103820000000000000000000000080000001000314
:10383000000600060004000C000C000C000C000C3C
:10384000000C000400060006000300010020001028
:103850000018000C000C000400060006000600061C
:10386000000600060004000C000C00180010800385
:1038700040044004400480030000000000000000F9
:103880000000000000000000000000000000000038
:10389000000000000000000C000C000C000CC0FF39
:1038A000C0FF000C000C000C000C00000000000029
:1038B0000000000000000000000000000000000008
:1038C00000000000000000000000000C000C0004DC
:1038D00000040008000000000000000000000000DC
:1038E000000000000000001E001E0000000000009C
:1038F00000000000000000000000000000000000C8
:1039000000000000000000000000000000000000B7
:10391000000C000C00000000000000030003000386
:103920000006000600060006000C000C000C000C4F
:10393000001800180018000000000000001E003FE2
:10394000003380618061806180618061806180611D
:1039500080610033003F001E0000000000000006F0
:10396000000E001E003600260006000600060006B7
:103970000006000600060006000600000000000029
:10398000001E003F8073806180618001000300069B
:10399000000C001800300060807F807F0000000075
:1039A0000000001C003E006300630003000E000ED8
:1039B00000038001800180618073003F001E0000D1
:1039C000000000000006000E000E001E001E001683
:1039D000003600360066807F807F00060006000605
:1039E000000000000000007F007F006000600060B9
:1039F000006E007F80638001800180618073003FE2
:103A0000001E000000000000001E003F80338061A7
:103A10000060006E007F8073806180618061803310
:103A2000003F001E000000000000807F807F8001BA
:103A30000003000300060006000C000C000C000848
:103A4000001800180018000000000000001E003FD1
:103A50008063806180610021001E003F8061806181
:103A600080618061003F001E000000000000001E19
:103A7000003F00738061806180618073803F801DA2
:103A8000800180610073003F001E00000000000004
:103A90000000000000000000000C000C000000000E
:103AA0000000000000000000000C000C00000000FE
:103AB00000000000000000000000000C000C0000EE
:103AC0000000000000000000000C000C00040004D6
:103AD0000008000000000000000080008003000ECD
:103AE000003800600038000E8003800000000000F5
:103AF0000000000000000000000000000000807FC7
:103B0000807F00000000807F807F000000000000B8
:103B10000000000000000000000000000000004065
:103B20000070001C000780010007001C00700040AE
:103B300000000000000000000000001F803FC07176
:103B4000C060C000C00180030007000E000C000C24
:103B50000000000C000C000000000000001E003FF0
:103B6000803180718063806F806D806D806F806731
:103B700000600032003E001C000000000000000E4B
:103B8000000E001B001B001B001B80318031803F9A
:103B9000803F8031C060C060C06000000000000055
:103BA000007C007E0063006300630063007E007E93
:103BB0000063806180618063007F007E0000000000
:103BC0000000001E003F80318061006000600060E6
:103BD00000600060006080618031003F001E0000D6
:103BE00000000000007C007F0063806380618061D2
:103BF000806180618061806100630063007E007C81
:103C0000000000000000807F807F00600060006096
:103C10000060007F007F0060006000600060807FC7
:103C2000807F000000000000807F807F00600060D7
:103C300000600060007F007F006000600060006046
:103C400000600060000000000000001E003F8031A6
:103C500080610060006000608063806380618061DB
:103C60008031803F001E0000000000008061806104
:103C70008061806180618061807F807F8061806100
:103C80008061806180618061000000000000003F71
:103C9000003F000C000C000C000C000C000C000C91
:103CA000000C000C000C003F003F00000000000072
:103CB00080018001800180018001800180018001FC
:103CC0008001806180618073003F001E0000000061
:103CD0000000C0608061006300660066006C0078D0
:103CE000007C00660066006380618061C060000047
:103CF0000000000000600060006000600060006084
:103D0000006000600060006000600060807F807F75
:103D1000000000000000C071C071C07BC07AC06AA2
:103D2000C06AC06EC064C060C060C060C060C06077
:103D3000C06000000000000080718071807980798F
:103D40008079806D806D806D806580678067806719
:103D500080638063000000000000001E003F00330D
:103D6000806180618061806180618061806180614B
:103D70000033003F001E000000000000007E007FB6
:103D800080638061806180618063007F007E00606D
:103D90000060006000600060000000000000001E85
:103DA000003F00338061806180618061806180615B
:103DB000806580670033803F401E000000000000E7
:103DC000007E007F8063806180618063007F007E71
:103DD00000660063006380618061C06000000000D5
:103DE0000000000E001F8031803100300038001EBE
:103DF00000078003806180618031003F001E000069
:103E000000000000C0FFC0FF000C000C000C000C04
:103E1000000C000C000C000C000C000C000C000C42
:103E2000000000000000806180618061806180612D
:103E30008061806180618061806180618073003F0A
:103E4000001E000000000000C060C060C060803143
:103E500080318031001B001B001B001B000E000E78
:103E6000000E0004000000000000C0C0C0C0C0C0C0
:103E7000C0C0C0C0C0CC804C804C805E805280529C
:103E8000807380618061000000000000C0C080601D
:103E900080610033003B001E000C000C001E001F60
:103EA000003B80718061C0C0000000000000C0C005
:103EB0008061806100330033001E001E000C000C86
:103EC000000C000C000C000C000C000000000000B6
:103ED000803F803F8001000300030006000C000CBF
:103EE0000018001800300060807F807F0000000014
:103EF00000000000000000000000000000000000C2
:103F000000000000000000000000000000000000B1
:103F100000000000000000000000000000000000A1
:103F200000000000E003E003E003E003E003E0033F
:103F3000E003E003C003C003C001C001C001C00131
:103F4000C001000000000000E003E003E003000007
:103F500000000000000000003C1E3C1E3C1E3C1EF9
:103F60003C1E3C1E3C1E0000000000000000000043
:103F70000000000000000000000000000000000041
:103F8000000000000000000000000000CE01CE0391
:103F9000DE039E039C039C07FF3FFF7F3807380F1B
:103FA000780F780F780EFFFFFFFFF01EF01CE01C6B
:103FB000E03CE03DE03900000000000000000000AF
:103FC000FC03FE0FEE1FE01EE01EE01EE01EE01FE1
:103FD000E00FE007F003FC01FE01FE01FE01FE011F
:103FE000FE01FE01FE3DFC3FF00FE001E00100009C
:103FF00000000000033E07F78FE78EE79EE3BCE377
:10400000B8E7F8E7F0F7E03FC001FF03FF07F30769
:10401000F30FF31EF33CF338F3787FF03FE000003A
:104020000000000000000000E007F80F780F781F84
:10403000781F781F780FF00FE00F801FC37FC3FB3E
:10404000E7F3F7F1F7F0FFF07FF03EF87F7CFF3FFA
:10405000EF1F00000000000000000000E003E0038C
:10406000E003C003C003C001C000C00000000000A6
:104070000000000000000000000000000000000040
:104080000000000000000000000000000000000030
:104090003F007C00F001E001C003C00780078007FB
:1040A000800F000F000F000F000F000F000F800F98
:1040B00080078007C007C003E001F0017C003F00DB
:1040C0000F000000007E001FC007C003E001F001E8
:1040D000F000F000F80078007800780078007800B0
:1040E0007800F800F000F000F001E001C003C00724
:1040F000001F007E00780000C001E003180C180CBF
:10410000180C180CE003C0010000000000000000C3
:10411000000000000000000000000000000000009F
:10412000000000000000000000000000000000008F
:104130000000000000000000C001C001C001C0017B
:10414000C001C001C001FFFFFFFFC001C001C001ED
:10415000C001C001C001000000000000000000001C
:10416000000000000000000000000000000000004F
:10417000000000000000000000000000000000003F
:104180000000E003E003E003E003E001E001E00100
:10419000C0018003000000000000000000000000DB
:1041A00000000000000000000000FE3FFE3F000095
:1041B00000000000000000000000000000000000FF
:1041C00000000000000000000000000000000000EF
:1041D00000000000000000000000000000000000DF
:1041E00000000000000000000000E003E003E00326
:1041F000E003000000000000000000000F000F00BE
:104200001E001E003C003C0078007800F000F0002A
:10421000E001E001C003C00380078007000F000F2A
:10422000001E001E003C003C0078007800F00000FA
:10423000F007F80F7C1F3E3E1E3C1F7C1F7C0F7852
:104240000F780F780F780F780F780F781F7C1F7C0E
:104250001E3C3E3E7C1FF80FF007000000000000EF
:1042600000000000F000F007F03FF03FF001F00127
:10427000F001F001F001F001F001F001F001F001B6
:10428000F001F001F001F001F001FF3FFF3F0000FD
:104290000000000000000000E00FF83F7C3C3C0004
:1042A0003E003E003E003C003C007C00F800F00177
:1042B000E003C0078007000F001E003E003CFE3FE9
:1042C000FE3F00000000000000000000F00FF81F9B
:1042D0007C1C3E003E003E003C003C00F800F00F1D
:1042E000F80F7C003E001E001E001E001E003E0057
:1042F0007C1CF81FE01F0000000000000000000010
:104300007800F800F800F801F803F807F807780FCC
:10431000781E781E783C78787878FFFFFFFF780069
:104320007800780078007800780000000000000035
:1043300000000000FC1FFC1FFC1F001E001E001ED2
:10434000001E001EE01FF81FFC007C003E003E0027
:104350001E003E003E003C007C1CF81FE01F0000D9
:104360000000000000000000FC01FE078E0F001F8F
:10437000001E003E003C003CF83DFC3F3E7F1F7E9F
:104380000F3C0F3C0F3C0F3C0F3E1F1E3E1FFC0F0F
:10439000F00300000000000000000000FF3FFF3FAE
:1043A000FF3F0F001E001E003C0038007800F000A8
:1043B000F000E001E001C003C0038007800F800F20
:1043C000000F001F001F00000000000000000000A0
:1043D000F807FC0F3E1F1E1E1E3E1E3E1E1E3C1FEB
:1043E000F80FF007F80FFC1E3E3E1F3C1F7C0F7CB1
:1043F0000F7C1F3C3E3FFC1FF00700000000000048
:1044000000000000F007F80F7C1E3E3C1E3C1F7CA5
:104410001F7C1F7C1F7C1F3C3F3EFF1FEF071F00C0
:104420001E001E003E003C00F838F03FE01F000078
:10443000000000000000000000000000000000007C
:1044400000000000E003E003E003E00300000000E0
:1044500000000000000000000000E003E003E003B3
:10446000E003000000000000000000000000000069
:104470000000000000000000E003E003E003E003B0
:104480000000000000000000000000000000E00349
:10449000E003E003E003E001E001E001C00380038A
:1044A00000000000000000000000000003000F00FA
:1044B0003F00FC00F003C00F003F00FE003FC00FB4
:1044C000F003FC003F000F000300000000000000AC
:1044D00000000000000000000000000000000000DC
:1044E0000000000000000000FFFFFFFF00000000D0
:1044F0000000FFFFFFFF00000000000000000000C0
:1045000000000000000000000000000000000000AB
:104510000000000000E000F8007E801FE007F801C6
:104520007E001F007E00F801E007801F007E00F87B
:1045300000E000000000000000000000F01FFC3F51
:104540003E381F381F381E001E003C007800F00067
:10455000E001C003C003C007C00700000000000066
:10456000C007C007C00700000000000000000000F6
:10457000F803FE0F1E1F0F3E7F3CFF78EF79C773D5
:10458000C7F38FF38FF38FF39FF39FF3FF73FF7BDB
:10459000F779003C1C1FFC0FF8030000000000002E
:1045A00000000000000000000000E003E003F0074E
:1045B000F007F007780F780F7C0E3C1E3C1E3E3C47
:1045C000FE3FFF3F1F780F780FF007F007F0000065
:1045D0000000000000000000000000000000F83FA4
:1045E000FC3F3E3C1E3C1E3C1E3C3E3C7C3CF03FA7
:1045F000F83F7E3C1F3C1F3C0F3C0F3C1F3CFE3FE6
:10460000F83F000000000000000000000000000073
:104610000000FF01FF07871F003E003C007C007880
:104620000078007800780078007C007C003E003F35
:10463000831FFF07FF0100000000000000000000D2
:10464000000000000000F07FFC7F7E781F781F785C
:104650000F780F780F780F780F780F780F780F7822
:104660001F781E787E78F87FE07F00000000000051
:1046700000000000000000000000FF3FFF3F003E80
:10468000003E003E003E003E003EFE3FFE3F003E3C
:10469000003E003E003E003E003EFF3FFF3F000068
:1046A0000000000000000000000000000000FF1FEC
:1046B000FF1F001E001E001E001E001E001EFF1F0A
:1046C000FF1F001E001E001E001E001E001E001EFA
:1046D000001E0000000000000000000000000000BC
:1046E0000000FE03FF0F871F003E007C007C007867
:1046F00000F800F87FF87FF80F780F7C0F7C0F3EF2
:104700008F1FFF0FFE0300000000000000000000EC
:104710000000000000001F7C1F7C1F7C1F7C1F7C92
:104720001F7C1F7C1F7CFF7FFF7F1F7C1F7C1F7CEB
:104730001F7C1F7C1F7C1F7C1F7C00000000000072
:1047400000000000000000000000FF3FFF3FE0030A
:10475000E003E003E003E003E003E003E003E00341
:10476000E003E003E003E003E003FF3FFF3F00005E
:104770000000000000000000000000000000FC1F1E
:10478000FC1F7C007C007C007C007C007C007C00AA
:104790007C007C007C007C0078007800F838F03FDA
:1047A000C03F00000000000000000000000000000A
:1047B00000001F3C1E3C3C3C783CF03CE03DE03FB0
:1047C000C03F803FC03FE03FF03DF03C783C7C3C48
:1047D0003E3C1F3C0F3C00000000000000000000B9
:1047E000000000000000003E003E003E003E003E93
:1047F000003E003E003E003E003E003E003E003EC9
:10480000003E003E003EFF3FFF3F00000000000072
:10481000000000000000000000001FF81FFC1FFC4B
:104820003FFE3FFE3FFE7FFF77FF77FFF7F7E7F79B
:10483000E7F3E7F3C7F307F007F007F007F000002E
:1048400000000000000000000000000000000F7CDD
:104850000F7C0F7E0F7F0F7F8F7F8F7FCF7FEF7B50
:10486000EF79FF79FF78FF787F783F783F781F787E
:104870001F780000000000000000000000000000A1
:104880000000F007FC1F3E3E1F7C0F780F780FF8EA
:104890000FF80FF80FF80FF80FF80F780F781F7C4C
:1048A0003E3EFC1FF007000000000000000000007A
:1048B000000000000000FC3FFF3F1F3E0F3E0F3E88
:1048C0000F3E0F3E1F3E3F3EFC3FF03F003E003E8E
:1048D000003E003E003E003E003E000000000000A2
:1048E00000000000000000000000F007FC1F3E3E3A
:1048F0001F7C0F780F780FF80FF80FF80FF80FF8EC
:104900000FF80F780F781F7C3E3EFC1FF8077C00E5
:104910003F000F0003000000000000000000F03F17
:10492000FC3F7E3C3E3C1E3C1E3C3E3C3C3CFC3C3A
:10493000F03FE03FF03DF83C7C3C3E3C1E3C1F3CE1
:104940000F3C00000000000000000000000000001C
:104950000000FC07FE1F0E3E003C003C003C003EF9
:10496000C01FF80FFE037F001F000F000F001F2065
:104970003E3CFC3FF01F0000000000000000000073
:10498000000000000000FFFFFFFFE003E003E00382
:10499000E003E003E003E003E003E003E003E003FF
:1049A000E003E003E003E003E00300000000000098
:1049B000000000000000000000000F7C0F7C0F7C56
:1049C0000F7C0F7C0F7C0F7C0F7C0F7C0F7C0F7C8F
:1049D0000F7C0F7C1E3C1E3C3E3EFC1FF00700007F
:1049E000000000000000000000000000000007F0D0
:1049F00007F007F80F780F7C1E3C1E3C1E3E3C1E45
:104A00003C1F781F780FF80FF007F007F007E0035E
:104A1000E0030000000000000000000000000000B3
:104A2000000003E003F003F007F0E7F3E7F3E7F338
:104A3000E773F77BF77FFF7F7F7F7F7F7E7F7E3F00
:104A40003E3E3E3E3E3E00000000000000000000F2
:104A500000000000000007F80F7C1E3E3E3E3C1F99
:104A6000F80FF007E007E003E003F007F80F7C0F12
:104A70007C1E3E3C1F780F780FF000000000000005
:104A80000000000000000000000007F807780F7C1D
:104A90001E3C1E3E3C1F780FF80FF007E003E003BA
:104AA000E003E003E003E003E003E003E0030000D1
:104AB0000000000000000000000000000000FF7F78
:104AC000FF7F0F001F003E007C00F800F000E001B7
:104AD000E003C007800F000F001E003E007CFF7F38
:104AE000FF7F000000000000000000000000000048
:104AF0000404040000080000000800000800000092
:104B000008000000284B00080000002020000000E2
:104B10008C010008484B000820000020C014000051
:104B2000A8010008000000000B1100001A3700085F
:104B3000101A0000F03E00080024F40001000000FC
:084B400010000000000000005D
:04000005080001519D
:00000001FF
