:020000040800F2
:1000000068150020FD010008192600087510000879
:100010001526000839070008D52C0008000000004C
:100020000000000000000000000000007D2B000820
:10003000AD0700080000000055280008D92B000873
:10004000170200081702000817020008170200082C
:10005000170200081702000817020008170200081C
:1000600025090008170200081702000817020008F7
:100070001702000817020008170200088D07000881
:1000800017020008170200081702000817020008EC
:1000900017020008170200081702000817020008DC
:1000A00017020008170200081702000817020008CC
:1000B0001702000817020008552C00081702000854
:1000C00017020008170200081702000817020008AC
:1000D000170200081702000817020008170200089C
:1000E00005090008170200081702000800000000B8
:1000F0000000000000000000000000000000000000
:1001000000000000000000007D2C0008170200081D
:100110001702000817020008A52C000817020008A3
:10012000170200081702000817020008170200084B
:10013000170200080000000000000000170200087D
:10014000170200081702000817020008170200082B
:1001500000F002F800F042F80AA090E8000C824497
:100160008344AAF10107DA4501D100F037F8AFF274
:10017000090EBAE80F0013F0010F18BFFB1A43F085
:10018000010318472858000048580000103A24BFBF
:1001900078C878C1FAD8520724BF30C830C144BFEC
:1001A00004680C607047000000230024002500262E
:1001B000103A28BF78C1FBD8520728BF30C148BFCA
:1001C0000B607047642900F0F380752900F0F0801F
:1001D000002070471FB51FBD10B510BD00F071FAAB
:1001E0001146FFF7F7FF02F095FF00F08FFA03B416
:1001F000FFF7F2FF03BC00F097FA000009488047C0
:1002000009480047FEE7FEE7FEE7FEE7FEE7FEE7F8
:10021000FEE7FEE7FEE7FEE704480549054A064B10
:1002200070470000512C00085101000868030020AD
:1002300068150020680500206805002053EA020CBC
:1002400000F069802DE9F04B4FF00006002B1FBF36
:10025000B3FA83F503FA05F424FA05F65E4012BFFB
:100260001643B2FA82F502FA05F4C5F120051EBF65
:1002700022FA05FC44EA0C04203556EA044C4FEA05
:10028000144418BF641C4FF000084FF0000990425E
:1002900071EB030C39D3002919BFB1FA81F701FAC8
:1002A00007F6B0FA80F700FA07F6C7F120071EBF7D
:1002B00020FA07FC46EA0C062037B6FBF4FCA7EB55
:1002C0000507103F07F01F0BCBF120062CFA06F6AE
:1002D0000CFA0BFB44BFB3460026202FA4BF5E469A
:1002E0004FF0000B5BEA060C08BF4FF0010B19EB57
:1002F0000B0948EB0608ABFB027C06FB02CC0BFBB0
:1003000003CCC01B71EB0C01C1E70B460246414612
:100310004846BDE8F08B13B5084318BF4FF0FF30D7
:100320000146AFF30080BDE81C4070470FB41CB518
:100330000C0007AA009001D02044401E074B7B44CC
:1003400069460190069800F09CF9002C03D069469C
:10035000002000F0A9F91CBC5DF814FB710300003B
:1003600070B5044685690068C10601D5302600E0F5
:100370002026C00707D070BDD4E901213046904740
:10038000206A401C20626D1EF6D570BD70B5044613
:1003900085690078C00707D170BDD4E9012120200C
:1003A0009047206A401C20626D1EF6D570BD00008B
:1003B0002DE9F0410646002410687529314616A53E
:1003C00010D0AFF30080002802DA404213A507E006
:1003D00031688A0701D512A502E0490704D511A5A5
:1003E000012401E0AFF3008000210A2206F1240776
:1003F00009E0B0FBF2FCB0FBF2F302FB1C00303072
:1004000078541846491C0028F3D123462A46304622
:10041000BDE8F04100F0D6B8000000002D0000005B
:100420002B000000200000002DE9F05F8946044603
:100430004FF0000ADFF824B1FB44C0F820A02046AA
:10044000E168884700287DD0252806D0D4E901211D
:100450009047206A401C2062F1E700255F46204655
:10046000E16888472028064607DB312E05D2B819F7
:1004700010F8200C08B10543F1E7A80701D525F0D5
:100480000405C4F81CA00027C4F818A02A2E09D01F
:10049000304603F022FE38B304EB8708303EC8F83C
:1004A000186019E059F8041B204604EB870291619B
:1004B000E1688847012F064618D1E069002820DA54
:1004C00025F020051DE0D8F8180000EB800006EBB1
:1004D00040003038C8F818002046E16888470646D2
:1004E00003F0FBFD0028EED1012F0AD02E2E08D1FB
:1004F0002046E16888477F1C0646022F45F020050C
:10050000C4DBA069002803DA404245F00105A06180
:10051000E80701D025F01005A6B1A6F14100192881
:1005200002D8203645F400654A463146204625600B
:100530004D46FFF747FE60B1012807D0ED1D25F0BD
:10054000070000E007E000F1080978E705F1040979
:1005500075E730467AE7206ABDE8F09FAC3C0000C2
:1005600002F0FF0343EA032242EA024200F002B82B
:100570004FF0000200B5134694469646203922BF3C
:10058000A0E80C50A0E80C50B1F12001BFF4F7AF87
:10059000090728BFA0E80C5048BF0CC05DF804EB69
:1005A000890028BF40F8042B08BF704748BF20F8D7
:1005B000022B11F0804F18BF00F8012B70477047D5
:1005C000704770472DE9F0470D469946924604461C
:1005D00000F124080168880604D5E06921F01001C3
:1005E000216000E00120A84201DD471B00E0002758
:1005F000A1697A1902EB0900081AA0612078C006E7
:1006000002D42046FFF7ACFE002608E0D4E9012121
:100610001AF806009047206A401C761C20624E455E
:10062000F4DB2078C0060AD52046FFF799FE06E0E5
:10063000D4E9012130209047206A401C2062381EF6
:10064000A7F10107F4DC07E0D4E9012118F805005F
:100650009047206A401C2062281EA5F10105F3DCAA
:100660002046FFF793FE2078000602D50220BDE861
:10067000F0870120FBE7000001694A1C026108784D
:10068000704700B58FB0CDE90131002105910549D2
:100690007944CDE9031011466846FFF7C5FE0FB057
:1006A00000BD0000E5FFFFFF0A6802F8010B0A60C9
:1006B0007047D1E900239A4202D2531C0B6010709C
:1006C0007047754600F02CF8AE4605006946534663
:1006D00020F00700854618B020B5FFF79DFDBDE866
:1006E00020404FF000064FF000074FF000084FF099
:1006F000000BAC46ACE8C009ACE8C009ACE8C009E6
:10070000ACE8C00921F007018D46704710B50446DA
:10071000AFF300802046BDE81040FFF768BD000041
:10072000004870472800002001491820ABBEFEE7B2
:100730002600020070470000FEE7000080B500F0D0
:1007400053F840F25F30C2F20000017841F002013C
:10075000017080BD80B500F073F840F25F30C2F2E6
:100760000000017841F00401017040F28800C2F2FB
:100770000000418900291CBF0139418180BD000072
:1007800080B500F027FD03F0B5FA80BD80B500F01C
:1007900077FD012802D1FFF7F3FF80BD00F078FD5F
:1007A000012808BF00F02EFD80BD0000704700004A
:1007B000B0B540F20045C4F200050446284601F0F9
:1007C00029F92846002101F0D9FAA188284601F02C
:1007D000C9FA208801F0BAFA2846102101F002F97E
:1007E000284601F039F9B0BD10B540F20044C4F21A
:1007F0000004204601F00EF92046102101F0ECF82B
:1008000010BD0000B0B542F60044C4F20104054634
:10081000204601F0FFF82046002101F0AFFAE988F8
:10082000204601F09FFA688801F088FA20460121ED
:1008300001F0D8F801F006F9204601F00DF9B0BD3D
:1008400010B542F60044C4F20104204601F0E2F87B
:1008500001F0D6F82046012101F0BEF810BD0000DD
:1008600070B540F20044C4F2000404F50066054689
:10087000304601F0CFF82989304601F073FA30464E
:10088000002101F07BFA304601F0E6F804F58066BD
:10089000304601F0BFF83046002101F06FFA3046D3
:1008A00001F0DAF8204601F0B5F804F59436304648
:1008B00001F0B0F82046002101F060FA3046002136
:1008C00001F05CFAA988204601F04CFAE98830462C
:1008D00001F048FA288801F039FA688801F02EFA08
:1008E0002046102101F07EF83046012101F07AF80F
:1008F00001F0A8F8204601F0AFF8304601F0ACF85E
:1009000070BD000080B54FF4805000F0A3FD0028BA
:1009100008BF80BD4FF4805000F006FD01F0EEFAF4
:1009200080BD000080B5042000F094FD002808BFC1
:1009300080BD042000F0F8FC02F01CF880BD00002F
:10094000EFF3108072B600BFFEE7000080B501F043
:100950009BF880BD40F26030C2F200000068704732
:1009600040F21D0040F26031C2F20000C2F200010C
:1009700000780A68104408607047000080B542F2B1
:100980000000C4F20200016841F010010160032080
:1009900000F062F80F2000F005F800F02BF80020BE
:1009A00080BD0000B0B540F21D02C2F2000240F26C
:1009B00018011278C2F200014FF47A730968B3FB90
:1009C000F2F20446B1FBF2F1084600F04FFB0F2CA7
:1009D0004FF001050CD858B94FF0FF3021460022E6
:1009E000002500F029F840F22000C2F20000046067
:1009F0002846B0BD82B041F21800C4F2020001687E
:100A0000022241F001010160016801F00101019140
:100A10000199416841F080514160406800F0805088
:100A2000009000980420C4F20100016862F31A618A
:100A3000016002B07047000070B514460D460646CE
:100A400002F082F92946224601F000FE01463046B6
:100A500002F09AF970BD000080B502F0A7F980BDE0
:100A60002DE9F04381B0002800F0898042F20008AF
:100A7000C4F202080446D8F800000D4600F0070052
:100A800088420CD2D8F8000020F007002843C8F8AC
:100A90000000D8F8000000F00700A8426FD12068DD
:100AA00041F204098107C4F2020917D5410705D5AF
:100AB000D9F8001041F4E061C9F80010010705D52C
:100AC000D9F8001041F46051C9F80010D9F80010AD
:100AD000A26821F0F0011143C9F80010C00745D108
:100AE000D8F8000000F00700A8420CD9D8F80000A0
:100AF00020F007002843C8F80000D8F8000000F0F4
:100B00000700A8423BD12068410707D5D9F800105B
:100B1000E26821F4E0611143C9F80010000708D52C
:100B2000D9F80000216920F4605040EAC100C9F8FA
:100B3000000000F04FF8D9F8001044F2F902C1F3B8
:100B40000311C0F60002515C40F2180220FA01F1D4
:100B500040F22000C2F200000068C2F20002116000
:100B6000FFF720FF002001B0BDE8F0836068022895
:100B700009D0012829D159F8041C890307D4012080
:100B800001B0BDE8F08359F8041C8901F7D5D9F804
:100B9000001021F003010843C9F80000FFF7DAFE56
:100BA000064641F2883700BFD9F80000616800F0BE
:100BB0000C00B0EB810F93D0FFF7CCFE801BB84246
:100BC000F2D9032001B0BDE8F08359F8041C89076D
:100BD000D5D5DCE710B541F22C01C4F2020151F881
:100BE000283C03F00C00082841F20020C0F27A00F3
:100BF00018BF10BDC3F3834419A2125DDB0305D4F3
:100C000040F60010C0F23D00504310BD0B680FF2DB
:100C1000600C03F00F0E0B681CF80EC0DB0303D44E
:100C20005043B0FBFCF013E00B680968C3F30313F7
:100C300003F1010E42F20043C1F30321C0F2F403B9
:100C400001FB0030A0FB0201AEFB0C23FFF7F6FA1C
:100C5000A4F10D01B1FA81F14909C84010BD00BFEE
:100C6000000004050607080900000000000D000050
:100C70000102030405060708090A0B0C0D0E0F10EC
:100C80002DE9F04182B0002800F0A38104460078ED
:100C900041F20006C007C4F2020644D0706800F0BA
:100CA0000C00042805D1306880033CD5A068D0BB77
:100CB0008FE1706800F00C00082802D17068C00352
:100CC000F1D4A5682DB1B5F5A02F0AD0B5F5803FB8
:100CD0000BD0306820F480303060306820F4802001
:100CE00006E0306840F480203060306840F48030A6
:100CF0003060FFF72FFE002D054611D030688003CD
:100D000011D4FFF727FE401B6428F7D914E100BF78
:100D1000FFF720FE401B64284FF0030000F295808F
:100D200030688003F4D42078800719D5706810F0FB
:100D30000C0F07D0706800F00C00082827D17068ED
:100D4000C00324D43068800703D56069012840F0CF
:100D500040813068A16920F0F80040EAC1003060AD
:100D6000207800073FD5E06948B36820C4F24220EC
:100D70000121C0F81814FFF7EDFD0546706A8007E1
:100D80002FD4FFF7E7FD401B0228F7D9D4E06069B4
:100D9000002840F26800C4F2422000F0A280012145
:100DA00040F8681CFFF7D6FD054600BF3068800795
:100DB000CFD4FFF7CFFD401B0228F7D9BCE0682055
:100DC000C4F242200021C0F81814FFF7C3FD054605
:100DD000706A800707D5FFF7BDFD401B0228F7D9D1
:100DE000AAE001F039FD2078400731D4E06A0028FC
:100DF00000F0D7807168C90308D5716801F00C0153
:100E0000082903D1F16AC90300F1E380022852D115
:100E10003068C00006D5F06A616B00F0F0008842CF
:100E200040F0D7806827C4F2422700203860FFF7DF
:100E300091FD05463068000140F19680FFF78AFD7C
:100E4000401B64284FF00300F4D902B0BDE8F081E4
:100E5000F06910F0805808D1F06940F08050F061DE
:100E6000F06900F080500190019847F20007C4F249
:100E700000073868C00510D4386840F480703860C6
:100E8000FFF768FD054600BF3868C00505D4FFF7C9
:100E900061FD401B6428F7D94EE025691DB1052D81
:100EA00032D0012D34D0306A20F001003062306A37
:100EB00020F004002FE0F06A002120F48030F0627E
:100EC0006820C4F242200160FFF744FD054600BFE0
:100ED0003068000165D5FFF73DFD401B6428F7D958
:100EE0002AE0002140F8681CFFF734FD054600BFEA
:100EF000306880077FF534AFFFF72CFD401B0228D8
:100F00004FF00300F4D9A0E7306A40F004003062EB
:100F1000306A40F001003062FFF71CFD002D0546ED
:100F200041F2883714D000BF306A800713D4FFF72E
:100F300011FD401BB842F7D9032002B0BDE8F08193
:100F4000FFF708FD401BB8424FF003003FF67DAFAE
:100F5000306A8007F4D4B8F1000F7FF447AFF0692E
:100F600020F08050F06141E7F06AD4E90C2120F0D4
:100F7000F0000843F062F06A20F470601043F06201
:100F800001203860FFF7E6FC054600BF306800012D
:100F900007D4FFF7DFFC401B64284FF00300F5D9AE
:100FA00053E7256A8DB1706800F00C00082814D151
:100FB000012D0ED07068616A00F480328A4208D137
:100FC000A16A00F47010884203D1002002B0BDE88D
:100FD000F081012002B0BDE8F0816827C4F2422709
:100FE000002047F8080CFFF7B5FC022D05460BD191
:100FF0003068800113D5FFF7ADFC401B02284FF08D
:101000000300F5D921E700BF30688001DDD5FFF787
:10101000A1FC401B02284FF00300F5D915E7606AD8
:10102000B0F5803F09D1F16A6268E3681143F1626B
:10103000F16A21F00F011943F1627168A26A21F48B
:101040007411104308437060012047F8080CFFF743
:1010500081FC044630688001B7D4FFF77BFC001B9D
:1010600002284FF00300F5D9EFE6000080B501F04B
:101070009BFD80BDFEE70000B0B540F600040125F1
:10108000C4F20104C0F2014504F50060294600F0F5
:1010900087FA05F10311204600F082FAB0BD000086
:1010A00081B041F21400C4F20200016841F0010174
:1010B0000160006800F001000090009801B07047E6
:1010C00081B041F21C00C4F20200016841F4001139
:1010D0000160006800F400100090009801B07047B3
:1010E00081B041F21C00C4F20200016841F4804169
:1010F0000160006800F480400090009801B07047E3
:1011000081B041F21C01C4F202010A6802430A6084
:10111000096808400090009801B0704781B041F222
:101120001C00C4F20200016841F4802101600068E3
:1011300000F480200090009801B0704781B041F227
:101140001801C4F202010A6802430A6009680840F3
:101150000090009801B0704781B041F21800C4F2CD
:101160000200016841F008010160006800F0080019
:101170000090009801B0704781B041F21800C4F2AD
:101180000200016841F008010160006800F00800F9
:101190000090009801B0704781B041F21801C4F28C
:1011A00002010A6802430A6009680840009000983A
:1011B00001B0704781B041F21800C4F2020001682A
:1011C00041F010010160006800F0100000900098EC
:1011D00001B070470420C4F202004FF48031016076
:1011E000704700000420C4F202004FF40031016097
:1011F000704700000420C4F202004FF40021016097
:10120000704700000420C4F202004FF40021016086
:10121000704700006022102943F60C01C4F202025C
:10122000C4F2000119BF1060516050601160704736
:101230005820C4F20200016821F0010101607047EA
:101240005820C4F20200016841F0010101607047BA
:101250005820C4F20200016841F0020101607047A9
:101260005820C4F20200016841F008010160704793
:101270005820C4F20200006844F210010840704790
:101280000020C4F202000068C0F340407047000034
:101290000020C4F202000068C0F3C04070470000A4
:1012A0005820C4F20200016821F4405101607047E7
:1012B0005C20C4F202000168842262F30F01016025
:1012C000704700005820C4F20200016844F2100286
:1012D00091431031016070475820C4F20200016848
:1012E00041F08001016070475820C4F2020001689B
:1012F00021F44061016070475820C4F20200016887
:1013000021F02001016070475820C4F202000168FA
:1013100021F04001016070475820C4F202000168CA
:1013200021F440710160704740F21441C4F20101A0
:101330000860704740F20441C4F201010A6822EAE1
:10134000000008607047000040F20C41C4F2010147
:101350000A6822EA000008607047000040F200417D
:10136000C4F201010A6822EA000008607047000028
:1013700040F20841C4F201010A6822EA0000086054
:101380007047000040F20441C4F201010A681043B2
:101390000860704740F20C41C4F201010A68104332
:1013A0000860704740F20041C4F201010A6810432E
:1013B0000860704740F20841C4F201010A68104316
:1013C00008607047B0B501790446006861B198B112
:1013D0006179022913D0012914D0D1B9FFF7AAFFEE
:1013E0002068FFF7DFFF12E0FFF7B8FF2068FFF784
:1013F000A1FF00252846B0BD00252846B0BDFFF757
:10140000D1FF01E0FFF7AAFF2068FFF7BBFF00252F
:1014100000E00125A07903280CD8DFE800F00203E2
:101420000E12E7E72068FFF78FFF2068FFF7C2FF83
:101430002846B0BD01252846B0BD2068FFF798FFBB
:1014400002E02068FFF7B6FF2068FFF7A3FF2846F9
:10145000B0BD000040F21441C4F20101096801402E
:10146000081AB0FA80F04009704700000420C4F266
:101470000100016841F0E06141F002010160704744
:101480000420C4F20100016841F0E06141F0100164
:1014900021F020010160704780B540F2080CCAB20B
:1014A000C4F2010C5CF822304FEA114E23EA1141DC
:1014B0009EFAAEF3B3FA83F3984008434CF8220047
:1014C00080BD00002DE9F047B1F801700C4697FA95
:1014D000A7F1B1FA81F537FA05F133D0804640F231
:1014E00001194FF0011A03E0013537FA05F029D050
:1014F00027FA05F0C007F7D0B5F108000AFA00F0A6
:1015000040F08066606838BF09FA05F6082804D103
:1015100022694046314600F099F8626840463146FB
:1015200000F066F8606840F008000928DCD1A26885
:101530004046314600F098F8E2684046314600F0F7
:101540006BF8D1E70020BDE8F08700008068C1F3A8
:101550000F210840401AB0FA80F04009704700009F
:1015600041F20800C4F201000068C0F30030704787
:10157000C1F30F2141617047C1F30F2141617047F1
:1015800040F61441C0F30F20C4F201010860704717
:1015900040F61440C4F201000221016070470000CF
:1015A000C1F30F210161704740F61041C0F30F20D5
:1015B000C4F201010860704740F61041C0F30F20EB
:1015C000C4F20101086070470A0E91FAA1F1B1FA64
:1015D00081F152F800C089000F238B402CEA030CE4
:1015E000082303FA01F141EA0C0111507047000091
:1015F00080B54FEA116E91FAA1F1B1FA81F15EF86E
:1016000000C089000F238B402CEA030302FA01F18A
:1016100019434EF8001080BD80B54FEA116E91FA63
:10162000A1F1B1FA81F15EF800C0890004238B407A
:101630002CEA030302FA01F119434EF8001080BDB1
:10164000C26822EA1121C16070470000C3684FEAF6
:10165000112C23EA11219CFAACF3B3FA83F39A40DC
:101660001143C1607047000080B54FEA116E91FAD6
:10167000A1F1B1FA81F15EF800C0890003238B402B
:101680002CEA030302FA01F119434EF8001080BD61
:10169000026822F48062114301607047F0B54DF694
:1016A000836CC4F21B3CA1FB0CCE4FEA9E4C4FF462
:1016B00096740CFB04FC44F6D354C1F26204ACFBF8
:1016C000044C446848F2A06724F03F0444EA9E4476
:1016D0004460046AC0F201077E1C4FEA9C1524F0A6
:1016E0003F04B24238BF4FEA9E456E1C2643BA42C1
:1016F00006620DD91927002B08BF03277A43B1FBD7
:10170000F2F10A0508BF0121194341F4004107E045
:101710005200B1FBF2F140F6FC72114208BF042105
:10172000C2694CF6FF739A431143C161F0BD0000DA
:10173000016821F0010101607047000045F200409E
:10174000C4F20000016821F0400101607047000010
:1017500045F20C40C4F20000016821F00101016073
:101760007047000045F20040C4F20000016841F0FB
:101770000101016070470000016841F00101016052
:101780007047000045F20040C4F20000016821F0FB
:101790008001016070470000B0B584B00D4604467A
:1017A000FFF7C6FF684600F053F80299D5E9012318
:1017B0002046FFF773FFE9686A69204600F014F8D5
:1017C0002968204600F00AF82046FFF7D5FF29696E
:1017D0002046FFF75DFF002004B0B0BD026822F094
:1017E0001A02114301607047D0F808C048F2FF3375
:1017F0002CEA0303114319438160704745F20C4002
:10180000C4F20000016821F0FE0101607047000091
:1018100041F20400C4F20200006800F0F0007047DA
:1018200041F20400C4F20200006800F4E060704776
:1018300041F20400C4F20200006800F460507047F6
:1018400041F20400C4F20200006800F00C0070478E
:1018500010B5044601F040F8206001F013F8606014
:1018600001F01EF86168A060084601F027F8E0600A
:1018700010BD000041F22C00C4F20200006800F02C
:10188000F000704741F22C00C4F20200006800F43E
:101890007060704741F20400C4F202000168806A7F
:1018A00001F4803100F4803041EA001070470000FC
:1018B00041F20400C4F20200006800F470107047A6
:1018C00041F22C00C4F20200006800F00F007047E3
:1018D00043F60000C4F20000016841F040010160DD
:1018E0007047000043F60400C4F20000016841F0B4
:1018F00002010160704700002DE9F04381B00D4600
:10190000044600F03DF808B1012029E020684FF6B8
:10191000BF7120EA010C95E80E4205F1140841EA76
:101920000C011143194398E8C00141EA090141EA59
:101930000E013143286A394341EA0801014321601D
:101940006168B0F5005F21F0040141EA1641616071
:1019500005D1696A204600F017F8002000E0002059
:10196000E16921F40061E16101B0BDE8F0830000AC
:1019700043F60800C4F200000068C0F3400070475E
:101980000068C0F38010704789B2016170470000A1
:1019900043F60C01C4F200010870704780B58A68F4
:1019A0008446087BD1E900E322F47C42104323F40F
:1019B000784210432EF47042CB891043D1E90421C0
:1019C0006FF35F3322F44042104318430143002079
:1019D000CCF8441080BD0000026A22EA01010162D5
:1019E00070470000026A1143016270476FF0010105
:1019F00001617047016821F08001016070470000BB
:101A000042F64440C4F20100016821F40041016043
:101A100070470000016821F001010160704700007B
:101A2000C16821F48041C16070470000C16821F0A5
:101A30004001C16070470000816821F08001816031
:101A40007047000042F64440C4F20100016841F4CE
:101A50000041016070470000016841F00101016030
:101A600070470000C16841F00101C160704700008B
:101A7000816841F08001816070470000416941F058
:101A800001014161704700002420C4F20000006899
:101A900070470000012806D0042806D010280CBF8B
:101AA0000220062002E0002000E0012045F694110B
:101AB000C0F6000145F69B12095C40F2180CC0F616
:101AC0000002C4F2000C105C51F80C30032282407A
:101AD00023EA0202012303FA00F0104341F80C004C
:101AE0007047000010B5012808D0042809D010283C
:101AF0000CBF4FF0020E4FF0060E04E04FF0000E48
:101B000001E04FF0010E45F69412C0F6000245F6D2
:101B10009B1012F80E2040F2180CC0F60000C4F220
:101B2000000C10F80E0052F80C40F0238340090C12
:101B300024EA030301FA00F0184342F80C0010BD38
:101B4000012806D0042806D010280CBF0220062049
:101B500002E0002000E00120202106A3C4F20001E1
:101B6000185C0A680A2303FA00F022EA0000086001
:101B7000704700BF00020406080A0C00012806D0C6
:101B8000042806D010280CBF0220062002E0002006
:101B900000E0012045F69411C0F6000145F69B12C5
:101BA000095C40F2180CC0F60002C4F2000C105C94
:101BB00051F80C300C2202FA00F023EA000041F840
:101BC0000C00704770B540F2FF720D460446006885
:101BD000C4F2000240F6000142F600469442C4F20C
:101BE0000001C4F2010606DD8C420DD0B4420BD0D8
:101BF00040F6004304E0B4F1804F05D040F20043CA
:101C0000C4F200039C4203D16B6820F070001843BB
:101C1000944206DD8C420DD0B4420BD040F6004118
:101C200004E0B4F1804F05D040F20041C4F200015D
:101C30008C4203D1E96820F4407008432060A96811
:101C4000204600F091F82988204600F0A3F8B4421D
:101C500002D1286900F0A0F82046FFF70FFF00200E
:101C600070BD0000006900F001007047012906D036
:101C7000042906D010290CBF0221062102E0002110
:101C800000E0012145F69412C0F60002525C1044B7
:101C900045F6A212C0F60002515C0422836902FAE2
:101CA00001F123EA0101816170470000012906D09A
:101CB000042906D010290CBF0221062102E00021D0
:101CC00000E0012145F69412C0F60002525C104477
:101CD00045F6A212C0F60002515C0822836902FA9E
:101CE00001F119438161704780B50346FF294FF028
:101CF000010009DC012914D010291DD11846114614
:101D000000F0F8FC002080BDB1F5807F0FD0B1F568
:101D1000805F18BF80BD1846114600F06FFD00209F
:101D200080BD1846114600F0A7FC002080BD184673
:101D3000114600F021FD002080BD000042F6344134
:101D4000C4F20101086070474163704740F23841B6
:101D5000C4F200010860704781637047C163704737
:101D600001647047C1627047C1627047826844F283
:101D700007039A4311438160704700004162704736
:101D80000820C4F200000168012262F30201016030
:101D9000704700008162704742F63041C4F2010191
:101DA00008607047826822F07002114381607047BA
:101DB000426822F0700211434160704744F61000FF
:101DC000C4F20000016821F490410160416821F0F3
:101DD0002A0141607047000044F60C00C4F2000084
:101DE000016841F40051016070470000B0B584B053
:101DF0000D46044600F052F810B1012004B0B0BD09
:101E0000E06841F20C6120EA010CD5E90121D5E935
:101E1000033042EA0C021A431043E060204600F00F
:101E200067F86969204600F05DF86846FFF710FD25
:101E300044F6FF30C4F2000084424FF0000113DD8D
:101E400044F60040C4F2000084421BD045F200007A
:101E5000C4F20000844215D043F60000C4F2010031
:101E6000844208BF03990EE044F20040C4F200002F
:101E7000844207D044F60000C4F20000844208BF48
:101E8000029900E002990029B7D02A68002AB4D04C
:101E9000204600F007F8002004B0B0BDC068C0F3D1
:101EA00040307047192359439200B1FBF2F148F2D8
:101EB0001F5CC5F2EB1CA1FB0C3252096FF06303EF
:101EC00002FB0311322303EB0111A1FB0C13F021E0
:101ED00001EA531101EB0211C3F3431289B2114419
:101EE00081607047426922F440721143416170473A
:101EF000026922F44052114301617047B0B540F6C7
:101F000000040425C4F20104C0F204452046294619
:101F1000FFF746FB40F25F30C2F20000017801F0AB
:101F2000FE010170007805F10411C00703D12046BD
:101F3000FFF71EFB02E02046FFF732FB2046294652
:101F4000FFF716FBB0BD000080B5FFF7A9F800F061
:101F5000F3FE00F065FB00F007FF00F0CDFE80BD52
:101F60002DE9F04F89B04FF0000B2020CDF81CB0C8
:101F7000CDE905BBCDE903BBCDE901BBFFF7DEF839
:101F80001020FFF7DBF804204FF00409FFF7D6F824
:101F90000820FFF7D3F841F2000AC4F2010AAAF5BB
:101FA0008065284640F2077140F20778FFF7E4FAAF
:101FB0000321C0F203415046FFF7DEFA1020C0F2C1
:101FC000104000F17C16AAF5006738463146FFF74D
:101FD000D3FA01AC50462146CDE90189FFF772FAE8
:101FE00040F20440CDE9010938462146FFF76AFA7C
:101FF000CDF804804FF001084FF002092846214631
:10200000CDF80880CDE9039BFFF75CFA0325C0F209
:10201000034501A880E8200B50462146FFF752FAFD
:1020200001A880E8400B38462146FFF74BFAA5F19E
:102030007D710220FFF730FA03204FF07061FFF747
:102040002BFA4FF4805006AC06902046ADF81C8069
:102050008DF81E80FFF7B6F9042006902046ADF8F3
:102060001C808DF81E80FFF7ADF91025C0F21045D9
:1020700050462946FFF7E4FA0AF58064204640F20C
:102080000441FFF7DDFA50462946FFF79DFA204646
:1020900040F20441FFF798FA00F046FE00F0BEFA65
:1020A0000146082000F058FE082000F015FE00F060
:1020B0003BFE00F0B3FA0146282000F04DFE282038
:1020C00000F00AFE09B0BDE8F08F0000B0B58CB09A
:1020D00000250B95CDE90955CDE90755CDE9055505
:1020E000CDE90355CDE90155FFF736F80320C0F2DD
:1020F0000340019009200290032045F20044039020
:102100000420C4F20004049004F5384001A9FFF74C
:10211000D9F9FFF7ABF9FEF7D3FFFFF719FBFFF78C
:102120000DFBFFF72FFB41F68020C0F20600CDE942
:1021300007054FF480600A904FF480400B9006A989
:10214000204606950995FFF727FBFFF757FBFFF79A
:1021500009FB206840F480602060E06820F0FE0009
:10216000E0600CB0B0BD000070B590B006AC204689
:102170002821FEF7FDF900260596CDE90366CDE995
:102180000166FEF7ADFFFEF7F7FFA020C0F2A0400A
:102190000190092043F6000502900320C4F20005D7
:1021A000CDE9030605F5544001A9FFF78BF9FFF7C8
:1021B00089F8FFF775F8FFF79FF8FFF7A5F8FFF725
:1021C0008BF8FFF7A9F8FFF78FF84FF48270CDE98D
:1021D00007064FF400700B900820CDE90C060A208A
:1021E0000F90284621460696CDE909660E96FFF720
:1021F00083FBFFF71DF8FEF7F5FFFEF7FBFFFFF788
:1022000071FBFFF725F8FFF72BF8FFF761FB10B024
:1022100070BD0000B0B598B000254FF40060CDE966
:102220001655CDE91455CDE91255CDE91055CDE936
:102230000E55CDE90C55CDE90A55CDE90855CDE946
:102240000655CDE90455CDE90255CDE90055FEF717
:10225000A3FF4720ADF84C0040F2E73042F60044BF
:10226000CDE91505FF20C4F20104179013A92046FB
:102270001495FFF7A7FC2046FFF7BCFB2046002182
:10228000FFF774FD20460121FFF710FD7020CDE916
:102290000B0540F2F310CDE90E050BAA20460121F3
:1022A0000D95CDE910551295FFF71EFD2046012131
:1022B000FFF7DCFC20464021FFF77AFD2046FFF7C0
:1022C000D7FB4FF40050CDE9090505A92046ADF82C
:1022D0002250CDE9055507958DF82050FFF75EFB9C
:1022E0000420FEF759FF0120C0F2014000900920B0
:1022F00001900220CDE90205A4F510506946FFF7D0
:10230000E1F818B0B0BD000010B58AB0002401207B
:10231000CDE90844CDE90644CDE90444CDE90244C1
:10232000CDE90044FEF7ECFE0420FEF735FF40F255
:10233000033000900820019040F60000C4F2010034
:1023400069460494FFF7BEF8FFF71AFD0120FFF776
:10235000A1FB0120FFF712FC01204FF48011FFF7D1
:10236000C1FB0120FFF7ECFB1020FFF793FB1020CF
:10237000FFF704FC10204FF40011FFF7B3FB10200F
:10238000FFF7DEFB4FF6FF70CDE9070405A94FF01C
:102390008040ADF814400694FFF714FC4FF08040E5
:1023A000FFF728FB4FF080400021FFF701FD4FF0C1
:1023B0008040FFF741FB0AB010BD000070B592B03D
:1023C00000250220CDE91055CDE90E55CDE90C557B
:1023D000CDE90A55CDE90855CDE90655CDE90455B5
:1023E000CDE90255CDE900550226FEF789FE4720CA
:1023F00040F20044ADF8340040F2E730C4F200048B
:10240000CDE90F050DA920460E95FFF7DBFB204611
:10241000FFF7F0FA20461021FFF748FC7020CDE9C5
:10242000050540F2F310CDE9080505AA2046102164
:102430000795FFF759FC20461021FFF717FC2046AF
:102440005021FFF7B5FC2046FFF712FB0420FEF7F2
:10245000A3FE48F2800000900920CDE9010604F5B2
:10246000823069460395FFF72DF812B070BD000069
:1024700010B586B0002404200594CDE90344CDE9CD
:102480000144FEF73DFE40F23F60ADF80440029487
:10249000CDE9030440F60004C4F2000401A920467B
:1024A000FFF790FB2046FFF7A5FA20460021FFF733
:1024B00079FC20460721FFF759FC2046FFF7B6FAC2
:1024C0002046FFF7ADFA20460021FFF771FC2046B9
:1024D000FFF7B2FA2046FFF789FA2046FFF7C2FA63
:1024E0001E20012100F048FC1E2000F00DFC2046BB
:1024F0000021FFF743FC06B010BD000010B586B008
:10250000002408200594CDE90344CDE90144FEF7F9
:10251000F7FD40F23F60ADF804400294CDE90304BA
:1025200040F60044C4F2000401A92046FFF74AFB2C
:102530002046FFF75FFA20461021FFF733FC2046C4
:102540000721FFF713FC2046FFF770FA2046FFF73C
:1025500067FA20460021FFF72BFC2046FFF76CFAB4
:102560002046FFF743FA2046FFF77CFA322001218C
:1025700000F002FC322000F0C7FB20460021FFF7EC
:10258000FDFB06B010BD0000F0B58DB00026CDE912
:102590000B66CDE90966CDE90766CDE90566CDE9AB
:1025A0000366CDE90166FEF7B9FDFEF703FE0920DB
:1025B00041F20004042702900320C4F2010401AD9B
:1025C000C0F20447CDE90306204629460197FEF7ED
:1025D00079FF07F10410019004200290204629465B
:1025E000FEF770FFFEF74CFF4FF4E130CDE9060631
:1025F0000C20CDE90A06A4F5484006A9CDE90866F5
:102600000C96FFF7F3FBFFF7D9FBFFF7E5FB0DB0E7
:10261000F0BD0000FEE70000FEE70000002070476C
:1026200000F0070080F00701042928BF04214FF0C3
:10263000FF32033802FA01F14FF0030238BF0020E5
:1026400022EA010101FA00F07047000000F00700E3
:1026500080F00703042B28BF04234FF0FF3C03380E
:102660000CFA03F338BF0020994381400CFA00F0C4
:1026700022EA0000084370472DE9F0410446006A51
:1026800020F001002062256A6368D4F818C00A6946
:1026900025F0030522F00102D1E900E02A4342F6C9
:1026A0000045C4F20105AC4242EA000514D101F133
:1026B000140825F00C0098E860016FF004078A68A0
:1026C00007EA8505284340EA820523F4407026F492
:1026D0000072104340EA48032CF0730040EA0E00F9
:1026E0006360A061C9682046FFF72EFB2562BDE844
:1026F000F08100002DE9F0410446006A6FF01006F9
:1027000020F010002062256A6368D4F818C00A69B6
:1027100025F0300506EA0212D1E900E02A4342F62C
:102720000045C4F20105AC4242EA001516D101F1A0
:10273000140825F0C00098E860016FF040078A682F
:1027400007EA8515284340EA821523F44060B20069
:1027500040F603039A43104340EAC8032CF4E640D2
:1027600040EA0E206360A061C9682046FFF7F4FAD2
:102770002562BDE8F08100002DE9F0410446006AC1
:1027800040F2FF1620F480702062256A6368D4F856
:102790001CC00A6925F440751202B243D1E900E079
:1027A0002A4342F60045C4F20105AC4242EA002544
:1027B00016D101F1140825F4406098E8600140F258
:1027C000FF77AD028A68BD43284340EA822523F49F
:1027D0004050320142F20F039A43104340EA48133B
:1027E0002CF0730040EA0E006360E061C968204687
:1027F000FFF7B4FA2562BDE8F081000070B5044629
:10280000006A42F6004620F480502062206A626826
:10281000E369D1E900EC0D69C4F20106B44204D1C8
:102820008E6922F4804242EA861223F4E6432D03A5
:1028300041F6FF7643EA0E2320F44050B543626030
:10284000E3612843C96840EA0C352046FFF788FA5F
:10285000256270BD7047000081B040F21800C2F2DE
:102860000000006844F6D351C1F26201A0FB0101EF
:10287000480A009000BF0098411E00280091F9D13D
:1028800001B0704710B50446FEF7C2FF44F2F901EB
:10289000C0F30310C0F60001085C24FA00F010BD7C
:1028A00010B50446FEF7BCFF44F20911000AC0F659
:1028B0000001085C24FA00F010BD000010B50446C9
:1028C000FEF7B6FF44F20911C00AC0F60001085C29
:1028D00024FA00F010BD000080B5FEF7B1FF082813
:1028E0001ABF41F20020C0F27A0000F017F880BD54
:1028F00010B5FEF7C7FF000A43F60951484342F2FC
:102900000041C0F2F40101EB4024FEF7B3FF0121C6
:1029100001EB1010B4FBF0F010BD000010B5FEF795
:10292000B9FFB0F5803F06D0B0F5881F0DD1FFF795
:10293000DFFF044603E041F20024C0F27A04FEF710
:10294000BFFF0130B4FBF0F403E040F60014C0F226
:102950003D04FEF7ADFFB0F5501F03D10D206043DD
:10296000400810BDFEF7A4FFC0F38340023060436F
:1029700010BD0000B0B540F600040425C4F2010407
:10298000C0F2044520462946FEF70AFE40F25F30B9
:10299000C2F20000017841F001010170007805F1F8
:1029A0000411C00703D12046FEF7E2FD02E02046F5
:1029B000FEF7F6FD20462946FEF7DAFDB0BD000021
:1029C00080B5002000F030F880BD0000832898BF5B
:1029D0001F2900D9704710B540F2B803C2F20003B6
:1029E0001B7840F2BC0E002B01F007034FEAD10127
:1029F00001EB4111B2FA82FC00EB8104C2F2000E3D
:102A000018BF4FEA5C124FF0010C1EF804100CFACC
:102A100003F321EA0300012A08BF41EA03000EF88C
:102A20000400BDE81040704780B540F2B801C2F222
:102A300000010978002918BF01210A1A40F2BC00E0
:102A4000C2F200004FF4047118BFFF22FDF788FDA9
:102A500080BD000040F2B402C2F20002108040F2D9
:102A6000B600C2F2000001807047000010B50446B5
:102A700040F20440FEF784FDA4F15000C0B201F022
:102A8000EBF9002001F0E8F9102001F0E5F910BDA4
:102A90002DE9F04F83B040F2B40AC2F2000A0D46AD
:102AA000BAF800101646024683294FF000003FD8BE
:102AB00040F2B60BC2F2000BBBF800101F2937D84A
:102AC0006878019268B30199B6FA86F72039002434
:102AD000029103E068780134844222D229780029E7
:102AE000F8D0029A696800FB02404FF0000931F803
:102AF000108000BFBAF8000008FA09F1BBF80030F6
:102B00000904484403EB0401324680B289B258BF3D
:102B10007A09FFF75BFF287809F101098145E9D3BC
:102B2000D8E72878BAF800100844AAF800000198FD
:102B300003B0BDE8F08F000070B503787BB1144698
:102B40000D46461CD8B229462246FFF7A1FF16F8CB
:102B5000011C884205D116F8013B002BF2D1002060
:102B600070BD084670BD000080B540F2BC00C2F2E6
:102B700000004FF4047101F077F980BD7047000048
:102B800080B5FDF731FEFDF75BFE80BD10B540F668
:102B90000004C4F2000404F58060FEF73BFF204609
:102BA000FEF738FF10BD0000B0B501380024B4EBCB
:102BB000106F1CBF0120B0BD4EF21005CEF2000513
:102BC00068604FF0FF300F2100F0DEF80720AC60A6
:102BD00028602046B0BD000080B5FDF7C1FE80BD75
:102BE00070B594B006AC20463821FDF7C1FC012039
:102BF000002506900B904FF4E0104FF48031022630
:102C0000CDE9100520460595CDE90355CDE90155DF
:102C10000995CDE90751CDE90E61FEF731F8A8B964
:102C20000F20CDE901064FF48060CDE9040501A82D
:102C300002210395FDF714FF002801BF7020C4F2A4
:102C400042200121016004BF14B070BDFDF778FE81
:102C50007047000010B540F60004C4F2000420469E
:102C6000FFF700F8012818BF10BD2046FEF7BEFE92
:102C7000FDF7E6FDFDF76EFD10BD000010B540F656
:102C80000044C4F200042046FEF7ECFF012818BF00
:102C900010BD2046FEF7AAFEFDF7A6FDFDF74EFD8E
:102CA00010BD000010B541F20004C4F2000420463B
:102CB000FEF7D8FF012818BF10BD2046FEF796FE8C
:102CC0002046FEF7A7FE40F2CF20C2F2000001210D
:102CD000017010BDFEE70000C1B200F01F0001222C
:102CE00002FA00F04EF20012CEF2000242EAD101E6
:102CF00021F00301086070474EF20010CEF2000090
:102D00004FF4004101607047C1B200F01F00012282
:102D100002FA00F04EF20012CEF2000242EAD101B5
:102D200021F00301086070474EF60C50CEF200000F
:102D30000068C0F3022070474EF60C50CEF200003F
:102D40000068C0F3022070474EF60C50CEF200002F
:102D50000068C0F302207047E422C0F2E0020901DB
:102D600062F31F20017070474EF20F410001CEF256
:102D70000001087070470000E422C0F2E00209017F
:102D800062F31F20017070474EF6145300F00F02DB
:102D9000CEF2000309011A4400F16043B0F1FF3F95
:102DA000C8BF03F564421170704700004EF60C5125
:102DB000CEF200010A684FF6FF031A4060F30A22C0
:102DC00042F0806040F0FD70086070474FF4C861C9
:102DD000484348F68901C8F68801A0FB0101C1F308
:102DE0004F10704780B500200121FFF733FEFFF739
:102DF000E7FD80BD2DE9F04182B0984615460E46AC
:102E00000446FFF7EFFF00200121FFF723FE40F209
:102E10009807C2F2000713A2384610212346FDF797
:102E200085FA40F21001C2F2000138460122FFF794
:102E300083FE00200E21FFF70DFE0DA23846102163
:102E4000434600960195FDF771FA40F20001C2F287
:102E5000000138460122FFF76FFEFFF785FE02B042
:102E6000BDE8F081505245534554257500000000DF
:102E70002575433A253033642F2530336400000034
:102E800010B541F20044C4F2000401462046FEF7AA
:102E900069FF2046FEF7AAFD20460021FEF76EFFDF
:102EA0002046FEF7D9FD00BF2046FEF7DBFE0028D6
:102EB000FAD02046FEF7AEFD10BD000070B540F21E
:102EC0005F36C2F20006317840F60004082501F0B2
:102ED000FD01C4F20104C0F20845317000F060F851
:102EE000A5F104112046FEF743FB3078C00704D15A
:102EF00020462946FEF73CFB03E020462946FEF724
:102F00004FFB0220FFF7BCFF40F28800C2F2000036
:102F1000FDF74EFC70BD0000B0B540F25F31C2F26B
:102F200000010A7802F0FB020A7000F04DF841F24D
:102F300000040125C4F20104C0F2014520462946DF
:102F4000FEF716FB05F101112046FEF711FB0220EA
:102F5000FFF796FF40F28800C2F20000FDF752FC36
:102F6000B0BD000080B540F28800C2F20000FDF75D
:102F700077FC80BD80B54FF0804047F6FF71FEF7CB
:102F8000FDFE4FF080400121FEF72CFD4FF0804008
:102F90001021FEF727FD4FF08040FEF75DFD80BD5C
:102FA00040F28801C2F20001CA8864235A43C088F3
:102FB0006432B2FBF0F04FF0FF3202EB5002013806
:102FC0000A80888070470000408844F24021C0F2A7
:102FD0000F01B1FBF0F04FF0FF3140F2880201EB3E
:102FE0005001C2F2000201385180D08070470000C9
:102FF00070B540F60004C4F201040825C0F208458B
:1030000004F50066A5F107113046FEF7B1FAA5F107
:1030100006113046FEF7ACFAA5F104112046FEF782
:10302000A7FA40F25F30C2F200000078C00704D176
:1030300020462946FEF79CFA03E020462946FEF783
:10304000AFFA0220FFF71CFF70BD0000B0B50C46C0
:103050000546FFF7B9FF2846FFF7A2FF05EB44003E
:10306000C08940F28801C2F200014881E88800016D
:103070000881B0BD10B582B0002040F2CE24ADF87A
:103080000600C2F20004207863280DD900F030F861
:1030900002B010BD20780130207042F21070FFF7AE
:1030A000EFFE20786428F1D200F04EFF0028ADF842
:1030B0000600EFD000F016FB00F046FF0028ADF848
:1030C0000600F9D1E9E7000040F2D021C2F2000188
:1030D00040F2E82240F2003340F2183CC2F2000213
:1030E000C2F20003C2F2000C80E80E10704700002C
:1030F00040F25F30C2F20000017801F0FE01017081
:10310000017841F002010170017841F00401017081
:1031100070470000FDF732FCFFF762FDFEF720FF6D
:10312000FEF712FFFFF720F8FEF7D0FFFFF72CFAAB
:10313000FFF744F9FFF76EF8FFF79AF9FFF7E4F8A5
:10314000FFF7DCF900F0B4FF40F24834C2F20004AB
:103150002046FFF7B9FF00F009FE00F0DBFEFFF7A5
:1031600089FF00F067F840F2A805C2F2000500BF31
:103170002846214600F002F8FAE70000B0B582B018
:10318000054600200C46ADF8060000F033FBADF814
:103190000600F8B1BDF80600023806281AD8DFE8A4
:1031A00000F01B04042C370C0C0000F089F900F02F
:1031B0000FFD00F03FF802B0B0BD00F01FF900BFF6
:1031C00000F0E0FB0130FBD000F056F900F064F8AD
:1031D00000F030F802B0B0BD40F21C01C2F20001B4
:1031E0000878097804EB810151F8041C00F040FED6
:1031F00000F0C4FA0028FBD1ECE72846214600F095
:1032000099F840F21C01C2F20001087002B0B0BD92
:1032100040F21C01C2F2000108780028DAD00878D8
:10322000097804EB810151F8041C00F0D3FB02B0D3
:10323000B0BD000070B5FFF7D5FD002001210026CC
:10324000FFF708FC40F2980444F24530C2F2000453
:10325000C0F25400C4F8030044F2535040F2000599
:10326000C4F24C50C2F200052060204629460122DB
:10327000FFF762FC3C201121FFF7ECFB44F64D7098
:10328000C4F2445020602046294601222671FFF7EF
:1032900053FCFFF769FC70BDF0B581B0FFF776FC19
:1032A00040F23030C2F200004FF4486141806421A6
:1032B000C18000BF00F062FA044600F09BFA012CC6
:1032C00002D00028F6D032E0022830D840F25F3732
:1032D00040F2303440F600050426C2F20007C2F284
:1032E0000004C4F20105C0F2044603E000F082FAD3
:1032F00003281CD238788007F8D52046FFF764FEF3
:10330000387800F0FD0038702046FFF7D7FD00BF89
:1033100000F034FA0128FBD0FDF766FA2846314662
:10332000FEF73EF9387840F002003870DEE701B071
:10333000F0BD00002DE9F04182B0002740F21C06EC
:10334000ADF80670C2F20006884631780546084698
:1033500000F03EF8A8F1040409E000BF307854F80A
:103360002010284600F078FB307800F031F828462D
:1033700000F0A0F9012811D1287A31780844307082
:103380003078042802D9012003E000BF307808B962
:1033900004203070AF60307800F01AF800F02AFA9C
:1033A0000028ADF80600E2D0BDF806000528D5D00B
:1033B0000628D9D130783178002208EB810151F804
:1033C000041C00F07DFE307802B0BDE8F081000002
:1033D00010B50446FFF706FD042C06D0032C07D0D9
:1033E000022C08D100F0C4F810BD00F02DF910BD7A
:1033F00000F0F4F810BD00F085F810BDB0B5FFF78F
:10340000F1FC00200121FFF725FB40F2980444F273
:103410004F4044F6414144F24D1240F20005C2F2E1
:103420000004C0F24500C4F62051C5F24E52C2F26B
:103430000005C4E90021A060204629460122FFF7CB
:103440007BFB00201121FFF705FB42F6525042F2B0
:10345000540142F63C52C0F23E00C4F64411C4F29C
:103460005352C4E90021A060204629460122FFF7FB
:1034700063FBFFF779FBB0BD80B5FFF7B3FC00201D
:103480000121FFF7E7FA40F2980044F24F41C2F2FF
:103490000000C0F2450144F6414244F24D13C4F627
:1034A0002052C5F24E53816040F20001C0E9003263
:1034B000C2F200010122FFF73FFBFFF755FB80BD81
:1034C00010B5FFF78FFC002001210024FFF7C2FA9E
:1034D00040F2980045F24E5144F25352C2F20000BD
:1034E000C4F64C41C2F25402C0E9002140F200018E
:1034F000C2F2000101220472FFF71EFBFFF734FB4A
:1035000010BD000070B5002001210026FFF7A2FACF
:1035100040F2980444F2535045F23E0140F2000557
:10352000C2F20004C3F25410C4F25251C2F20005B8
:10353000C4E900102046294601222672FFF7FCFA52
:1035400000201121FFF786FA44F2535045F2200182
:10355000C3F25420C4F25251C4E900102046294657
:1035600001222672FFF7E8FAFFF7FEFA70BD0000AD
:1035700070B5002001210026FFF76CFA40F2980494
:1035800044F2535045F2200140F20005C2F200041B
:10359000C3F25410C4F25251C2F20005C4E9001043
:1035A0002046294601222672FFF7C6FA0020112183
:1035B000FFF750FA44F2535045F23E01C3F2542053
:1035C000C4F25251C4E90010204629460122267255
:1035D000FFF7B2FAFFF7C8FA70BD000070B500201F
:1035E00001210026FFF736FA40F2980444F25350C6
:1035F00045F23E0140F20005C2F20004C3F254302D
:10360000C4F25251C2F20005C4E900102046294616
:1036100001222672FFF790FA00201121FFF71AFA13
:1036200044F2535045F22001C3F25440C4F25251C7
:10363000C4E900102046294601222672FFF77CFAD1
:10364000FFF792FA70BD000070B50020012100263E
:10365000FFF700FA40F2980444F2535045F220017B
:1036600040F20005C2F20004C3F25430C4F25251D9
:10367000C2F20005C4E90010204629460122267244
:10368000FFF75AFA00201121FFF7E4F944F25350F2
:1036900045F23E01C3F25440C4F25251C4E9001055
:1036A0002046294601222672FFF746FAFFF75CFA08
:1036B00070BD000010B50446FDF748F9013880B22E
:1036C00047F6FF71081A00EBD07221685010B1EB79
:1036D000620F60600FBF0020411AA160206018BF18
:1036E000012010BDB0B5FFF77DFB00200121FFF7E1
:1036F000B1F940F2980445F2413044F2525140F29F
:103700000005C2F20004C0F24500C4F24C51C2F2FE
:103710000005C4E90010204629460122FFF70CFAF3
:1037200041201121FFF796F94C20A08044F250501F
:10373000C4F244102060204629460122FFF7FCF91C
:10374000FFF712FAB0BD000010B540F2CF2141F2F0
:103750000004C2F200010022C4F200040A70410019
:103760002046FEF7FFFA20460021FEF707FB204621
:10377000FEF73CF92046FEF76FF910BD80B541F227
:103780000000C4F2010040F20111FDF7DFFEB0FAC3
:1037900080F0400980BD000080B50138072826D898
:1037A000DFE800F004040B0B1212191941F20000BB
:1037B000C4F2010040F2011113E041F20000C4F232
:1037C0000100A0F500600AE041F20000C4F201002F
:1037D00040F2022105E041F20000C4F2010040F293
:1037E0000441FDF7B3FEB0FA80F0400980BD00202F
:1037F00080BD000070B540F25A35C2F2000528784D
:10380000002856D02878012804D13220FFF79CFFE9
:1038100002202870287840F2CF240228C2F2000447
:1038200016D12078012813D140F25830C2F200009E
:103830000088FFF7B1FF002864D06420FFF784FF01
:103840000320287040F2CD20C2F200000021017058
:103850002878032817D12078012814D140F258364F
:10386000C2F200063088FFF797FF00284DD040F2E3
:10387000CD20C2F200000178042957D8013101702F
:103880006420FFF761FF287804284FF000000FD173
:103890002178012918BF70BD40F25834C2F20004EB
:1038A0002088FFF779FFA0B36420FFF74DFF0020C9
:1038B00070BD41F20004C4F20104204640F202212E
:1038C000FDF744FE48B3A4F5006040F20441FDF763
:1038D0003DFE002839D0204640F20441FDF736FE77
:1038E00000283BD0204640F20111FDF72FFE0028B2
:1038F0007FF488AF40F258310120C2F200012870F5
:1039000008807FE70020287070BD00202870308874
:1039100070BD00202080287070BD0120287040F20A
:103920005830C2F20000052101806BE73088421E4A
:10393000062A4FF004001ED80421DFE802F0041C20
:103940001B1C181C1A00022114E00120287040F2F0
:103950005830C2F200000321018053E70120287093
:1039600040F25830C2F20000072101804AE70621E8
:1039700000E00821318028706420FFF7E5FE3088E0
:1039800070BD000080B582B00020ADF8060000BF19
:10399000FFF730FF0028ADF80600F9D0BDF806109B
:1039A000C81E022840F25F30C2F2000006D3073979
:1039B00001290BD8017821F0010102E0017841F0E2
:1039C00001010170007800F0010000E0FF2040B22A
:1039D00002B080BD80B50A787AB10A4612F802C9F1
:1039E000BCF1010F98BF4FF0010C00BF5389BCF12F
:1039F000010C138202F10202F8D100224A70002267
:103A000000F05EFB80BD000070B582B00C4605463C
:103A1000FEF7D6FF00200621FFF71CF840F29806BB
:103A2000C2F2000609A2304610212B460094FCF792
:103A30007DFC40F20801C2F2000130460122FFF78E
:103A40007BF8FFF791F802B070BD00BF2575433ACF
:103A500025303364000000002DE9F04381B00C46AE
:103A600089880546002904BF1E20A080FFF78EF834
:103A7000B4F9040000F01CF911E000BF0C20A08094
:103A8000A088FFF7A3F960802046FFF745FAB4F954
:103A9000040000F00DF9FFF7ADFE052811D028460F
:103AA000FFF708FE0128F6D12889A18800EB400025
:103AB000014488B29628A180E0D80B28E0D896204F
:103AC000DDE7FFF75DF8FDF7D7FA40F25F36C2F2A7
:103AD0000006307840F004003070E088002804BF11
:103AE0006420E080B4F9060000F0B0F810E000BFF8
:103AF0001920E0802046FFF7E1F92046FFF70CFA95
:103B0000B4F9060000F0A2F8FFF774FE052813D000
:103B10002846FFF7CFFD0128F6D12889E18800EB80
:103B20008000014488B2B0F5967FE180E0D8182883
:103B3000E0D84FF49670DCE7FFF722F8FDF79CFA27
:103B400030784FF0000940F002003070307840F0DB
:103B50000400307004EB4908474609F1010937F8C1
:103B6000081F5FFA89F63046FFF74EFF2846FFF739
:103B7000A1FD012810D12889398808440104388022
:103B800004D080B2FB2803D3012000E0FA20388063
:103B900039883046FFF738FFFFF72CFE052803D0A1
:103BA0000628E3D109E000BF3888B9F1030FA8F86F
:103BB0000E00CFD14FF0030902E03888A8F80E00BC
:103BC000002084F80090607001B0BDE8F083000030
:103BD000B0B5FEF7DBFF40F23030C2F200004FF428
:103BE00048614180642140F25F35C180C2F2000526
:103BF0002878800758BFB0BD287840F2303440F0B4
:103C00000100C2F2000428702046FFF7DDF9287891
:103C100000F0FD0028702046FFF750F92878C00713
:103C2000FCD100BFFDF79CFC0128FBD0FCF7DCFDBC
:103C300040F600000421C4F20100C0F20441FDF787
:103C4000AFFC287840F002002870B0BDB0B582B05B
:103C500048F21F51C5F2EB1180FB0112511101EB2B
:103C6000D274642104FB110500200621FEF7F2FE48
:103C7000FEF7A6FEE3B240F29804C2F20004EDB2F1
:103C800008A2204610210095FCF750FB40F20801E5
:103C9000C2F2000120460122FEF74EFFFEF764FF4C
:103CA00002B0B0BD52543A25752E25303275000051
:103CB000B0B5044600200621FEF7CCFEFEF780FEDC
:103CC00040F29805C2F2000508A2284610212346BA
:103CD000FCF72CFB40F20801C2F200012846012249
:103CE000FEF72AFFFEF740FFB0BD00BF2533752069
:103CF00052504D00B0B5FDF79BFAFDF7D9FA40F2EE
:103D0000CC25C2F20005287840F2BC0100EB40103F
:103D1000C2F2000101EB8000041FFDF7A9FA014681
:103D20002046FDF777FA287803280BD8FEF79EFE89
:103D300040F20220FDF738FCFDF782FA28780130C6
:103D40002870B0BD00202870FDF772FA40F20440E0
:103D5000FDF72AFCB0BD000010B50446FDF708FED3
:103D60000028FBD02046FDF713FE10BD10B540F231
:103D70000110FDF705FC40F6B830FFF781F840F27E
:103D80000110FDF719FC40F6B830FFF779F840F262
:103D90000440FDF7F5FBAE2000F05EF8812000F056
:103DA0005BF8FF2000F058F8A62000F055F8A4209A
:103DB00000F052F8202000F04FF8022000F04CF8FC
:103DC000B02000F049F80020002400F045F8102051
:103DD00000F042F8402000F03FF8A12000F03CF84D
:103DE000A82000F039F81F2000F036F8C82000F0B5
:103DF00033F8D32000F030F8002000F02DF8DA205E
:103E000000F02AF8122000F027F8D52000F024F85E
:103E1000F02000F021F8DB2000F01EF8202000F058
:103E20001BF8AF2000F018F841F28830FFF728F8AF
:103E3000FEF7C6FDFEF798FE40F2B400C2F20000A5
:103E4000048040F2B600C2F20000048040F2044058
:103E5000FDF7B2FB10BD000010B50446FDF798FB5E
:103E60002046FFF779FF10BD80B5FFF743FF80BD07
:103E70002DE9F04381B00C46097865788D4233D244
:103E8000804620462946FFF7E1F8FFF7B1F804EB3A
:103E9000450040F25F3740F2880900F10E06C2F299
:103EA0000007C2F2000902E0FFF768FC48B330885F
:103EB000E0B13878400744BF38785FEA8070F3D5C6
:103EC000B9F80A0001383080387800F0FB0038700B
:103ED000387800F0FD003870FFF744F8404621467E
:103EE0002A4600F0EDF8DFE7FF200FE060780130B0
:103EF000607000BF387840075CBF38785FEA807038
:103F0000F8D5FDF7B9F820786178401A40B201B0D1
:103F1000BDE8F08380B500200121FEF79BFD40F253
:103F20009800C2F200005421818045F25341C5F24D
:103F30004121016040F20801C2F200010122FEF7B6
:103F4000FBFDFEF711FE80BDB0B540F25E34C2F25B
:103F50000004207898B941F20000C4F2010040F258
:103F60000111FDF7F3FA50B90220207040F25C30E5
:103F7000C2F20000012101803220FFF7E5FB20782A
:103F800040F2CF250228C2F2000510D1287801287E
:103F900008D140F25C30C2F200000088FFF7FCFB61
:103FA00028B92DE06420FFF7CFFB03202070217893
:103FB0002878032908BF012813D0217804291CBFC1
:103FC0000020B0BD40F25C350128C2F2000506D1E8
:103FD0002888FFF7E1FBB0B16420FFF7B5FB288824
:103FE000B0BD40F25C35C2F200052888FFF7D4FB73
:103FF00030B1042020706420FFF7A6FB2888B0BDF4
:1040000000202070B0BD0020288020702888B0BD1E
:1040100010B586B0002420200594CDE90344CDE9F5
:104020000144FDF76DF84720ADF80400FF2002942D
:10403000CDE9030441F20044C4F2000401A9204682
:10404000FDF7C0FD2046FDF7D5FC06B010BD000011
:1040500010B586B0002410200594CDE90344CDE9C5
:104060000144FDF74DF848F69F40ADF804004FF6C7
:10407000FF700294CDE90304059441F20004C4F2F8
:10408000000401A92046FDF79DFD2046FDF7B2FC86
:104090002046FDF7ABFC2046FDF7E4FC362004216A
:1040A000FEF76AFE3620FEF72FFE06B010BD0000B8
:1040B00080B5FEF75FFFFFF7ABFFFFF7C9FF80BDDD
:1040C00080B501EB4201B1F908C0B1F90E1001321F
:1040D000D3B26246FEF78EFE80BD30380A2801D288
:1040E0000120704700207047040000080000000015
:1040F00000000002000100001000000000000000AD
:104100000001020304060708090000000001020381
:10411000040000000000000000000000000000009B
:10412000000000000000000000000000000000008F
:10413000000000000000000C000C000C000C000C43
:10414000000C000C000C000C000C000C0000000C1B
:10415000000C000000000000001B001B001B001BE7
:10416000001B000000000000000000000000000034
:104170000000000000000000000080198019801974
:104180008019C07FC07F80190033C07FC07F00339B
:10419000003300330033000000000000001E003F29
:1041A000807580650074003C001E000780058065F6
:1041B00080658075003F001E000400040000007050
:1041C00000D840D8C0D880D900730006000C801BEE
:1041D000C036C066C046C006800300000000000074
:1041E000001E003F003300330033001E000CC03CB3
:1041F000C066806380618063C03E801C0000000058
:104200000000000C000C000C000C000C0000000072
:10421000000000000000000000000000000000009E
:104220000000800000010003000600060004000CEE
:10423000000C000C000C000C000C00040006000632
:1042400000030001002000100018000C000C000406
:104250000006000600060006000600060004000C2A
:10426000000C001800108003400440044004800348
:10427000000000000000000000000000000000003E
:104280000000000000000000000000000000000C22
:10429000000C000C000CC0FFC0FF000C000C000C58
:1042A000000C000000000000000000000000000002
:1042B00000000000000000000000000000000000FE
:1042C0000000000C000C00040004000800000000C6
:1042D0000000000000000000000000000000001EC0
:1042E000001E0000000000000000000000000000B0
:1042F00000000000000000000000000000000000BE
:104300000000000000000000000C000C0000000095
:10431000000000030003000300060006000600067C
:10432000000C000C000C000C001800180018000015
:1043300000000000001E003F00338061806180614A
:10434000806180618061806180610033003F001E78
:104350000000000000000006000E001E00360026CF
:10436000000600060006000600060006000600061D
:104370000006000000000000001E003F8073806106
:104380008061800100030006000C0018003000600E
:10439000807F807F000000000000001C003E006362
:1043A00000630003000E000E0003800180018061A5
:1043B0008073003F001E0000000000000006000E99
:1043C000000E001E001E0016003600360066807FBC
:1043D000807F000600060006000000000000007F4D
:1043E000007F006000600060006E007F80638001DD
:1043F000800180618073003F001E0000000000000B
:10440000001E003F803380610060006E007F80737B
:104410008061806180618033003F001E00000000E9
:104420000000807F807F80010003000300060006FB
:10443000000C000C000C0008001800180018000008
:1044400000000000001E003F806380618061002149
:10445000001E003F8061806180618061003F001E1E
:10446000000000000000001E003F007380618061BA
:1044700080618073803F801D800180610073003FF8
:10448000001E00000000000000000000000000000E
:10449000000C000C00000000000000000000000004
:1044A000000C000C000000000000000000000000F4
:1044B0000000000C000C00000000000000000000E4
:1044C000000C000C000400040008000000000000C4
:1044D000000080008003000E003800600038000EED
:1044E00080038000000000000000000000000000C9
:1044F000000000000000807F807F00000000807FBF
:10450000807F0000000000000000000000000000AC
:1045100000000000000000400070001C0007800147
:104520000007001C007000400000000000000000B8
:104530000000001F803FC071C060C000C001800348
:104540000007000E000C000C0000000C000C000026
:1045500000000000001E003F803180718063806F8A
:10456000806D806D806F806700600032003E001CAF
:10457000000000000000000E000E001B001B001BCE
:10458000001B80318031803F803F8031C060C0603F
:10459000C060000000000000007C007E006300633B
:1045A00000630063007E007E006380618061806341
:1045B000007F007E000000000000001E003F8031F0
:1045C00080610060006000600060006000608061E9
:1045D0008031003F001E000000000000007C007FD2
:1045E000006380638061806180618061806180613F
:1045F00000630063007E007C000000000000807FFC
:10460000807F0060006000600060007F007F0060CD
:10461000006000600060807F807F0000000000007C
:10462000807F807F0060006000600060007F007F0E
:10463000006000600060006000600060000000003A
:104640000000001E003F803180610060006000605B
:1046500080638063806180618031803F001E000044
:104660000000000080618061806180618061806104
:10467000807F807F806180618061806180618061F6
:10468000000000000000003F003F000C000C000C88
:10469000000C000C000C000C000C000C000C003F87
:1046A000003F0000000000008001800180018001C7
:1046B00080018001800180018001806180618073C0
:1046C000003F001E000000000000C0608061006329
:1046D00000660066006C0078007C0066006600637F
:1046E00080618061C0600000000000000060006028
:1046F00000600060006000600060006000600060BA
:1047000000600060807F807F000000000000C071BA
:10471000C071C07BC07AC06AC06AC06EC064C0602D
:10472000C060C060C060C060C060000000000000E9
:1047300080718071807980798079806D806D806DE5
:104740008065806780678067806380630000000009
:104750000000001E003F0033806180618061806145
:1047600080618061806180610033003F001E000035
:1047700000000000007E007F8063806180618061B6
:104780008063007F007E0060006000600060006069
:10479000000000000000001E003F003380618061C7
:1047A0008061806180618061806580670033803FC7
:1047B000401E000000000000007E007F80638061DA
:1047C00080618063007F007E00660063006380611B
:1047D0008061C060000000000000000E001F8031FA
:1047E000803100300038001E000780038061806146
:1047F0008031003F001E000000000000C0FFC0FF2D
:10480000000C000C000C000C000C000C000C000C48
:10481000000C000C000C000C000000000000806187
:104820008061806180618061806180618061806180
:10483000806180618073003F001E00000000000066
:10484000C060C060C060803180318031001B001BBF
:10485000001B001B000E000E000E000400000000F4
:104860000000C0C0C0C0C0C0C0C0C0C0C0CC804C70
:10487000804C805E80528052807380618061000035
:1048800000000000C0C0806080610033003B001E5B
:10489000000C000C001E001F003B80718061C0C036
:1048A000000000000000C0C0806180610033003360
:1048B000001E001E000C000C000C000C000C000C74
:1048C000000C000000000000803F803F80010003DA
:1048D00000030006000C000C0018001800300060F7
:1048E000807F807F000000000000000000000000CA
:1048F00000000000000000000000000000000000B8
:1049000000000000000000000000000000000000A7
:10491000000000000000000000000000E003E003D1
:10492000E003E003E003E003E003E003C003C003AF
:10493000C001C001C001C001C001000000000000B2
:10494000E003E003E00300000000000000000000BE
:104950003C1E3C1E3C1E3C1E3C1E3C1E3C1E0000E1
:104960000000000000000000000000000000000047
:104970000000000000000000000000000000000037
:1049800000000000CE01CE03DE039E039C039C07C3
:10499000FF3FFF7F3807380F780F780F780EFFFF43
:1049A000FFFFF01EF01CE01CE03CE03DE0390000A1
:1049B0000000000000000000FC03FE0FEE1FE01EE0
:1049C000E01EE01EE01EE01FE00FE007F003FC0128
:1049D000FE01FE01FE01FE01FE01FE01FE3DFC3F67
:1049E000F00FE001E001000000000000033E07F7C7
:1049F0008FE78EE79EE3BCE3B8E7F8E7F0F7E03F28
:104A0000C001FF03FF07F307F30FF31EF33CF33876
:104A1000F3787FF03FE0000000000000000000009D
:104A2000E007F80F780F781F781F781F780FF00FC6
:104A3000E00F801FC37FC3FBE7F3F7F1F7F0FFF050
:104A40007FF03EF87F7CFF3FEF1F0000000000007A
:104A500000000000E003E003E003C003C003C00166
:104A6000C000C000000000000000000000000000C6
:104A70000000000000000000000000000000000036
:104A800000000000000000003F007C00F001E00199
:104A9000C003C00780078007800F000F000F000FC2
:104AA000000F000F000F800F80078007C007C003B2
:104AB000E001F0017C003F000F000000007E001FBD
:104AC000C007C003E001F001F000F000F80078003A
:104AD00078007800780078007800F800F000F000A6
:104AE000F001E001C003C007001F007E0078000055
:104AF000C001E003180C180C180C180CE003C001DE
:104B000000000000000000000000000000000000A5
:104B10000000000000000000000000000000000095
:104B20000000000000000000000000000000000085
:104B3000C001C001C001C001C001C001C001FFFF30
:104B4000FFFFC001C001C001C001C001C0010000E1
:104B50000000000000000000000000000000000055
:104B60000000000000000000000000000000000045
:104B700000000000000000000000E003E003E0038C
:104B8000E003E001E001E001C0018003000000005B
:104B90000000000000000000000000000000000015
:104BA0000000FE3FFE3F000000000000000000008B
:104BB00000000000000000000000000000000000F5
:104BC00000000000000000000000000000000000E5
:104BD00000000000000000000000000000000000D5
:104BE0000000E003E003E003E00300000000000039
:104BF000000000000F000F001E001E003C003C00E3
:104C000078007800F000F000E001E001C003C0038C
:104C100080078007000F000F001E001E003C003CB4
:104C20000078007800F00000F007F80F7C1F3E3E8F
:104C30001E3C1F7C1F7C0F780F780F780F780F7841
:104C40000F780F781F7C1F7C1E3C3E3E7C1FF80FA8
:104C5000F00700000000000000000000F000F00776
:104C6000F03FF03FF001F001F001F001F001F00140
:104C7000F001F001F001F001F001F001F001F001AC
:104C8000F001FF3FFF3F00000000000000000000B7
:104C9000E00FF83F7C3C3C003E003E003E003C0004
:104CA0003C007C00F800F001E003C0078007000F23
:104CB000001E003E003CFE3FFE3F000000000000E2
:104CC00000000000F00FF81F7C1C3E003E003E007C
:104CD0003C003C00F800F00FF80F7C003E001E0086
:104CE0001E001E001E003E007C1CF81FE01F00007E
:104CF00000000000000000007800F800F800F80153
:104D0000F803F807F807780F781E781E783C787853
:104D10007878FFFFFFFF780078007800780078004F
:104D2000780000000000000000000000FC1FFC1FD5
:104D3000FC1F001E001E001E001E001EE01FF81FAC
:104D4000FC007C003E003E001E003E003E003C0099
:104D50007C1CF81FE01F00000000000000000000A5
:104D6000FC01FE078E0F001F001E003E003C003CB1
:104D7000F83DFC3F3E7F1F7E0F3C0F3C0F3C0F3C3D
:104D80000F3E1F1E3E1FFC0FF0030000000000003E
:104D900000000000FF3FFF3FFF3F0F001E001E000E
:104DA0003C0038007800F000F000E001E001C003B2
:104DB000C0038007800F800F000F001F001F00003E
:104DC0000000000000000000F807FC0F3E1F1E1E40
:104DD0001E3E1E3E1E1E3C1FF80FF007F80FFC1E65
:104DE0003E3E1F3C1F7C0F7C0F7C1F3C3E3FFC1F48
:104DF000F00700000000000000000000F007F80FBE
:104E00007C1E3E3C1E3C1F7C1F7C1F7C1F7C1F3C6D
:104E10003F3EFF1FEF071F001E001E003E003C002C
:104E2000F838F03FE01F0000000000000000000024
:104E3000000000000000000000000000E003E003AC
:104E4000E003E0030000000000000000000000009C
:104E50000000E003E003E003E003000000000000C6
:104E60000000000000000000000000000000000042
:104E7000E003E003E003E0030000000000000000A6
:104E8000000000000000E003E003E003E003E001B5
:104E9000E001E001C003800300000000000000000A
:104EA0000000000003000F003F00FC00F003C00FF3
:104EB000003F00FE003FC00FF003FC003F000F006A
:104EC00003000000000000000000000000000000DF
:104ED00000000000000000000000000000000000D2
:104EE000FFFFFFFF000000000000FFFFFFFF0000CA
:104EF00000000000000000000000000000000000B2
:104F000000000000000000000000000000E000F8C9
:104F1000007E801FE007F8017E001F007E00F80180
:104F2000E007801F007E00F800E0000000000000A5
:104F300000000000F01FFC3F3E381F381F381E00E5
:104F40001E003C007800F000E001C003C003C00771
:104F5000C007000000000000C007C007C007000035
:104F60000000000000000000F803FE0F1E1F0F3EAF
:104F70007F3CFF78EF79C773C7F38FF38FF38FF31D
:104F80009FF39FF3FF73FF7BF779003C1C1FFC0F1F
:104F9000F803000000000000000000000000000016
:104FA0000000E003E003F007F007F007780F780F48
:104FB0007C0E3C1E3C1E3E3CFE3FFF3F1F780F78A0
:104FC0000FF007F007F000000000000000000000F4
:104FD000000000000000F83FFC3F3E3C1E3C1E3C31
:104FE0001E3C3E3C7C3CF03FF83F7E3C1F3C1F3C5F
:104FF0000F3C0F3C1F3CFE3FF83F0000000000004C
:1050000000000000000000000000FF01FF07871FF4
:10501000003E003C007C0078007800780078007842
:10502000007C007C003E003F831FFF07FF01000063
:105030000000000000000000000000000000F07F01
:10504000FC7F7E781F781F780F780F780F780F78A5
:105050000F780F780F780F781F781E787E78F87F9A
:10506000E07F0000000000000000000000000000E1
:105070000000FF3FFF3F003E003E003E003E003E7E
:10508000003EFE3FFE3F003E003E003E003E003E32
:10509000003EFF3FFF3F0000000000000000000056
:1050A000000000000000FF1FFF1F001E001E001E6A
:1050B000001E001E001EFF1FFF1F001E001E001E00
:1050C000001E001E001E001E001E0000000000004A
:1050D00000000000000000000000FE03FF0F871F1B
:1050E000003E007C007C007800F800F87FF87FF834
:1050F0000F780F7C0F7C0F3E8F1FFF0FFE03000009
:1051000000000000000000000000000000001F7C04
:105110001F7C1F7C1F7C1F7C1F7C1F7C1F7CFF7FD4
:10512000FF7F1F7C1F7C1F7C1F7C1F7C1F7C1F7CC4
:105130001F7C0000000000000000000000000000D4
:105140000000FF3FFF3FE003E003E003E003E00374
:10515000E003E003E003E003E003E003E003E00337
:10516000E003FF3FFF3F00000000000000000000E0
:10517000000000000000FC1FFC1F7C007C007C0085
:105180007C007C007C007C007C007C007C007C003F
:1051900078007800F838F03FC03F000000000000C1
:1051A000000000000000000000001F3C1E3C3C3CD2
:1051B000783CF03CE03DE03FC03F803FC03FE03FF7
:1051C000F03DF03C783C7C3C3E3C1F3C0F3C0000FA
:1051D0000000000000000000000000000000003E91
:1051E000003E003E003E003E003E003E003E003ECF
:1051F000003E003E003E003E003E003E003EFF3FBF
:10520000FF3F000000000000000000000000000060
:1052100000001FF81FFC1FFC3FFE3FFE3FFE7FFF0C
:1052200077FF77FFF7F7E7F7E7F3E7F3C7F307F061
:1052300007F007F007F00000000000000000000089
:105240000000000000000F7C0F7C0F7E0F7F0F7F9F
:105250008F7F8F7FCF7FEF7BEF79FF79FF78FF78AC
:105260007F783F783F781F781F78000000000000AB
:1052700000000000000000000000F007FC1F3E3EA0
:105280001F7C0F780F780FF80FF80FF80FF80FF852
:105290000FF80F780F781F7C3E3EFC1FF0070000D0
:1052A0000000000000000000000000000000FC3FC3
:1052B000FF3F1F3E0F3E0F3E0F3E0F3E1F3E3F3E45
:1052C000FC3FF03F003E003E003E003E003E003E00
:1052D000003E000000000000000000000000000090
:1052E0000000F007FC1F3E3E1F7C0F780F780FF880
:1052F0000FF80FF80FF80FF80FF80F780F781F7CE2
:105300003E3EFC1FF8077C003F000F00030000003A
:10531000000000000000F03FFC3F7E3C3E3C1E3C95
:105320001E3C3E3C3C3CFC3CF03FE03FF03DF83C4A
:105330007C3C3E3C1E3C1F3C0F3C0000000000003B
:1053400000000000000000000000FC07FE1F0E3EF1
:10535000003C003C003C003EC01FF80FFE037F00F5
:105360001F000F000F001F203E3CFC3FF01F0000FD
:105370000000000000000000000000000000FFFF2F
:10538000FFFFE003E003E003E003E003E003E003EA
:10539000E003E003E003E003E003E003E003E003F5
:1053A000E00300000000000000000000000000001A
:1053B00000000F7C0F7C0F7C0F7C0F7C0F7C0F7C20
:1053C0000F7C0F7C0F7C0F7C0F7C0F7C1E3C1E3CE7
:1053D0003E3EFC1FF007000000000000000000003F
:1053E00000000000000007F007F007F80F780F7CBE
:1053F0001E3C1E3C1E3E3C1E3C1F781F780FF80FC3
:10540000F007F007F007E003E003000000000000F1
:105410000000000000000000000003E003F003F0C3
:1054200007F0E7F3E7F3E7F3E773F77BF77FFF7F37
:105430007F7F7F7F7E7F7E3F3E3E3E3E3E3E000042
:10544000000000000000000000000000000007F85D
:105450000F7C1E3E3E3E3C1FF80FF007E007E003C6
:10546000E003F007F80F7C0F7C1E3E3C1F780F789E
:105470000FF000000000000000000000000000002D
:10548000000007F807780F7C1E3C1E3E3C1F780F7B
:10549000F80FF007E003E003E003E003E003E003BC
:1054A000E003E003E0030000000000000000000053
:1054B000000000000000FF7FFF7F0F001F003E0084
:1054C0007C00F800F000E001E003C007800F000F4F
:1054D000001E003E007CFF7FFF7F000000000000F8
:1054E00000000000000000000000000000000000BC
:1054F000000000000000000000100010001000106C
:10550000001000100000001000000000002800281B
:105510000028000000000000000000000000000063
:1055200000240024007C00240048007C004800483F
:1055300000000000003800540050003800140054EF
:1055400000540038001000000020005400580030C3
:10555000002800540014000800000000001000287B
:10556000002800100034004800480034000000000B
:1055700000100010001000000000000000000000FB
:105580000000000000080010002000200020002083
:105590000020002000100008002000100008000873
:1055A0000008000800080008001000200010003863
:1055B00000100028000000000000000000000000B3
:1055C0000000000000100010007C0010001000001F
:1055D00000000000000000000000000000000000CB
:1055E000000000100010001000000000000000008B
:1055F0000000003800000000000000000000000073
:10560000000000000000000000000010000000008A
:1056100000080008001000100010001000200020FA
:1056200000000000003800440044004400440044EE
:10563000004400380000000000100030005000104E
:10564000001000100010001000000000003800449E
:1056500000440004000800100020007C000000004E
:10566000003800440004001800040004004400381E
:105670000000000000080018002800280048007CF6
:105680000008000800000000007C00400040007896
:10569000000400040044003800000000003800440A
:1056A000004000780044004400440038000000003E
:1056B000007C0004000800100010002000200020E2
:1056C000000000000038004400440038004400445A
:1056D000004400380000000000380044004400444A
:1056E000003C0004004400380000000000000000FE
:1056F000001000000000000000000010000000008A
:105700000000000000000010000000000000001079
:105710000010001000000000000C003000400030BD
:10572000000C000000000000000000000000007CF1
:105730000000007C000000000000000000000000ED
:105740000060001800040018006000000000000065
:105750000038004400040008001000100000001091
:105760000000000000380044004C0054005C004081
:105770000040003800000000001000280028002829
:105780000028007C00440044000000000078004431
:105790000044007800440044004400780000000009
:1057A0000038004400400040004000400044003801
:1057B0000000000000700048004400440044004421
:1057C0000048007000000000007C00400040007CA9
:1057D000004000400040007C00000000007C0040D1
:1057E0000040007800400040004000400000000001
:1057F0000038004400400040005C00440044003891
:1058000000000000004400440044007C00440044C8
:105810000044004400000000003800100010001098
:105820000010001000100038000000000004000408
:1058300000040004000400040044003800000000DC
:1058400000440048005000600050004800480044F8
:1058500000000000004000400040004000400040C8
:105860000040007C000000000044006C006C00540C
:105870000044004400440044000000000044006470
:10588000006400540054004C004C00440000000030
:105890000038004400440044004400440044003800
:1058A00000000000007800440044004400780040FC
:1058B0000040004000000000003800440044004464
:1058C0000044004400540038000400000078004404
:1058D00000440044007800480048004400000000F4
:1058E0000038004400400030000800040044003844
:1058F00000000000007C00100010001000100010DC
:105900000010001000000000004400440044004467
:1059100000440044004400380000000000440044FB
:10592000004400280028002800100010000000009B
:1059300000440044005400540054006C0028002827
:10594000000000000044002800280010001000287B
:105950000028004400000000004400440028002803
:10596000001000100010001000000000007C000477
:1059700000080010001000200040007C0000000023
:10598000001800100010001000100010001000108F
:1059900000100018000000000404040000080000CB
:1059A000000800000800000008000000D0590008AE
:1059B00000000020280000008C010008F8590008B1
:1059C0002800002040150000A80100080000000089
:1059D0000B11000012410008101A0000E8480008EE
:1059E000070A0000E45400080024F400010100004C
:0859F00010000000000000009F
:04000005080001519D
:00000001FF
