:020000040800F2
:10000000E8080020FD010008D1220008650F000863
:10001000CD220008B90700086D2900080000000083
:10002000000000000000000000000000312800086F
:100030000D08000800000000E1240008C1280008A5
:10004000170200081702000817020008170200082C
:10005000170200081702000817020008170200081C
:10006000170200081702000817020008170200080C
:10007000170200081702000817020008ED07000821
:1000800017020008170200081702000817020008EC
:1000900017020008170200081702000817020008DC
:1000A00017020008170200081702000817020008CC
:1000B00017020008170200081702000817020008BC
:1000C00017020008170200081702000817020008AC
:1000D000170200081702000817020008170200089C
:1000E00017020008170200081702000800000000AD
:1000F0000000000000000000000000000000000000
:1001000000000000000000001702000817020008AD
:1001100017020008170200083D290008170200080E
:10012000170200081702000817020008170200084B
:10013000170200080000000000000000170200087D
:10014000170200081702000817020008170200082B
:1001500000F002F800F042F80AA090E8000C824497
:100160008344AAF10107DA4501D100F037F8AFF274
:10017000090EBAE80F0013F0010F18BFFB1A43F085
:1001800001031847F43A0000143B0000103A24BF62
:1001900078C878C1FAD8520724BF30C830C144BFEC
:1001A00004680C607047000000230024002500262E
:1001B000103A28BF78C1FBD8520728BF30C148BFCA
:1001C0000B607047642900F00781782900F04081B6
:1001D000002070471FB51FBD10B510BD00F0B1FA6B
:1001E0001146FFF7F7FF02F07FFC00F0CFFA03B4EF
:1001F000FFF7F2FF03BC00F0D7FA00000948804780
:1002000009480047FEE7FEE7FEE7FEE7FEE7FEE7F8
:10021000FEE7FEE7FEE7FEE704480549054A064B10
:10022000704700003929000851010008E802002049
:10023000E8080020E8040020E804002053EA020C4B
:1002400000F069802DE9F04B4FF00006002B1FBF36
:10025000B3FA83F503FA05F424FA05F65E4012BFFB
:100260001643B2FA82F502FA05F4C5F120051EBF65
:1002700022FA05FC44EA0C04203556EA044C4FEA05
:10028000144418BF641C4FF000084FF0000990425E
:1002900071EB030C39D3002919BFB1FA81F701FAC8
:1002A00007F6B0FA80F700FA07F6C7F120071EBF7D
:1002B00020FA07FC46EA0C062037B6FBF4FCA7EB55
:1002C0000507103F07F01F0BCBF120062CFA06F6AE
:1002D0000CFA0BFB44BFB3460026202FA4BF5E469A
:1002E0004FF0000B5BEA060C08BF4FF0010B19EB57
:1002F0000B0948EB0608ABFB027C06FB02CC0BFBB0
:1003000003CCC01B71EB0C01C1E70B460246414612
:100310004846BDE8F08B13B5084318BF4FF0FF30D7
:100320000146AFF30080BDE81C4070470FB41CB518
:10033000074B06AA7B4469460090059800F0E1F956
:100340000020694600F0F0F91CBC5DF814FB0000C9
:10035000F10300000FB41CB50C0007AA009001D0F7
:100360002044401E074B7B4469460190069800F0EC
:10037000C8F9002C03D06946002000F0D5F91CBC58
:100380005DF814FBC903000070B504468569006878
:10039000C10601D5302600E02026C00707D070BD79
:1003A000D4E9012130469047206A401C20626D1E2E
:1003B000F6D570BD70B5044685690078C00707D1D1
:1003C00070BDD4E9012120209047206A401C2062A2
:1003D0006D1EF6D570BD00002DE9F04106460024E3
:1003E00010687529314616A510D0AFF3008000289B
:1003F00002DA404213A507E031688A0701D512A549
:1004000002E0490704D511A5012401E0AFF3008003
:1004100000210A2206F1240709E0B0FBF2FCB0FB40
:10042000F2F302FB1C00303078541846491C0028B7
:10043000F3D123462A463046BDE8F04100F002B928
:10044000000000002D0000002B0000002000000034
:1004500070B504460D4621461068AFF30080218830
:10046000090502D50F4A7A4402E00E4A7A440E3258
:10047000002104F1240305E000F00F060009965D59
:100480005E54491C0028F7D120780023000704D5CA
:10049000702D02D009B1022311322046BDE8704010
:1004A00000F0D0B8A82B00002DE9F05F8946044683
:1004B0004FF0000ADFF824B1FB44C0F820A020462A
:1004C000E168884700287DD0252806D0D4E901219D
:1004D0009047206A401C2062F1E700255F462046D5
:1004E000E16888472028064607DB312E05D2B81977
:1004F00010F8200C08B10543F1E7A80701D525F055
:100500000405C4F81CA00027C4F818A02A2E09D09E
:10051000304602F077FD38B304EB8708303EC8F868
:10052000186019E059F8041B204604EB870291611A
:10053000E1688847012F064618D1E069002820DAD3
:1005400025F020051DE0D8F8180000EB800006EB30
:1005500040003038C8F818002046E1688847064651
:1005600002F050FD0028EED1012F0AD02E2E08D126
:100570002046E16888477F1C0646022F45F020058B
:10058000C4DBA069002803DA404245F00105A06100
:10059000E80701D025F01005A6B1A6F14100192801
:1005A00002D8203645F400654A463146204625608B
:1005B0004D46FFF707FE60B1012807D0ED1D25F07D
:1005C000070000E007E000F1080978E705F10409F9
:1005D00075E730467AE7206ABDE8F09F7E2B000081
:1005E00002F0FF0343EA032242EA024200F002B8AB
:1005F0004FF0000200B5134694469646203922BFBC
:10060000A0E80C50A0E80C50B1F12001BFF4F7AF06
:10061000090728BFA0E80C5048BF0CC05DF804EBE8
:10062000890028BF40F8042B08BF704748BF20F856
:10063000022B11F0804F18BF00F8012B7047704754
:10064000704770472DE9F0470D469946924604469B
:1006500000F124080168880604D5E06921F0100142
:10066000216000E00120A84201DD471B00E00027D7
:10067000A1697A1902EB0900081AA0612078C00666
:1006800002D42046FFF780FE002608E0D4E90121CD
:100690001AF806009047206A401C761C20624E45DE
:1006A000F4DB2078C0060AD52046FFF76DFE06E091
:1006B000D4E9012130209047206A401C2062381E76
:1006C000A7F10107F4DC07E0D4E9012118F80500DF
:1006D0009047206A401C2062281EA5F10105F3DC2A
:1006E0002046FFF767FE2078000602D50220BDE80D
:1006F000F0870120FBE7000001694A1C02610878CD
:10070000704700B58FB0CDE9013100210591054951
:100710007944CDE9031011466846FFF7C5FE0FB0D6
:1007200000BD0000E5FFFFFF0A6802F8010B0A6048
:100730007047D1E900239A4202D2531C0B6010701B
:100740007047754600F02CF8AE46050069465346E2
:1007500020F00700854618B020B5FFF75DFDBDE825
:1007600020404FF000064FF000074FF000084FF018
:10077000000BAC46ACE8C009ACE8C009ACE8C00965
:10078000ACE8C00921F007018D46704710B504465A
:10079000AFF300802046BDE81040FFF728BD000001
:1007A000004870471800002001491820ABBEFEE742
:1007B0002600020070470000FEE70000B0B5057893
:1007C000002D08BFB0BD044601F0B2FA0128FBD1EC
:1007D000E8B201F0E5FA14F8015F002DF4D1B0BDE4
:1007E00080B500F003FD02F0F9FA80BD80B500F09D
:1007F00053FD012802D1FFF7F3FF80BD00F054FD47
:10080000012808BF00F00AFD80BD0000704700000D
:10081000EFF3108072B600BFFEE70000B0B50446EB
:1008200000F010F8054640F20C00C2F2000000781B
:10083000611C18BF044400BF00F004F8401BA04234
:10084000FAD3B0BD40F2E420C2F200000068704765
:1008500040F20C0040F2E421C2F20000C2F20001BA
:1008600000780A68104408607047000080B542F2C2
:100870000000C4F20200016841F010010160032091
:1008800000F062F80F2000F005F800F02BF80020CF
:1008900080BD0000B0B540F20C02C2F2000240F28E
:1008A00008011278C2F200014FF47A730968B3FBB1
:1008B000F2F20446B1FBF2F1084600F04FFB0F2CB8
:1008C0004FF001050CD858B94FF0FF3021460022F7
:1008D000002500F029F840F21000C2F20000046088
:1008E0002846B0BD82B041F21800C4F2020001688F
:1008F000022241F001010160016801F00101019152
:100900000199416841F080514160406800F0805099
:10091000009000980420C4F20100016862F31A619B
:10092000016002B07047000070B514460D460646DF
:1009300002F036F82946224601F0CEFC0146304648
:1009400002F046F870BD000080B502F053F880BD9B
:100950002DE9F04381B0002800F0898042F20008C0
:10096000C4F202080446D8F800000D4600F0070063
:1009700088420CD2D8F8000020F007002843C8F8BD
:100980000000D8F8000000F00700A8426FD12068EE
:1009900041F204098107C4F2020917D5410705D5C0
:1009A000D9F8001041F4E061C9F80010010705D53D
:1009B000D9F8001041F46051C9F80010D9F80010BE
:1009C000A26821F0F0011143C9F80010C00745D119
:1009D000D8F8000000F00700A8420CD9D8F80000B1
:1009E00020F007002843C8F80000D8F8000000F005
:1009F0000700A8423BD12068410707D5D9F800106D
:100A0000E26821F4E0611143C9F80010000708D53D
:100A1000D9F80000216920F4605040EAC100C9F80B
:100A2000000000F04FF8D9F8001043F24B02C1F378
:100A30000311C0F60002515C40F2080220FA01F1F5
:100A400040F21000C2F200000068C2F20002116021
:100A5000FFF720FF002001B0BDE8F08360680228A6
:100A600009D0012829D159F8041C890307D4012091
:100A700001B0BDE8F08359F8041C8901F7D5D9F815
:100A8000001021F003010843C9F80000FFF7DAFE67
:100A9000064641F2883700BFD9F80000616800F0CF
:100AA0000C00B0EB810F93D0FFF7CCFE801BB84257
:100AB000F2D9032001B0BDE8F08359F8041C89077E
:100AC000D5D5DCE710B541F22C01C4F2020151F892
:100AD000283C03F00C00082841F20020C0F27A0004
:100AE00018BF10BDC3F3834419A2125DDB0305D404
:100AF00040F60010C0F23D00504310BD0B680FF2ED
:100B0000600C03F00F0E0B681CF80EC0DB0303D45F
:100B10005043B0FBFCF013E00B680968C3F3031308
:100B200003F1010E42F20043C1F30321C0F2F403CA
:100B300001FB0030A0FB0201AEFB0C23FFF77EFBA4
:100B4000A4F10D01B1FA81F14909C84010BD00BFFF
:100B5000000004050607080900000000000D000061
:100B60000102030405060708090A0B0C0D0E0F10FD
:100B70002DE9F04182B0002800F0A38104460078FE
:100B800041F20006C007C4F2020644D0706800F0CB
:100B90000C00042805D1306880033CD5A068D0BB88
:100BA0008FE1706800F00C00082802D17068C00363
:100BB000F1D4A5682DB1B5F5A02F0AD0B5F5803FC9
:100BC0000BD0306820F480303060306820F4802012
:100BD00006E0306840F480203060306840F48030B7
:100BE0003060FFF72FFE002D054611D030688003DE
:100BF00011D4FFF727FE401B6428F7D914E100BF8A
:100C0000FFF720FE401B64284FF0030000F29580A0
:100C100030688003F4D42078800719D5706810F00C
:100C20000C0F07D0706800F00C00082827D17068FE
:100C3000C00324D43068800703D56069012840F0E0
:100C400040813068A16920F0F80040EAC1003060BE
:100C5000207800073FD5E06948B36820C4F24220FD
:100C60000121C0F81814FFF7EDFD0546706A8007F2
:100C70002FD4FFF7E7FD401B0228F7D9D4E06069C5
:100C8000002840F26800C4F2422000F0A280012156
:100C900040F8681CFFF7D6FD054600BF30688007A6
:100CA000CFD4FFF7CFFD401B0228F7D9BCE0682066
:100CB000C4F242200021C0F81814FFF7C3FD054616
:100CC000706A800707D5FFF7BDFD401B0228F7D9E2
:100CD000AAE001F007FC2078400731D4E06A002840
:100CE00000F0D7807168C90308D5716801F00C0164
:100CF000082903D1F16AC90300F1E380022852D127
:100D00003068C00006D5F06A616B00F0F0008842E0
:100D100040F0D7806827C4F2422700203860FFF7F0
:100D200091FD05463068000140F19680FFF78AFD8D
:100D3000401B64284FF00300F4D902B0BDE8F081F5
:100D4000F06910F0805808D1F06940F08050F061EF
:100D5000F06900F080500190019847F20007C4F25A
:100D600000073868C00510D4386840F480703860D7
:100D7000FFF768FD054600BF3868C00505D4FFF7DA
:100D800061FD401B6428F7D94EE025691DB1052D92
:100D900032D0012D34D0306A20F001003062306A48
:100DA00020F004002FE0F06A002120F48030F0628F
:100DB0006820C4F242200160FFF744FD054600BFF1
:100DC0003068000165D5FFF73DFD401B6428F7D969
:100DD0002AE0002140F8681CFFF734FD054600BFFB
:100DE000306880077FF534AFFFF72CFD401B0228E9
:100DF0004FF00300F4D9A0E7306A40F004003062FD
:100E0000306A40F001003062FFF71CFD002D0546FE
:100E100041F2883714D000BF306A800713D4FFF73F
:100E200011FD401BB842F7D9032002B0BDE8F081A4
:100E3000FFF708FD401BB8424FF003003FF67DAFBF
:100E4000306A8007F4D4B8F1000F7FF447AFF0693F
:100E500020F08050F06141E7F06AD4E90C2120F0E5
:100E6000F0000843F062F06A20F470601043F06212
:100E700001203860FFF7E6FC054600BF306800013E
:100E800007D4FFF7DFFC401B64284FF00300F5D9BF
:100E900053E7256A8DB1706800F00C00082814D162
:100EA000012D0ED07068616A00F480328A4208D148
:100EB000A16A00F47010884203D1002002B0BDE89E
:100EC000F081012002B0BDE8F0816827C4F242271A
:100ED000002047F8080CFFF7B5FC022D05460BD1A2
:100EE0003068800113D5FFF7ADFC401B02284FF09E
:100EF0000300F5D921E700BF30688001DDD5FFF799
:100F0000A1FC401B02284FF00300F5D915E7606AE9
:100F1000B0F5803F09D1F16A6268E3681143F1627C
:100F2000F16A21F00F011943F1627168A26A21F49C
:100F30007411104308437060012047F8080CFFF754
:100F400081FC044630688001B7D4FFF77BFC001BAE
:100F500002284FF00300F5D9EFE6000080B501F05C
:100F600097FC80BDFEE70000F0B581B014460D4649
:100F7000064600F025FB00F099FB012855D04FF400
:100F8000806000F0AFFA00F053FB00BF00F09EFB62
:100F90000028FBD045F21447C4F200073868A020AF
:100FA00000F0C6FB00F07AFB0028FBD000F0AAFAA4
:100FB000300A00F0BDFB00BF00F090FB0028FBD022
:100FC000F0B200F0B5FB00BF00F088FB0028FBD0BA
:100FD00000F02EFB00F07AFB0028FBD03868A1203F
:100FE00000F0A6FB00F05AFB0028FBD000F08AFAC4
:100FF000DCB1661E002705E000F078FBE8550137FC
:10100000A74212D0BE4205DD00F058FB0028FBD0FD
:10101000F2E700BF002000F065FA00F013FB00BF0C
:1010200000F04CFB0028FBD0E6E701B0F0BD00006B
:1010300070B514460D46064600F0C2FA00F036FBC5
:10104000012808BF70BD4FF4806000F04BFA00F03B
:10105000EFFA00BF00F03AFB0028FBD045F2144045
:10106000C4F200000068A02000F062FB00F016FB54
:101070000028FBD000F046FA300A00F059FB00BF10
:1010800000F02CFB0028FBD0F0B200F051FB00BFB9
:1010900000F024FB0028FBD05CB10026A85D00F026
:1010A00047FB00BF00F01AFB0028FBD00136A64228
:1010B000F4D100F0C7FA70BD81B041F21400C4F25F
:1010C0000200016841F001010160006800F00100C8
:1010D0000090009801B0704781B041F21C00C4F24A
:1010E0000200016841F400110160006800F4001082
:1010F0000090009801B0704781B041F21C00C4F22A
:101100000200016841F480410160006800F4804001
:101110000090009801B0704781B041F21C01C4F208
:1011200002010A6802430A600968084000900098BA
:1011300001B0704781B041F21C00C4F202000168A6
:1011400041F480210160006800F480200090009844
:1011500001B0704781B041F21801C4F202010A687F
:1011600002430A60096808400090009801B0704787
:1011700081B041F21800C4F20200016841F0080198
:101180000160006800F008000090009801B070470E
:1011900081B041F21800C4F20200016841F0080178
:1011A0000160006800F008000090009801B07047EE
:1011B00081B041F21801C4F202010A6802430A60D8
:1011C000096808400090009801B0704781B041F272
:1011D0001800C4F20200016841F0100101600068CB
:1011E00000F010000090009801B070470420C4F295
:1011F00002004FF480310160704700000420C4F207
:1012000002004FF400310160704700000420C4F276
:1012100002004FF400210160704700000420C4F276
:1012200002004FF400210160704700006022102985
:1012300043F60C01C4F20202C4F2000119BF1060AF
:1012400051605060116070475820C4F2020001687C
:1012500021F00101016070475820C4F202000168CA
:1012600041F00101016070475820C4F2020001689A
:1012700041F00201016070475820C4F20200016889
:1012800041F00801016070475820C4F20200006874
:1012900044F21001084070470020C4F202000068C8
:1012A000C0F34040704700000020C4F20200006814
:1012B000C0F3C040704700005820C4F2020001682B
:1012C00021F44051016070475C20C4F202000168C3
:1012D000842262F30F010160704700005820C4F2BD
:1012E0000200016844F2100291431031016070471E
:1012F0005820C4F20200016841F08001016070478B
:101300005820C4F20200016821F440610160704776
:101310005820C4F20200016821F0200101607047EA
:101320005820C4F20200016821F0400101607047BA
:101330005820C4F20200016821F440710160704736
:101340000420C4F20100016841F0E06141F00201B3
:10135000016070470420C4F20100016841F0E061BF
:1013600041F0100121F02001016070472DE9F047A4
:10137000B1F801700C4697FAA7F1B1FA81F537FA86
:1013800005F133D0804640F201194FF0011A03E015
:10139000013537FA05F029D027FA05F0C007F7D054
:1013A000B5F108000AFA00F040F08066606838BFC6
:1013B00009FA05F6082804D122694046314600F0B2
:1013C0006FF862684046314600F042F8606840F0CD
:1013D00008000928DCD1A2684046314600F06EF8CA
:1013E000E2684046314600F047F8D1E70020BDE80A
:1013F000F08700008068C1F30F210840401AB0FA5E
:1014000080F0400970470000C1F30F21416170472F
:1014100040F61441C0F30F20C4F201010860704788
:1014200040F61440C4F20100022101607047000040
:1014300040F61041C0F30F20C4F20101086070476C
:1014400040F61041C0F30F20C4F20101086070475C
:1014500080B54FEA116E91FAA1F1B1FA81F15EF80F
:1014600000C089000F238B402CEA030302FA01F12C
:1014700019434EF8001080BD80B54FEA116E91FA05
:10148000A1F1B1FA81F15EF800C0890004238B401C
:101490002CEA030302FA01F119434EF8001080BD53
:1014A000C3684FEA112C23EA11219CFAACF3B3FA7A
:1014B00083F39A401143C1607047000080B54FEA42
:1014C000116E91FAA1F1B1FA81F15EF800C08900C4
:1014D00003238B402CEA030302FA01F119434EF86F
:1014E000001080BD45F20041C4F200010A6822F4F8
:1014F0008062104308607047026822F480621143E2
:101500000160704781B045F21440C4F200000168E8
:101510000091009940680090009801B07047000069
:10152000F0B54DF6836CC4F21B3CA1FB0CCE4FEA28
:101530009E4C4FF496740CFB04FC44F6D354C1F259
:101540006204ACFB044C446848F2A06724F03F04FA
:1015500044EA9E444460046AC0F201077E1C4FEADC
:101560009C1524F03F04B24238BF4FEA9E456E1CE2
:101570002643BA4206620DD91927002B08BF03275C
:101580007A43B1FBF2F10A0508BF0121194341F486
:10159000004107E05200B1FBF2F140F6FC7211424B
:1015A00008BF0421C2694CF6FF739A431143C1611D
:1015B000F0BD0000016821F00101016070470000EA
:1015C00045F20040C4F20000016821F400610160AE
:1015D0007047000045F20040C4F20000016821F0AD
:1015E000400101607047000045F20C40C4F2000069
:1015F000016821F0010101607047000045F20040E0
:10160000C4F20000016841F0010101607047000070
:10161000016841F0010101607047000045F200409F
:10162000C4F20000016821F08001016070470000F1
:1016300045F20040C4F20000016841F4807101608D
:101640007047000045F20040C4F20000016841F418
:101650000071016070470000B0B584B00D460446CB
:10166000FFF7A8FF684600F08DF80299D5E901233D
:101670002046FFF755FFE9686A69204600F044F804
:101680002968204600F03AF82046FFF7C1FF296993
:101690002046FFF731FF002004B0B0BD45F21440F2
:1016A000C4F200000068C0F34000704745F21840E3
:1016B000C4F200000068C0F34000704745F21440D7
:1016C000C4F200000068C0F38010704745F2144077
:1016D000C4F20000006800F00100704745F21440B9
:1016E000C4F200000068C0F3C010704745F210401B
:1016F000C4F200000068C0B270470000026822F027
:101700001A02114301607047D0F808C048F2FF3355
:101710002CEA0303114319438160704745F20C40E2
:10172000C4F20000016821F0FE0101607047000072
:1017300045F21041C4F200010A6822F0FF02104491
:101740000860704741F20400C4F20200006800F033
:10175000F000704741F20400C4F20200006800F497
:10176000E060704741F20400C4F20200006800F437
:101770006050704741F20400C4F20200006800F0BB
:101780000C00704710B5044600F0ECFE206000F03D
:10179000BFFE606000F0CAFE6168A060084600F00D
:1017A000D3FEE06010BD000041F22C00C4F2020044
:1017B000006800F0F000704741F22C00C4F2020013
:1017C000006800F47060704741F20400C4F2020047
:1017D0000168806A01F4803100F4803041EA001031
:1017E0007047000041F20400C4F20200006800F4F7
:1017F0007010704741F22C00C4F20200006800F043
:101800000F00704743F60000C4F20000016841F089
:10181000400101607047000043F60400C4F200007C
:10182000016841F002010160704700002DE9F043BA
:1018300081B00D46044600F03DF808B1012029E0D2
:1018400020684FF6BF7120EA010C95E80E4205F1C1
:10185000140841EA0C011143194398E8C00141EA18
:10186000090141EA0E013143286A394341EA08017E
:10187000014321606168B0F5005F21F0040141EA95
:101880001641616005D1696A204600F017F8002012
:1018900000E00020E16921F40061E16101B0BDE8F0
:1018A000F083000043F60800C4F200000068C0F3B3
:1018B000400070470068C0F38010704789B2016132
:1018C0007047000043F60C01C4F200010870704735
:1018D00080B58A688446087BD1E900E322F47C4223
:1018E000104323F4784210432EF47042CB89104306
:1018F000D1E904216FF35F3322F4404210431843CF
:1019000001430020CCF8441080BD0000026A11435E
:10191000016270476FF0010101617047016821F0B9
:101920008001016070470000016821F00101016041
:1019300070470000816821F08001816070470000DD
:10194000016841F0010101607047000041F20C00A4
:10195000C4F20000016841F001010160704700001D
:10196000416941F0010141617047000040F22440AB
:10197000C4F2000000687047012906D0042906D08F
:1019800010290CBF0221062102E0002100E0012104
:1019900043F66042C0F60002525C43F66743C0F66D
:1019A00000031044595C826903238B409A4301234E
:1019B00003FA01F11143816170470000012908D049
:1019C000042909D010290CBF4FF0020C4FF0060C6F
:1019D00004E04FF0000C01E04FF0010C80B543F63D
:1019E0006043C0F6000313F80C3043F66741C0F6BD
:1019F0000001184411F80C10D0F818E0F0238B40C7
:101A0000120C2EEA030302FA01F11943816180BD31
:101A1000012906D0042906D010290CBF0221062175
:101A200002E0002100E0012104A3595C026A0A23BC
:101A300003FA01F122EA0101016270470002040683
:101A4000080A0C00012906D0042906D010290CBF71
:101A50000221062102E0002100E0012143F660425C
:101A6000C0F60002525C43F66743C0F60003104420
:101A7000595C82690C2303FA01F122EA01018161B8
:101A80007047000070B540F2FF720D4604460068D2
:101A9000C4F2000240F6000142F600469442C4F24D
:101AA0000001C4F2010606DD8C420DD0B4420BD019
:101AB00040F6004304E0B4F1804F05D040F200430B
:101AC000C4F200039C4203D16B6820F070001843FD
:101AD000944206DD8C420DD0B4420BD040F600415A
:101AE00004E0B4F1804F05D040F20041C4F200019F
:101AF0008C4203D1E96820F4407008432060A96853
:101B0000204600F08DF82988204600F093F8B44272
:101B100002D1286900F090F82046FFF721FF00204D
:101B200070BD0000006900F001007047012806D078
:101B3000042806D010280CBF0220062002E0002056
:101B400000E0012043F66041C0F6000143F66E421A
:101B5000095CC0F6000242F61843105CC4F20103AF
:101B60004FF0040CCA580CFA00F022EA0000C850EA
:101B700070470000012806D0042806D010280CBFAA
:101B80000220062002E0002000E0012043F6604130
:101B9000C0F6000143F66E42095CC0F6000242F650
:101BA0001843105CC4F201034FF0080CCA580CFA39
:101BB00000F01043C850704780B50346FF294FF02E
:101BC000010009DC012914D010291DD11846114645
:101BD00000F0D6FB002080BDB1F5807F0FD0B1F5BD
:101BE000805F18BF80BD1846114600F04DFC0020F4
:101BF00080BD1846114600F085FB002080BD1846C8
:101C0000114600F0FFFB002080BD000041637047DB
:101C100081637047C163704701647047C162704758
:101C2000C1627047416270478168012262F302011C
:101C3000816070478162704742F63041C4F2010111
:101C400008607047416821F07001416070470000F2
:101C500044F61000C4F20000016821F490410160D4
:101C6000416821F02A0141607047000044F60C00F1
:101C7000C4F20000016841F40051016070470000A7
:101C8000B0B584B00D46044600F05AF810B10120FA
:101C900004B0B0BDE06841F20C6120EA010CD5E966
:101CA0000121D5E9033042EA0C021A431043E060F7
:101CB000204600F06FF86969204600F065F8684634
:101CC000FFF760FD44F6FF30C4F2000084424FF09D
:101CD000000113DD44F60040C4F2000084421BD032
:101CE00045F20000C4F20000844215D043F6000023
:101CF000C4F20100844208BF03990EE044F20040A0
:101D0000C4F20000844207D044F60000C4F2000090
:101D1000844208BF029900E002990029B7D02A68DE
:101D2000002AB4D0204600F00FF8002004B0B0BD67
:101D300044F60000C4F200000068C0F38010704751
:101D4000C068C0F340307047192359439200B1FB7B
:101D5000F2F148F21F5CC5F2EB1CA1FB0C325209F8
:101D60006FF0630302FB0311322303EB0111A1FBAC
:101D70000C13F02101EA531101EB0211C3F34312DA
:101D800089B2114481607047426922F44072114364
:101D900041617047026922F440521143016170476A
:101DA00044F60401C4F200010860704780B5FFF7F3
:101DB00083F900F0EDFD00F08DFA00F0F9FD00F080
:101DC000D7FD80BD2DE9F04F85B04FF0000B2020EE
:101DD000CDF810B0CDE902BBCDE900BBFFF7BAF9F1
:101DE0001020FFF7B7F904204FF00409FFF7B2F90C
:101DF0000820FFF7AFF940F6000AC4F2010A0AF51D
:101E00008065284640F2077140F20774FFF7FCFA3C
:101E100040F29C08C0F29C4850464146FFF7F4FA55
:101E200040F60F706F46CDE900090AF500603946AB
:101E3000FFF79CFA40F20440CDE9000950463946CC
:101E4000FFF794FA009401260224284639460196A9
:101E5000CDE9024BFFF78AFA50463946CDE90086B4
:101E6000CDE9024BFFF782FA05B0BDE8F08F000024
:101E7000B0B58CB000250B95CDE90955CDE90755D6
:101E8000CDE90555CDE90355CDE90155FFF770F9C9
:101E90000320C0F20340019009200290032045F284
:101EA000004403900420C4F20004049004F5384078
:101EB00001A9FFF75BFAFFF743FAFFF70DF9FFF708
:101EC00093FBFFF787FBFFF7A9FB41F68020C0F2E9
:101ED0000600CDE907054FF480600A904FF480407A
:101EE0000B9006A9204606950995FFF7B5FBFFF76D
:101EF00015FCFFF783FB206840F480602060E068F9
:101F000020F0FE00E0600CB0B0BD000070B590B0F5
:101F100006AC20462821FEF76BFB00260596CDE98E
:101F20000366CDE90166FFF7E7F8FFF731F9A02076
:101F3000C0F2A0400190092043F600050290032062
:101F4000C4F20005CDE9030605F5544001A9FFF7E9
:101F50000DFAFFF7C3F9FFF7AFF9FFF7D9F9FFF76C
:101F6000DFF9FFF7C5F9FFF7E3F9FFF7C9F94FF418
:101F70008270CDE907064FF400700B900820CDE980
:101F80000C060A200F90284621460696CDE90966E0
:101F90000E96FFF74BFCFFF757F9FFF72FF9FFF706
:101FA00035F9FFF739FCFFF75FF9FFF765F9FFF740
:101FB00029FC10B070BD000070B598B000264FF439
:101FC0000060CDE91666CDE91466CDE91266CDE96B
:101FD0001066CDE90E66CDE90C66CDE90A66CDE95D
:101FE0000866CDE90666CDE90466CDE90266CDE96D
:101FF0000066FFF7DDF842F600444FF6FF70C4F2CA
:102000000104CDE9150613A92046ADF84C601496DD
:102010001796FFF737FD2046FFF780FC0120FFF7FA
:10202000A9FD60200BADCDE90B06204601212A4613
:10203000CDE90D66CDE90F66CDE91166FFF7BCFD70
:102040000120FFF773FD1020FFF794FD20461021BB
:102050002A46FFF7B1FD1020FFF768FD2046FFF785
:10206000F1FD2046FFF766FC4FF40050CDE909066C
:1020700005A92046ADF82260CDE9056607968DF8E2
:102080002060FFF725FC0420FFF792F80320C0F240
:1020900003400090092001900220CDE90206A4F53A
:1020A00010506946FFF762F918B070BD10B58AB0DC
:1020B00000240120CDE90844CDE90644CDE90444DB
:1020C000CDE90244CDE90044FFF726F80420FFF7EC
:1020D0006FF840F2033000900820019040F60000B5
:1020E000C4F2010069460494FFF740F94FF08040C4
:1020F000FFF79AFD4FF080400121FFF73DFC4FF0C4
:1021000080400121FFF79EFC4FF0804001214FF4F9
:102110008012FFF753FC4FF080400121FFF778FC5D
:102120004FF080401021FFF727FC4FF08040102136
:10213000FFF788FC4FF0804010214FF40012FFF7AA
:102140003DFC4FF080401021FFF762FC4FF6FF701E
:10215000CDE9070405A94FF08040ADF8144006947E
:10216000FFF790FC4FF08040FFF7D8FB4FF0804026
:10217000FFF768FD4FF08040FFF7DCFB0AB010BDB1
:10218000B0B58AB000250220CDE90855CDE9065545
:10219000CDE90455CDE90255CDE90055FEF7BCFF68
:1021A0000420FFF705F84CF2C00040F20044009014
:1021B0000820C4F20004019004F5823069460495B9
:1021C000FFF7D4F82046FFF72FFD20460121FFF747
:1021D000D3FB20460121FFF735FC204601214FF4B7
:1021E0004012FFF7EBFB20460121FFF711FC2046D0
:1021F0001021FFF7C1FB20461021FFF723FC2046EA
:1022000010214FF48002FFF7D9FB20461021FFF781
:10221000FFFB4FF6FF70CDE9070505A92046ADF895
:1022200014500695FFF72EFC2046FFF777FB20465B
:10223000FFF708FD2046FFF77DFB0AB0B0BD0000A8
:10224000F0B58DB00026CDE90B66CDE90966CDE984
:102250000766CDE90566CDE90366CDE90166FEF7BF
:1022600069FFFEF7B3FF092041F200040427029042
:102270000320C4F2010401ADC0F20447CDE9030616
:10228000204629460197FFF771F807F104100190E5
:102290000420029020462946FFF768F8FFF75AF815
:1022A0004FF4E130CDE906060C20CDE90A06A4F58D
:1022B000484006A9CDE908660C96FFF7E1FCFFF758
:1022C000C7FCFFF7D3FC0DB0F0BD0000FEE7000037
:1022D000FEE700000020704700F0070080F00703D1
:1022E000042B28BF04234FF0FF3C03380CFA03F300
:1022F00038BF0020994381400CFA00F022EA000028
:10230000084370472DE9F0410446006A20F00100BF
:102310002062256A6368D4F818C00A6925F00305AD
:1023200022F00102D1E900E02A4342F60045C4F25E
:102330000105AC4242EA000514D101F1140825F070
:102340000C0098E860016FF004078A6807EA8505C9
:10235000284340EA820523F4407026F400721043BB
:1023600040EA48032CF0730040EA0E006360A0616D
:10237000C9682046FFF74AFC2562BDE8F0810000ED
:102380002DE9F0410446006A6FF0100620F01000BD
:102390002062256A6368D4F818C00A6925F0300500
:1023A00006EA0212D1E900E02A4342F60045C4F2EF
:1023B0000105AC4242EA001516D101F1140825F0DE
:1023C000C00098E860016FF040078A6807EA851549
:1023D000284340EA821523F44060B20040F603032C
:1023E0009A43104340EAC8032CF4E64040EA0E202A
:1023F0006360A061C9682046FFF70AFC2562BDE85A
:10240000F08100002DE9F0410446006A40F2FF1619
:1024100020F480702062256A6368D4F81CC00A69C1
:1024200025F440751202B243D1E900E02A4342F696
:102430000045C4F20105AC4242EA002516D101F183
:10244000140825F4406098E8600140F2FF77AD027F
:102450008A68BD43284340EA822523F44050320174
:1024600042F20F039A43104340EA48132CF07300E2
:1024700040EA0E006360E061C9682046FFF7CAFBCE
:102480002562BDE8F081000070B50446006A42F69E
:10249000004620F480502062206A6268E369D1E936
:1024A00000EC0D69C4F20106B44204D18E6922F435
:1024B000804242EA861223F4E6432D0341F6FF767A
:1024C00043EA0E2320F44050B5436260E3612843A1
:1024D000C96840EA0C352046FFF79EFB256270BDB7
:1024E0007047000081B040F20800C2F200000068AE
:1024F00044F6D351C1F26201A0FB0101480A0090E9
:1025000000BF0098411E00280091F9D101B070472A
:1025100010B50446FFF716F943F24B01C0F3031060
:10252000C0F60001085C24FA00F010BD10B50446A6
:10253000FFF710F943F25B01000AC0F60001085CE6
:1025400024FA00F010BD000010B50446FFF70AF9A8
:1025500043F25B01C00AC0F60001085C24FA00F0F7
:1025600010BD000080B5FFF705F908281ABF41F239
:102570000020C0F27A0000F017F880BD10B5FFF718
:102580001BF9000A43F60951484342F20041C0F2E8
:10259000F40101EB4024FFF707F9012101EB1010D2
:1025A000B4FBF0F010BD000010B5FFF70DF9B0F569
:1025B000803F06D0B0F5881F0DD1FFF7DFFF04463E
:1025C00003E041F20024C0F27A04FFF713F901306E
:1025D000B4FBF0F403E040F60014C0F23D04FFF752
:1025E00001F9B0F5501F03D10D206043400810BD24
:1025F000FFF7F8F8C0F383400230604310BD0000DD
:1026000070B540F291050026C2F200050446C0E90B
:102610000066C0E902660661012029460422FEF731
:10262000A3FC6268681E00BF10F8011FB1400836A5
:10263000202E42EA0102F7D1C4E9002240F27804D8
:10264000C2F2000404A120461346FDF76FFE2046A7
:10265000FEF7B4F870BD00BF524541443A256420EE
:1026600025640D0A0000000080B5002000F030F85D
:1026700080BD0000832898BF1F2900D9704710B57E
:1026800040F2C403C2F200031B7840F2C80E002BD4
:1026900001F007034FEAD10101EB4111B2FA82FCCC
:1026A00000EB8104C2F2000E18BF4FEA5C124FF03B
:1026B000010C1EF804100CFA03F321EA0300012AAE
:1026C00008BF41EA03000EF80400BDE8104070475F
:1026D00080B540F2C401C2F200010978002918BF98
:1026E00001210A1A40F2C800C2F200004FF404713E
:1026F00018BFFF22FDF774FF80BD000040F2C0024A
:10270000C2F20002108040F2C200C2F2000001805A
:102710007047000010B5044640F20440FEF778FE12
:10272000A4F15000C0B200F00BFC002000F008FC47
:10273000102000F005FC10BD2DE9F04F83B040F2F1
:10274000C00A0D46C2F2000ABAF800102B781944EC
:1027500083290AD840F2C20BC2F2000B1646BBF81E
:102760000020697811441F2903D9002003B0BDE877
:10277000F08F0190687870B30199B6FA86F7203926
:102780000024029104E000BF68780134844222D220
:1027900029780029F8D0029A696800FB02404FF0BE
:1027A000000931F8108000BFBAF8000008FA09F1FA
:1027B000BBF800300904484403EB0401324680B200
:1027C00089B258BF7A09FFF755FF287809F1010946
:1027D0008145E9D3D8E72878BAF800100844AAF868
:1027E0000000019803B0BDE8F08F000070B50378D9
:1027F0007BB114460D46461CD8B229462246FFF747
:102800009BFF16F8011C884205D116F8013B002BEE
:10281000F2D1002070BD084670BD000080B540F2C6
:10282000C800C2F200004FF4047100F091FB80BDBB
:102830007047000010B5044640F29600C2F2000056
:102840000138002122680A410831202900F8012FAF
:10285000F8D140F29601C2F2000101200422FEF7F5
:10286000E7FBD4E9003240F27804C2F2000404A18C
:102870002046FDF75BFD2046FDF7A0FF10BD00BF21
:1028800057524954453A25642025640D0A0000003A
:10289000B0B501380024B4EB106F1CBF0120B0BDEF
:1028A0004EF21005CEF2000568604FF0FF300F21A8
:1028B00000F08EF80720AC6028602046B0BD000014
:1028C00080B5FDF7C5FF80BD70B594B006AC20465D
:1028D0003821FDF78DFE0120002506900B904FF466
:1028E000E0104FF480310226CDE910052046059511
:1028F000CDE90355CDE901550995CDE90751CDE95C
:102900000E61FEF735F9A8B90F20CDE901064FF4A5
:102910008060CDE9040501A802210395FEF718F8AF
:10292000002801BF7020C4F242200121016004BFD1
:1029300014B070BDFDF76CFF7047000010B541F298
:102940000004C4F200042046FFF7ECF8012818BF89
:1029500010BD2046FEF7DEFF2046FEF7E5FF40F201
:10296000DA20C2F200000121017010BDFEE7000074
:102970004EF20010CEF200004FF4004101607047AB
:102980004EF20410CEF200004FF480010160704757
:102990004EF60C50CEF200000068C0F302207047E3
:1029A0004EF60C50CEF200000068C0F302207047D3
:1029B0004EF20F410001CEF2000108707047000096
:1029C0004EF23640CEF20000002101707047000048
:1029D0004EF6145300F00F02CEF2000309011A4420
:1029E00000F16043B0F1FF3FC8BF03F564421170CE
:1029F000704700004EF60C51CEF200010A684FF607
:102A0000FF031A4060F30A2242F0806040F0FD703C
:102A100008607047B0B50C46054600200121FFF75D
:102A20006DFEFFF721FE636840F29B04C2F20004D2
:102A300006A220461021FDF78DFC204629460122E2
:102A4000FFF7D4FEFFF7EAFEB0BD00BF25303564C6
:102A50000000000010B541F20044C4F20004014639
:102A60002046FFF7DBF82046FEF754FF2046002102
:102A7000FFF7D8F82046FEF763FF00BF2046FFF7B8
:102A800051F80028FAD02046FEF74EFF10BD000096
:102A900010B540F20044C4F20004204647F6FF712E
:102AA000FFF7C0F820460121FEF730FF2046102135
:102AB000FEF72CFF2046FEF743FF10BD80B54FF018
:102AC000804047F6FF71FFF7ADF84FF080400121DD
:102AD000FEF71CFF4FF080401021FEF717FF4FF06C
:102AE0008040FEF72DFF80BD86B0FDF7BFFEFFF7EB
:102AF000EBFEFFF767F9FFF759F9FFF7D7FAFFF792
:102B00003FFBFFF703FAFFF757FAFFF7B1F9FFF7BB
:102B100097FB00F06DFA00F09DF90DF104084046B6
:102B2000FFF76EFD01AF40F2AC058FCF40F200061B
:102B3000C2F20005C2F2000685E88F003046294641
:102B4000FFF768FF40F2DC27C2F200074FF00009F0
:102B500003E000BF0A20FDF761FE00F079F838803D
:102B600090B13888062805D005280BD12846FFF7F4
:102B700061FE09E04046FFF743FD01AC1FCC85E84C
:102B80001F0001E0A7F80090284600F007F8012890
:102B9000E0D130462946FFF73DFFDBE710B504469C
:102BA000FEF7E4FE013880B247F6FF71081A21688B
:102BB00000EBD0725010B1EB620F606007D0411A89
:102BC000206004D0206908442061012010BD00204D
:102BD00010BD000010B541F20004C4F20004410031
:102BE0002046FFF71BF820460021FFF71BF8204680
:102BF000FEF790FE2046FEF7A3FE10BD10B541F291
:102C00000004C4F20104204640F60801FEF7F2FB7E
:102C1000D8B1204640F20441FEF7ECFBA8B12046B3
:102C200040F20221FEF7E6FB78B1A4F5006040F225
:102C30000441FEF7DFFB40B1204640F20111FEF7F0
:102C4000D9FB00281CBF012010BD002010BD0000D2
:102C500070B540F2E025C2F20005287800284AD17C
:102C600041F20004C4F20104204640F60801FEF7D8
:102C7000C1FB00B3204640F20441FEF7BBFB10B39A
:102C8000204640F20221FEF7B5FB20B3A4F5006018
:102C900040F20441FEF7AEFB28B3204640F201119A
:102CA000FEF7A8FB38BB0120287040F2DE20C2F2FC
:102CB000000007211EE00120287040F2DE20C2F251
:102CC0000000042116E00120287040F2DE20C2F24C
:102CD000000002210EE040F2DE210120C2F20001DC
:102CE0002870088007E00120287040F2DE20C2F240
:102CF0000000052101802878012804D13220FFF747
:102D000069FF02202870287840F2DA260228C2F2F1
:102D1000000612D1307801280FD100243470FFF75B
:102D20006DFF012839D06420FFF754FF032028707D
:102D300040F2D920C2F200000470287803281BD189
:102D40003078012818D100243470FFF757FF01288C
:102D500006D140F2DE202C70C2F20000008870BD67
:102D600040F2D920C2F20000017804291ED80131B6
:102D700001706420FFF72EFF28780024042813D167
:102D80003078012810D140F2DE20C2F20000002489
:102D90000480FFF733FF012802D120462C7070BD5C
:102DA0006420FFF717FF0024204670BD40F2DE24A8
:102DB000C2F200042088022805D0072805D0052883
:102DC00005D1062002E0032000E008202080042036
:102DD00028706420FFF7FEFE208870BDB0B5FEF7B6
:102DE00033FAFEF771FA40F2D825C2F200052878CE
:102DF00040F2C80100EB4010C2F2000101EB80007C
:102E0000041FFEF741FA01462046FEF70FFA287824
:102E100003280BD8FFF77EFC40F20220FEF708FBE8
:102E2000FEF71AFA287801302870B0BD002028700B
:102E3000FEF70AFA40F20440FEF7FAFAB0BD0000CD
:102E400010B50446FEF72EFD0028FBD02046FEF705
:102E500039FD10BD10B540F20110FEF7D9FA40F669
:102E6000B830FFF7F7FD40F20110FEF7E9FA40F63F
:102E7000B830FFF7EFFD40F20440FEF7C9FAAE208C
:102E800000F05EF8812000F05BF8FF2000F058F8B9
:102E9000A62000F055F8A42000F052F8202000F001
:102EA0004FF8022000F04CF8B02000F049F8002064
:102EB000002400F045F8102000F042F8402000F017
:102EC0003FF8A12000F03CF8A82000F039F81F20BE
:102ED00000F036F8C82000F033F8D32000F030F8C6
:102EE000002000F02DF8DA2000F02AF8122000F07F
:102EF00027F8D52000F024F8F02000F021F8DB209E
:102F000000F01EF8202000F01BF8AF2000F018F8A9
:102F100041F28830FFF79EFDFFF7A6FBFFF77EFC2E
:102F200040F2C000C2F20000048040F2C200C2F2CF
:102F30000000048040F20440FEF782FA10BD000059
:102F400010B50446FEF76CFA2046FFF779FF10BD76
:102F500080B5FFF743FF80BD10B586B00024202068
:102F60000594CDE90344CDE90144FEF7D5F84720A7
:102F7000ADF80400FF200294CDE9030441F20044BF
:102F8000C4F2000401A92046FEF77CFD2046FEF7AE
:102F9000C5FC06B010BD000010B586B0002410209E
:102FA0000594CDE90344CDE90144FEF7B5F848F6B0
:102FB0009F40ADF804004FF6FF700294CDE9030482
:102FC000059441F20004C4F2000401A92046FEF772
:102FD00059FD2046FEF7A2FC2046FEF79BFCFEF7BB
:102FE000B5FCFFF7EDFCFFF7CBFC06B010BD000011
:102FF00080B5FFF74DFDFFF761FDFFF7ADFFFFF770
:10300000CBFF80BD30380A2801D201207047002054
:1030100070473031323334353637383941424344E2
:103020004546403058003031323334353637383940
:103030006162636465664030780004000008000047
:10304000000000000002000100001000000000006D
:103050000000000102030406070809000000000147
:103060000203040000000000000000000000000057
:103070000000000000000000000000000000000050
:103080000000000000000000000000000000000040
:103090000000000000000000E003E003E003E003A4
:1030A000E003E003E003E003C003C003C001C0018C
:1030B000C001C001C001000000000000E003E00307
:1030C000E003000000000000000000003C1E3C1E69
:1030D0003C1E3C1E3C1E3C1E3C1E0000000000002E
:1030E00000000000000000000000000000000000E0
:1030F00000000000000000000000000000000000D0
:10310000CE01CE03DE039E039C039C07FF3FFF7F9F
:103110003807380F780F780F780EFFFFFFFFF01E8B
:10312000F01CE01CE03CE03DE03900000000000045
:1031300000000000FC03FE0FEE1FE01EE01EE01E7C
:10314000E01EE01FE00FE007F003FC01FE01FE01BE
:10315000FE01FE01FE01FE01FE3DFC3FF00FE0011D
:10316000E001000000000000033E07F78FE78EE754
:103170009EE3BCE3B8E7F8E7F0F7E03FC001FF03E8
:10318000FF07F307F30FF31EF33CF338F3787FF0F8
:103190003FE000000000000000000000E007F80F22
:1031A000780F781F781F781F780FF00FE00F801FBF
:1031B000C37FC3FBE7F3F7F1F7F0FFF07FF03EF8D2
:1031C0007F7CFF3FEF1F00000000000000000000B8
:1031D000E003E003E003C003C003C001C000C0007F
:1031E00000000000000000000000000000000000DF
:1031F00000000000000000000000000000000000CF
:10320000000000003F007C00F001E001C003C007A7
:1032100080078007800F000F000F000F000F000FC6
:10322000000F800F80078007C007C003E001F00196
:103230007C003F000F000000007E001FC007C0039D
:10324000E001F001F000F000F8007800780078006C
:10325000780078007800F800F000F000F001E0015C
:10326000C003C007001F007E00780000C001E0031B
:10327000180C180C180C180CE003C001000000001A
:10328000000000000000000000000000000000003E
:10329000000000000000000000000000000000002E
:1032A000000000000000000000000000C001C0019C
:1032B000C001C001C001C001C001FFFFFFFFC0018C
:1032C000C001C001C001C001C00100000000000039
:1032D00000000000000000000000000000000000EE
:1032E00000000000000000000000000000000000DE
:1032F000000000000000E003E003E003E003E00161
:10330000E001E001C00180030000000000000000B7
:103310000000000000000000000000000000FE3F70
:10332000FE3F000000000000000000000000000060
:10333000000000000000000000000000000000008D
:10334000000000000000000000000000000000007D
:103350000000000000000000000000000000E0038A
:10336000E003E003E00300000000000000000000B4
:103370000F000F001E001E003C003C00780078008B
:10338000F000F000E001E001C003C0038007800707
:10339000000F000F001E001E003C003C007800786B
:1033A00000F00000F007F80F7C1F3E3E1E3C1F7C23
:1033B0001F7C0F780F780F780F780F780F780F78C1
:1033C0001F7C1F7C1E3C3E3E7C1FF80FF007000058
:1033D0000000000000000000F000F007F03FF03FA8
:1033E000F001F001F001F001F001F001F001F00155
:1033F000F001F001F001F001F001F001F001FF3FF8
:10340000FF3F00000000000000000000E00FF83F58
:103410007C3C3C003E003E003E003C003C007C000A
:10342000F800F001E003C0078007000F001E003E17
:10343000003CFE3FFE3F00000000000000000000D6
:10344000F00FF81F7C1C3E003E003E003C003C009C
:10345000F800F00FF80F7C003E001E001E001E005A
:103460001E003E007C1CF81FE01F00000000000052
:10347000000000007800F800F800F801F803F807F1
:10348000F807780F781E781E783C78787878FFFFF8
:10349000FFFF78007800780078007800780000005E
:1034A0000000000000000000FC1FFC1FFC1F001EAD
:1034B000001E001E001E001EE01FF81FFC007C0006
:1034C0003E003E001E003E003E003C007C1CF81FFB
:1034D000E01F00000000000000000000FC01FE07EB
:1034E0008E0F001F001E003E003C003CF83DFC3FDC
:1034F0003E7F1F7E0F3C0F3C0F3C0F3C0F3E1F1EBC
:103500003E1FFC0FF0030000000000000000000060
:10351000FF3FFF3FFF3F0F001E001E003C00380032
:103520007800F000F000E001E001C003C003800774
:10353000800F800F000F001F001F00000000000020
:1035400000000000F807FC0F3E1F1E1E1E3E1E3E20
:103550001E1E3C1FF80FF007F80FFC1E3E3E1F3CDE
:103560001F7C0F7C0F7C1F3C3E3FFC1FF0070000C0
:103570000000000000000000F007F80F7C1E3E3C39
:103580001E3C1F7C1F7C1F7C1F7C1F3C3F3EFF1F7F
:10359000EF071F001E001E003E003C00F838F03F01
:1035A000E01F00000000000000000000000000001C
:1035B0000000000000000000E003E003E003E0037F
:1035C0000000000000000000000000000000E00318
:1035D000E003E003E0030000000000000000000042
:1035E000000000000000000000000000E003E00315
:1035F000E003E00300000000000000000000000005
:103600000000E003E003E003E003E001E001E0018B
:10361000C003800300000000000000000000000064
:1036200003000F003F00FC00F003C00F003F00FE4E
:10363000003FC00FF003FC003F000F00030000003C
:10364000000000000000000000000000000000007A
:10365000000000000000000000000000FFFFFFFF6E
:10366000000000000000FFFFFFFF0000000000005E
:10367000000000000000000000000000000000004A
:10368000000000000000000000E000F8007E801F45
:10369000E007F8017E001F007E00F801E007801FB0
:1036A000007E00F800E000000000000000000000C4
:1036B000F01FFC3F3E381F381F381E001E003C0024
:1036C0007800F000E001C003C003C007C00700009D
:1036D00000000000C007C007C00700000000000095
:1036E00000000000F803FE0F1E1F0F3E7F3CFF7816
:1036F000EF79C773C7F38FF38FF38FF39FF39FF3C4
:10370000FF73FF7BF779003C1C1FFC0FF8030000E0
:103710000000000000000000000000000000E003C6
:10372000E003F007F007F007780F780F7C0E3C1EDF
:103730003C1E3E3CFE3FFF3F1F780F780FF007F026
:1037400007F0000000000000000000000000000082
:103750000000F83FFC3F3E3C1E3C1E3C1E3C3E3CF5
:103760007C3CF03FF83F7E3C1F3C1F3C0F3C0F3C35
:103770001F3CFE3FF83F000000000000000000007A
:10378000000000000000FF01FF07871F003E003C13
:10379000007C00780078007800780078007C007C5D
:1037A000003E003F831FFF07FF01000000000000F4
:1037B00000000000000000000000F07FFC7F7E7829
:1037C0001F781F780F780F780F780F780F780F78A1
:1037D0000F780F781F781E787E78F87FE07F0000E2
:1037E0000000000000000000000000000000FF3F9B
:1037F000FF3F003E003E003E003E003E003EFE3FDA
:10380000FE3F003E003E003E003E003E003EFF3FC9
:10381000FF3F00000000000000000000000000006A
:103820000000FF1FFF1F001E001E001E001E001EC6
:10383000001EFF1FFF1F001E001E001E001E001E98
:10384000001E001E001E000000000000000000001E
:10385000000000000000FE03FF0F871F003E007CF9
:10386000007C007800F800F87FF87FF80F780F7C74
:103870000F7C0F3E8F1FFF0FFE03000000000000B3
:10388000000000000000000000001F7C1F7C1F7C67
:103890001F7C1F7C1F7C1F7C1F7CFF7FFF7F1F7C8A
:1038A0001F7C1F7C1F7C1F7C1F7C1F7C1F7C0000DB
:1038B0000000000000000000000000000000FF3FCA
:1038C000FF3FE003E003E003E003E003E003E00385
:1038D000E003E003E003E003E003E003E003FF3F75
:1038E000FF3F00000000000000000000000000009A
:1038F0000000FC1FFC1F7C007C007C007C007C0026
:103900007C007C007C007C007C007C0078007800DF
:10391000F838F03FC03F0000000000000000000049
:103920000000000000001F3C1E3C3C3C783CF03C8A
:10393000E03DE03FC03F803FC03FE03FF03DF03C16
:10394000783C7C3C3E3C1F3C0F3C000000000000EB
:1039500000000000000000000000003E003E003EAD
:10396000003E003E003E003E003E003E003E003E67
:10397000003E003E003E003E003EFF3FFF3F000095
:1039800000000000000000000000000000001FF820
:103990001FFC1FFC3FFE3FFE3FFE7FFF77FF77FFD0
:1039A000F7F7E7F7E7F3E7F3C7F307F007F007F0F8
:1039B00007F0000000000000000000000000000010
:1039C00000000F7C0F7C0F7E0F7F0F7F8F7F8F7F1C
:1039D000CF7FEF7BEF79FF79FF78FF787F783F78B3
:1039E0003F781F781F7800000000000000000000F2
:1039F000000000000000F007FC1F3E3E1F7C0F7817
:103A00000F780FF80FF80FF80FF80FF80FF80F787E
:103A10000F781F7C3E3EFC1FF007000000000000F6
:103A200000000000000000000000FC3FFF3F1F3EC0
:103A30000F3E0F3E0F3E0F3E1F3E3F3EFC3FF03F0E
:103A4000003E003E003E003E003E003E003E0000C4
:103A50000000000000000000000000000000F0076F
:103A6000FC1F3E3E1F7C0F780F780FF80FF80FF801
:103A70000FF80FF80FF80F780F781F7C3E3EFC1FF1
:103A8000F8077C003F000F0003000000000000006A
:103A90000000F03FFC3F7E3C3E3C1E3C1E3C3E3C5A
:103AA0003C3CFC3CF03FE03FF03DF83C7C3C3E3C85
:103AB0001E3C1F3C0F3C0000000000000000000006
:103AC000000000000000FC07FE1F0E3E003C003C12
:103AD000003C003EC01FF80FFE037F001F000F00D8
:103AE0000F001F203E3CFC3FF01F000000000000C4
:103AF00000000000000000000000FFFFFFFFE003E7
:103B0000E003E003E003E003E003E003E003E0039D
:103B1000E003E003E003E003E003E003E003000070
:103B200000000000000000000000000000000F7C0A
:103B30000F7C0F7C0F7C0F7C0F7C0F7C0F7C0F7C2D
:103B40000F7C0F7C0F7C0F7C1E3C1E3C3E3EFC1FFE
:103B5000F00700000000000000000000000000006E
:103B6000000007F007F007F80F780F7C1E3C1E3CA2
:103B70001E3E3C1E3C1F781F780FF80FF007F00721
:103B8000F007E003E0030000000000000000000078
:103B900000000000000003E003F003F007F0E7F38B
:103BA000E7F3E7F3E773F77BF77FFF7F7F7F7F7FA5
:103BB0007E7F7E3F3E3E3E3E3E3E000000000000D7
:103BC0000000000000000000000007F80F7C1E3E0F
:103BD0003E3E3C1FF80FF007E007E003E003F0076C
:103BE000F80F7C0F7C1E3E3C1F780F780FF0000012
:103BF000000000000000000000000000000007F8C6
:103C000007780F7C1E3C1E3E3C1F780FF80FF00714
:103C1000E003E003E003E003E003E003E003E0038C
:103C2000E0030000000000000000000000000000B1
:103C30000000FF7FFF7F0F001F003E007C00F800A8
:103C4000F000E001E003C007800F000F001E003EFF
:103C5000007CFF7FFF7F00000000000000000000EC
:103C60000000000004040400000800000008000038
:103C70000800000008000000983C00080000002038
:103C8000180000008C010008B03C0008180000205B
:103C9000D0080000A8010008101A000064300008D5
:103CA0000024F400010000001000000000000000EB
:04000005080001519D
:00000001FF
